{
  "contractName": "FlightSuretyApp",
  "abi": [
    {
      "constant": true,
      "inputs": [],
      "name": "MAX_INSURANCE_FEE",
      "outputs": [
        {
          "name": "",
          "type": "uint256"
        }
      ],
      "payable": false,
      "stateMutability": "view",
      "type": "function"
    },
    {
      "constant": true,
      "inputs": [],
      "name": "REGISTRATION_FEE",
      "outputs": [
        {
          "name": "",
          "type": "uint256"
        }
      ],
      "payable": false,
      "stateMutability": "view",
      "type": "function"
    },
    {
      "constant": true,
      "inputs": [],
      "name": "airlinesRegisteredCount",
      "outputs": [
        {
          "name": "",
          "type": "uint8"
        }
      ],
      "payable": false,
      "stateMutability": "view",
      "type": "function"
    },
    {
      "constant": true,
      "inputs": [],
      "name": "MIN_FUNDING_AMOUNT",
      "outputs": [
        {
          "name": "",
          "type": "uint256"
        }
      ],
      "payable": false,
      "stateMutability": "view",
      "type": "function"
    },
    {
      "inputs": [
        {
          "name": "dataContract",
          "type": "address"
        }
      ],
      "payable": false,
      "stateMutability": "nonpayable",
      "type": "constructor"
    },
    {
      "anonymous": false,
      "inputs": [
        {
          "indexed": false,
          "name": "airline",
          "type": "address"
        },
        {
          "indexed": false,
          "name": "flight",
          "type": "string"
        },
        {
          "indexed": false,
          "name": "timestamp",
          "type": "uint256"
        },
        {
          "indexed": false,
          "name": "status",
          "type": "uint8"
        }
      ],
      "name": "FlightStatusInfo",
      "type": "event"
    },
    {
      "anonymous": false,
      "inputs": [
        {
          "indexed": false,
          "name": "airline",
          "type": "address"
        },
        {
          "indexed": false,
          "name": "flight",
          "type": "string"
        },
        {
          "indexed": false,
          "name": "timestamp",
          "type": "uint256"
        },
        {
          "indexed": false,
          "name": "status",
          "type": "uint8"
        }
      ],
      "name": "OracleReport",
      "type": "event"
    },
    {
      "anonymous": false,
      "inputs": [
        {
          "indexed": false,
          "name": "index",
          "type": "uint8"
        },
        {
          "indexed": false,
          "name": "airline",
          "type": "address"
        },
        {
          "indexed": false,
          "name": "flight",
          "type": "string"
        },
        {
          "indexed": false,
          "name": "timestamp",
          "type": "uint256"
        }
      ],
      "name": "OracleRequest",
      "type": "event"
    },
    {
      "constant": true,
      "inputs": [],
      "name": "isOperational",
      "outputs": [
        {
          "name": "",
          "type": "bool"
        }
      ],
      "payable": false,
      "stateMutability": "view",
      "type": "function"
    },
    {
      "constant": false,
      "inputs": [
        {
          "name": "airline",
          "type": "address"
        }
      ],
      "name": "registerAirline",
      "outputs": [
        {
          "name": "success",
          "type": "bool"
        },
        {
          "name": "votes",
          "type": "uint256"
        }
      ],
      "payable": false,
      "stateMutability": "nonpayable",
      "type": "function"
    },
    {
      "constant": false,
      "inputs": [],
      "name": "AirlineFunding",
      "outputs": [],
      "payable": true,
      "stateMutability": "payable",
      "type": "function"
    },
    {
      "constant": false,
      "inputs": [
        {
          "name": "airline",
          "type": "address"
        },
        {
          "name": "flight",
          "type": "string"
        },
        {
          "name": "timestamp",
          "type": "uint256"
        }
      ],
      "name": "registerFlight",
      "outputs": [],
      "payable": true,
      "stateMutability": "payable",
      "type": "function"
    },
    {
      "constant": false,
      "inputs": [
        {
          "name": "airline",
          "type": "address"
        },
        {
          "name": "flight",
          "type": "string"
        },
        {
          "name": "timestamp",
          "type": "uint256"
        }
      ],
      "name": "fetchFlightStatus",
      "outputs": [],
      "payable": false,
      "stateMutability": "nonpayable",
      "type": "function"
    },
    {
      "constant": false,
      "inputs": [],
      "name": "registerOracle",
      "outputs": [],
      "payable": true,
      "stateMutability": "payable",
      "type": "function"
    },
    {
      "constant": true,
      "inputs": [],
      "name": "getMyIndexes",
      "outputs": [
        {
          "name": "",
          "type": "uint8[3]"
        }
      ],
      "payable": false,
      "stateMutability": "view",
      "type": "function"
    },
    {
      "constant": false,
      "inputs": [
        {
          "name": "index",
          "type": "uint8"
        },
        {
          "name": "airline",
          "type": "address"
        },
        {
          "name": "flight",
          "type": "string"
        },
        {
          "name": "timestamp",
          "type": "uint256"
        },
        {
          "name": "statusCode",
          "type": "uint8"
        }
      ],
      "name": "submitOracleResponse",
      "outputs": [],
      "payable": false,
      "stateMutability": "nonpayable",
      "type": "function"
    },
    {
      "constant": true,
      "inputs": [],
      "name": "getExistingAirlines",
      "outputs": [
        {
          "name": "",
          "type": "address[]"
        }
      ],
      "payable": false,
      "stateMutability": "view",
      "type": "function"
    },
    {
      "constant": true,
      "inputs": [
        {
          "name": "airline",
          "type": "address"
        }
      ],
      "name": "getAirlineFunds",
      "outputs": [
        {
          "name": "funds",
          "type": "uint256"
        }
      ],
      "payable": false,
      "stateMutability": "view",
      "type": "function"
    },
    {
      "constant": true,
      "inputs": [],
      "name": "getBalance",
      "outputs": [
        {
          "name": "funds",
          "type": "uint256"
        }
      ],
      "payable": false,
      "stateMutability": "view",
      "type": "function"
    },
    {
      "constant": false,
      "inputs": [
        {
          "name": "amount",
          "type": "uint256"
        }
      ],
      "name": "withdrawFunds",
      "outputs": [
        {
          "name": "funds",
          "type": "uint256"
        }
      ],
      "payable": false,
      "stateMutability": "nonpayable",
      "type": "function"
    }
  ],
  "bytecode": "0x60806040526001600060146101000a81548160ff021916908360ff1602179055506000600460146101000a81548160ff021916908360ff16021790555034801561004857600080fd5b5060405160208061433b83398101806040528101908080519060200190929190505050336000806101000a81548173ffffffffffffffffffffffffffffffffffffffff021916908373ffffffffffffffffffffffffffffffffffffffff16021790555080600460006101000a81548173ffffffffffffffffffffffffffffffffffffffff021916908373ffffffffffffffffffffffffffffffffffffffff1602179055505061423f806100fc6000396000f3006080604052600436106100e6576000357c0100000000000000000000000000000000000000000000000000000000900463ffffffff16806312065fe0146100eb578063155dd5ee14610116578063339d25901461015757806338ae432d146101615780633cc0be9c1461018c5780635f1cc0e61461021257806364b4f7511461026557806371cb3971146102905780639a635a84146102c15780639e4a8f8f146102cb578063bd666bd614610322578063bdfd98771461038e578063c10f2700146103f0578063cd905dff1461046f578063d2a7d38a1461049e578063f83f11c0146104c9575b600080fd5b3480156100f757600080fd5b5061010061052e565b6040518082815260200191505060405180910390f35b34801561012257600080fd5b5061014160048036038101908080359060200190929190505050610788565b6040518082815260200191505060405180910390f35b61015f610b60565b005b34801561016d57600080fd5b50610176610de3565b6040518082815260200191505060405180910390f35b610210600480360381019080803573ffffffffffffffffffffffffffffffffffffffff169060200190929190803590602001908201803590602001908080601f016020809104026020016040519081016040528093929190818152602001838380828437820191505050505050919291929080359060200190929190505050610def565b005b34801561021e57600080fd5b506102276115ed565b6040518082600360200280838360005b83811015610252578082015181840152602081019050610237565b5050505090500191505060405180910390f35b34801561027157600080fd5b5061027a6118bd565b6040518082815260200191505060405180910390f35b34801561029c57600080fd5b506102a56118c9565b604051808260ff1660ff16815260200191505060405180910390f35b6102c96118dc565b005b3480156102d757600080fd5b5061030c600480360381019080803573ffffffffffffffffffffffffffffffffffffffff169060200190929190505050611ced565b6040518082815260200191505060405180910390f35b34801561032e57600080fd5b50610337611f49565b6040518080602001828103825283818151815260200191508051906020019060200280838360005b8381101561037a57808201518184015260208101905061035f565b505050509050019250505060405180910390f35b34801561039a57600080fd5b506103cf600480360381019080803573ffffffffffffffffffffffffffffffffffffffff1690602001909291905050506121c2565b60405180831515151581526020018281526020019250505060405180910390f35b3480156103fc57600080fd5b5061046d600480360381019080803560ff169060200190929190803573ffffffffffffffffffffffffffffffffffffffff16906020019092919080359060200190820180359060200191909192939192939080359060200190929190803560ff169060200190929190505050612daf565b005b34801561047b57600080fd5b50610484613534565b604051808215151515815260200191505060405180910390f35b3480156104aa57600080fd5b506104b36135fc565b6040518082815260200191505060405180910390f35b3480156104d557600080fd5b5061052c600480360381019080803573ffffffffffffffffffffffffffffffffffffffff16906020019092919080359060200190820180359060200191909192939192939080359060200190929190505050613608565b005b6000600460009054906101000a900473ffffffffffffffffffffffffffffffffffffffff1673ffffffffffffffffffffffffffffffffffffffff1663cd905dff6040518163ffffffff167c0100000000000000000000000000000000000000000000000000000000028152600401602060405180830381600087803b1580156105b657600080fd5b505af11580156105ca573d6000803e3d6000fd5b505050506040513d60208110156105e057600080fd5b8101908080519060200190929190505050151561068b576040517f08c379a00000000000000000000000000000000000000000000000000000000081526004018080602001828103825260258152602001807f436f6e74726163742069732063757272656e746c79206e6f74206f706572617481526020017f696f6e616c00000000000000000000000000000000000000000000000000000081525060400191505060405180910390fd5b600460009054906101000a900473ffffffffffffffffffffffffffffffffffffffff1673ffffffffffffffffffffffffffffffffffffffff166345d29b92336040518263ffffffff167c0100000000000000000000000000000000000000000000000000000000028152600401808273ffffffffffffffffffffffffffffffffffffffff1673ffffffffffffffffffffffffffffffffffffffff168152602001915050602060405180830381600087803b15801561074857600080fd5b505af115801561075c573d6000803e3d6000fd5b505050506040513d602081101561077257600080fd5b8101908080519060200190929190505050905090565b600080600460009054906101000a900473ffffffffffffffffffffffffffffffffffffffff1673ffffffffffffffffffffffffffffffffffffffff1663cd905dff6040518163ffffffff167c0100000000000000000000000000000000000000000000000000000000028152600401602060405180830381600087803b15801561081157600080fd5b505af1158015610825573d6000803e3d6000fd5b505050506040513d602081101561083b57600080fd5b810190808051906020019092919050505015156108e6576040517f08c379a00000000000000000000000000000000000000000000000000000000081526004018080602001828103825260258152602001807f436f6e74726163742069732063757272656e746c79206e6f74206f706572617481526020017f696f6e616c00000000000000000000000000000000000000000000000000000081525060400191505060405180910390fd5b600460009054906101000a900473ffffffffffffffffffffffffffffffffffffffff1673ffffffffffffffffffffffffffffffffffffffff166345d29b92336040518263ffffffff167c0100000000000000000000000000000000000000000000000000000000028152600401808273ffffffffffffffffffffffffffffffffffffffff1673ffffffffffffffffffffffffffffffffffffffff168152602001915050602060405180830381600087803b1580156109a357600080fd5b505af11580156109b7573d6000803e3d6000fd5b505050506040513d60208110156109cd57600080fd5b81019080805190602001909291905050509050808311151515610a58576040517f08c379a00000000000000000000000000000000000000000000000000000000081526004018080602001828103825260208152602001807f52657175657374656420616d6f756e7420657863656564732062616c616e636581525060200191505060405180910390fd5b600460009054906101000a900473ffffffffffffffffffffffffffffffffffffffff1673ffffffffffffffffffffffffffffffffffffffff16630792cca684336040518363ffffffff167c0100000000000000000000000000000000000000000000000000000000028152600401808381526020018273ffffffffffffffffffffffffffffffffffffffff1673ffffffffffffffffffffffffffffffffffffffff16815260200192505050602060405180830381600087803b158015610b1d57600080fd5b505af1158015610b31573d6000803e3d6000fd5b505050506040513d6020811015610b4757600080fd5b8101908080519060200190929190505050915050919050565b610b68614126565b600460009054906101000a900473ffffffffffffffffffffffffffffffffffffffff1673ffffffffffffffffffffffffffffffffffffffff1663cd905dff6040518163ffffffff167c0100000000000000000000000000000000000000000000000000000000028152600401602060405180830381600087803b158015610bee57600080fd5b505af1158015610c02573d6000803e3d6000fd5b505050506040513d6020811015610c1857600080fd5b81019080805190602001909291905050501515610cc3576040517f08c379a00000000000000000000000000000000000000000000000000000000081526004018080602001828103825260258152602001807f436f6e74726163742069732063757272656e746c79206e6f74206f706572617481526020017f696f6e616c00000000000000000000000000000000000000000000000000000081525060400191505060405180910390fd5b670de0b6b3a76400003410151515610d43576040517f08c379a000000000000000000000000000000000000000000000000000000000815260040180806020018281038252601c8152602001807f526567697374726174696f6e206665652069732072657175697265640000000081525060200191505060405180910390fd5b610d4c33613b3b565b9050604080519081016040528060011515815260200182815250600560003373ffffffffffffffffffffffffffffffffffffffff1673ffffffffffffffffffffffffffffffffffffffff16815260200190815260200160002060008201518160000160006101000a81548160ff021916908315150217905550602082015181600101906003610ddc929190614149565b5090505050565b670de0b6b3a764000081565b600460009054906101000a900473ffffffffffffffffffffffffffffffffffffffff1673ffffffffffffffffffffffffffffffffffffffff1663cd905dff6040518163ffffffff167c0100000000000000000000000000000000000000000000000000000000028152600401602060405180830381600087803b158015610e7557600080fd5b505af1158015610e89573d6000803e3d6000fd5b505050506040513d6020811015610e9f57600080fd5b81019080805190602001909291905050501515610f4a576040517f08c379a00000000000000000000000000000000000000000000000000000000081526004018080602001828103825260258152602001807f436f6e74726163742069732063757272656e746c79206e6f74206f706572617481526020017f696f6e616c00000000000000000000000000000000000000000000000000000081525060400191505060405180910390fd5b82600460009054906101000a900473ffffffffffffffffffffffffffffffffffffffff1673ffffffffffffffffffffffffffffffffffffffff1663010c5c97826040518263ffffffff167c0100000000000000000000000000000000000000000000000000000000028152600401808273ffffffffffffffffffffffffffffffffffffffff1673ffffffffffffffffffffffffffffffffffffffff168152602001915050602060405180830381600087803b15801561100857600080fd5b505af115801561101c573d6000803e3d6000fd5b505050506040513d602081101561103257600080fd5b810190808051906020019092919050505015156110b7576040517f08c379a00000000000000000000000000000000000000000000000000000000081526004018080602001828103825260168152602001807f4169726c696e65206e6f7420726567697374657265640000000000000000000081525060200191505060405180910390fd5b816000429050808210151515611135576040517f08c379a00000000000000000000000000000000000000000000000000000000081526004018080602001828103825260178152602001807f54696d65747374616d70206973206e6f742076616c696400000000000000000081525060200191505060405180910390fd5b858585600460009054906101000a900473ffffffffffffffffffffffffffffffffffffffff1673ffffffffffffffffffffffffffffffffffffffff1663e0cf1b90848484336040518563ffffffff167c0100000000000000000000000000000000000000000000000000000000028152600401808573ffffffffffffffffffffffffffffffffffffffff1673ffffffffffffffffffffffffffffffffffffffff168152602001806020018481526020018373ffffffffffffffffffffffffffffffffffffffff1673ffffffffffffffffffffffffffffffffffffffff168152602001828103825285818151815260200191508051906020019080838360005b8381101561124f578082015181840152602081019050611234565b50505050905090810190601f16801561127c5780820380516001836020036101000a031916815260200191505b5095505050505050602060405180830381600087803b15801561129e57600080fd5b505af11580156112b2573d6000803e3d6000fd5b505050506040513d60208110156112c857600080fd5b8101908080519060200190929190505050151561134d576040517f08c379a00000000000000000000000000000000000000000000000000000000081526004018080602001828103825260178152602001807f596f752061726520616c726561647920696e737572656400000000000000000081525060200191505060405180910390fd5b670de0b6b3a764000034111515156113f3576040517f08c379a00000000000000000000000000000000000000000000000000000000081526004018080602001828103825260278152602001807f496e737572616e636520666565206d757374206265206c657373207468616e2081526020017f312065746865720000000000000000000000000000000000000000000000000081525060400191505060405180910390fd5b600460009054906101000a900473ffffffffffffffffffffffffffffffffffffffff1673ffffffffffffffffffffffffffffffffffffffff166108fc349081150290604051600060405180830381858888f1935050505015801561145b573d6000803e3d6000fd5b50600460009054906101000a900473ffffffffffffffffffffffffffffffffffffffff1673ffffffffffffffffffffffffffffffffffffffff1663b11dca788a8a8a33346040518663ffffffff167c0100000000000000000000000000000000000000000000000000000000028152600401808673ffffffffffffffffffffffffffffffffffffffff1673ffffffffffffffffffffffffffffffffffffffff168152602001806020018581526020018473ffffffffffffffffffffffffffffffffffffffff1673ffffffffffffffffffffffffffffffffffffffff168152602001838152602001828103825286818151815260200191508051906020019080838360005b8381101561157a57808201518184015260208101905061155f565b50505050905090810190601f1680156115a75780820380516001836020036101000a031916815260200191505b509650505050505050600060405180830381600087803b1580156115ca57600080fd5b505af11580156115de573d6000803e3d6000fd5b50505050505050505050505050565b6115f5614126565b600460009054906101000a900473ffffffffffffffffffffffffffffffffffffffff1673ffffffffffffffffffffffffffffffffffffffff1663cd905dff6040518163ffffffff167c0100000000000000000000000000000000000000000000000000000000028152600401602060405180830381600087803b15801561167b57600080fd5b505af115801561168f573d6000803e3d6000fd5b505050506040513d60208110156116a557600080fd5b81019080805190602001909291905050501515611750576040517f08c379a00000000000000000000000000000000000000000000000000000000081526004018080602001828103825260258152602001807f436f6e74726163742069732063757272656e746c79206e6f74206f706572617481526020017f696f6e616c00000000000000000000000000000000000000000000000000000081525060400191505060405180910390fd5b600560003373ffffffffffffffffffffffffffffffffffffffff1673ffffffffffffffffffffffffffffffffffffffff16815260200190815260200160002060000160009054906101000a900460ff161515611814576040517f08c379a000000000000000000000000000000000000000000000000000000000815260040180806020018281038252601b8152602001807f4e6f74207265676973746572656420617320616e206f7261636c65000000000081525060200191505060405180910390fd5b600560003373ffffffffffffffffffffffffffffffffffffffff1673ffffffffffffffffffffffffffffffffffffffff1681526020019081526020016000206001016003806020026040519081016040528092919082600380156118b3576020028201916000905b82829054906101000a900460ff1660ff168152602001906001019060208260000104928301926001038202915080841161187c5790505b5050505050905090565b670de0b6b3a764000081565b600060149054906101000a900460ff1681565b600460009054906101000a900473ffffffffffffffffffffffffffffffffffffffff1673ffffffffffffffffffffffffffffffffffffffff1663cd905dff6040518163ffffffff167c0100000000000000000000000000000000000000000000000000000000028152600401602060405180830381600087803b15801561196257600080fd5b505af1158015611976573d6000803e3d6000fd5b505050506040513d602081101561198c57600080fd5b81019080805190602001909291905050501515611a37576040517f08c379a00000000000000000000000000000000000000000000000000000000081526004018080602001828103825260258152602001807f436f6e74726163742069732063757272656e746c79206e6f74206f706572617481526020017f696f6e616c00000000000000000000000000000000000000000000000000000081525060400191505060405180910390fd5b33600460009054906101000a900473ffffffffffffffffffffffffffffffffffffffff1673ffffffffffffffffffffffffffffffffffffffff1663010c5c97826040518263ffffffff167c0100000000000000000000000000000000000000000000000000000000028152600401808273ffffffffffffffffffffffffffffffffffffffff1673ffffffffffffffffffffffffffffffffffffffff168152602001915050602060405180830381600087803b158015611af557600080fd5b505af1158015611b09573d6000803e3d6000fd5b505050506040513d6020811015611b1f57600080fd5b81019080805190602001909291905050501515611ba4576040517f08c379a00000000000000000000000000000000000000000000000000000000081526004018080602001828103825260168152602001807f4169726c696e65206e6f7420726567697374657265640000000000000000000081525060200191505060405180910390fd5b600460009054906101000a900473ffffffffffffffffffffffffffffffffffffffff1673ffffffffffffffffffffffffffffffffffffffff166108fc349081150290604051600060405180830381858888f19350505050158015611c0c573d6000803e3d6000fd5b50600460009054906101000a900473ffffffffffffffffffffffffffffffffffffffff1673ffffffffffffffffffffffffffffffffffffffff1663f1a81e7233346040518363ffffffff167c0100000000000000000000000000000000000000000000000000000000028152600401808373ffffffffffffffffffffffffffffffffffffffff1673ffffffffffffffffffffffffffffffffffffffff16815260200182815260200192505050600060405180830381600087803b158015611cd257600080fd5b505af1158015611ce6573d6000803e3d6000fd5b5050505050565b6000600460009054906101000a900473ffffffffffffffffffffffffffffffffffffffff1673ffffffffffffffffffffffffffffffffffffffff1663cd905dff6040518163ffffffff167c0100000000000000000000000000000000000000000000000000000000028152600401602060405180830381600087803b158015611d7557600080fd5b505af1158015611d89573d6000803e3d6000fd5b505050506040513d6020811015611d9f57600080fd5b81019080805190602001909291905050501515611e4a576040517f08c379a00000000000000000000000000000000000000000000000000000000081526004018080602001828103825260258152602001807f436f6e74726163742069732063757272656e746c79206e6f74206f706572617481526020017f696f6e616c00000000000000000000000000000000000000000000000000000081525060400191505060405180910390fd5b600460009054906101000a900473ffffffffffffffffffffffffffffffffffffffff1673ffffffffffffffffffffffffffffffffffffffff16639e4a8f8f836040518263ffffffff167c0100000000000000000000000000000000000000000000000000000000028152600401808273ffffffffffffffffffffffffffffffffffffffff1673ffffffffffffffffffffffffffffffffffffffff168152602001915050602060405180830381600087803b158015611f0757600080fd5b505af1158015611f1b573d6000803e3d6000fd5b505050506040513d6020811015611f3157600080fd5b81019080805190602001909291905050509050919050565b6060600460009054906101000a900473ffffffffffffffffffffffffffffffffffffffff1673ffffffffffffffffffffffffffffffffffffffff1663cd905dff6040518163ffffffff167c0100000000000000000000000000000000000000000000000000000000028152600401602060405180830381600087803b158015611fd157600080fd5b505af1158015611fe5573d6000803e3d6000fd5b505050506040513d6020811015611ffb57600080fd5b810190808051906020019092919050505015156120a6576040517f08c379a00000000000000000000000000000000000000000000000000000000081526004018080602001828103825260258152602001807f436f6e74726163742069732063757272656e746c79206e6f74206f706572617481526020017f696f6e616c00000000000000000000000000000000000000000000000000000081525060400191505060405180910390fd5b600460009054906101000a900473ffffffffffffffffffffffffffffffffffffffff1673ffffffffffffffffffffffffffffffffffffffff16630d5dc0546040518163ffffffff167c0100000000000000000000000000000000000000000000000000000000028152600401600060405180830381600087803b15801561212c57600080fd5b505af1158015612140573d6000803e3d6000fd5b505050506040513d6000823e3d601f19601f82011682018060405250602081101561216a57600080fd5b81019080805164010000000081111561218257600080fd5b8281019050602081018481111561219857600080fd5b81518560208202830111640100000000821117156121b557600080fd5b5050929190505050905090565b6000806000600460009054906101000a900473ffffffffffffffffffffffffffffffffffffffff1673ffffffffffffffffffffffffffffffffffffffff1663cd905dff6040518163ffffffff167c0100000000000000000000000000000000000000000000000000000000028152600401602060405180830381600087803b15801561224d57600080fd5b505af1158015612261573d6000803e3d6000fd5b505050506040513d602081101561227757600080fd5b81019080805190602001909291905050501515612322576040517f08c379a00000000000000000000000000000000000000000000000000000000081526004018080602001828103825260258152602001807f436f6e74726163742069732063757272656e746c79206e6f74206f706572617481526020017f696f6e616c00000000000000000000000000000000000000000000000000000081525060400191505060405180910390fd5b600460009054906101000a900473ffffffffffffffffffffffffffffffffffffffff1673ffffffffffffffffffffffffffffffffffffffff1663010c5c97336040518263ffffffff167c0100000000000000000000000000000000000000000000000000000000028152600401808273ffffffffffffffffffffffffffffffffffffffff1673ffffffffffffffffffffffffffffffffffffffff168152602001915050602060405180830381600087803b1580156123df57600080fd5b505af11580156123f3573d6000803e3d6000fd5b505050506040513d602081101561240957600080fd5b8101908080519060200190929190505050151561248e576040517f08c379a00000000000000000000000000000000000000000000000000000000081526004018080602001828103825260168152602001807f4169726c696e65206e6f7420726567697374657265640000000000000000000081525060200191505060405180910390fd5b60008060009150600460009054906101000a900473ffffffffffffffffffffffffffffffffffffffff1673ffffffffffffffffffffffffffffffffffffffff16639e4a8f8f336040518263ffffffff167c0100000000000000000000000000000000000000000000000000000000028152600401808273ffffffffffffffffffffffffffffffffffffffff1673ffffffffffffffffffffffffffffffffffffffff168152602001915050602060405180830381600087803b15801561255257600080fd5b505af1158015612566573d6000803e3d6000fd5b505050506040513d602081101561257c57600080fd5b81019080805190602001909291905050509050678ac7230489e80000811015156125a557600191505b6001151582151514151561266d576040517f08c379a00000000000000000000000000000000000000000000000000000000081526004018080602001828103825260418152602001807f4169726c696e652063616e206e6f7420706172746963697061746520696e206381526020017f6f6e747261637420756e74696c206974207375626d697473203130206574686581526020017f720000000000000000000000000000000000000000000000000000000000000081525060600191505060405180910390fd5b85600460009054906101000a900473ffffffffffffffffffffffffffffffffffffffff1673ffffffffffffffffffffffffffffffffffffffff1663010c5c97826040518263ffffffff167c0100000000000000000000000000000000000000000000000000000000028152600401808273ffffffffffffffffffffffffffffffffffffffff1673ffffffffffffffffffffffffffffffffffffffff168152602001915050602060405180830381600087803b15801561272b57600080fd5b505af115801561273f573d6000803e3d6000fd5b505050506040513d602081101561275557600080fd5b81019080805190602001909291905050501515156127db576040517f08c379a000000000000000000000000000000000000000000000000000000000815260040180806020018281038252601a8152602001807f4169726c696e6520616c7265616479207265676973746572656400000000000081525060200191505060405180910390fd5b600073ffffffffffffffffffffffffffffffffffffffff168773ffffffffffffffffffffffffffffffffffffffff16141515156128a6576040517f08c379a00000000000000000000000000000000000000000000000000000000081526004018080602001828103825260228152602001807f276169726c696e6527206d75737420626520612076616c69642061646472657381526020017f732e00000000000000000000000000000000000000000000000000000000000081525060400191505060405180910390fd5b6000955060009450600460ff16600060149054906101000a900460ff1660ff161015612a0457600460009054906101000a900473ffffffffffffffffffffffffffffffffffffffff1673ffffffffffffffffffffffffffffffffffffffff1663bdfd9877886040518263ffffffff167c0100000000000000000000000000000000000000000000000000000000028152600401808273ffffffffffffffffffffffffffffffffffffffff1673ffffffffffffffffffffffffffffffffffffffff168152602001915050602060405180830381600087803b15801561298957600080fd5b505af115801561299d573d6000803e3d6000fd5b505050506040513d60208110156129b357600080fd5b8101908080519060200190929190505050955085156129ff576000601481819054906101000a900460ff168092919060010191906101000a81548160ff021916908360ff160217905550505b612da0565b600260008873ffffffffffffffffffffffffffffffffffffffff1673ffffffffffffffffffffffffffffffffffffffff16815260200190815260200160002093508360003373ffffffffffffffffffffffffffffffffffffffff1673ffffffffffffffffffffffffffffffffffffffff16815260200190815260200160002060009054906101000a900460ff161515612d9f576001600260008973ffffffffffffffffffffffffffffffffffffffff1673ffffffffffffffffffffffffffffffffffffffff16815260200190815260200160002060003373ffffffffffffffffffffffffffffffffffffffff1673ffffffffffffffffffffffffffffffffffffffff16815260200190815260200160002060006101000a81548160ff021916908315150217905550600360008873ffffffffffffffffffffffffffffffffffffffff1673ffffffffffffffffffffffffffffffffffffffff168152602001908152602001600020600081819054906101000a900460ff168092919060010191906101000a81548160ff021916908360ff16021790555050612bc16002600060149054906101000a900460ff1660ff16613ce190919063ffffffff16565b600360008973ffffffffffffffffffffffffffffffffffffffff1673ffffffffffffffffffffffffffffffffffffffff16815260200190815260200160002060009054906101000a900460ff1660ff16101515612d9e57600460009054906101000a900473ffffffffffffffffffffffffffffffffffffffff1673ffffffffffffffffffffffffffffffffffffffff1663bdfd9877886040518263ffffffff167c0100000000000000000000000000000000000000000000000000000000028152600401808273ffffffffffffffffffffffffffffffffffffffff1673ffffffffffffffffffffffffffffffffffffffff168152602001915050602060405180830381600087803b158015612cd557600080fd5b505af1158015612ce9573d6000803e3d6000fd5b505050506040513d6020811015612cff57600080fd5b81019080805190602001909291905050509550600360008873ffffffffffffffffffffffffffffffffffffffff1673ffffffffffffffffffffffffffffffffffffffff16815260200190815260200160002060009054906101000a900460ff1660ff1694508515612d9d576000601481819054906101000a900460ff168092919060010191906101000a81548160ff021916908360ff160217905550505b5b5b5b85859550955050505050915091565b6000600460009054906101000a900473ffffffffffffffffffffffffffffffffffffffff1673ffffffffffffffffffffffffffffffffffffffff1663cd905dff6040518163ffffffff167c0100000000000000000000000000000000000000000000000000000000028152600401602060405180830381600087803b158015612e3757600080fd5b505af1158015612e4b573d6000803e3d6000fd5b505050506040513d6020811015612e6157600080fd5b81019080805190602001909291905050501515612f0c576040517f08c379a00000000000000000000000000000000000000000000000000000000081526004018080602001828103825260258152602001807f436f6e74726163742069732063757272656e746c79206e6f74206f706572617481526020017f696f6e616c00000000000000000000000000000000000000000000000000000081525060400191505060405180910390fd5b8660ff16600560003373ffffffffffffffffffffffffffffffffffffffff1673ffffffffffffffffffffffffffffffffffffffff1681526020019081526020016000206001016000600381101515612f6057fe5b602091828204019190069054906101000a900460ff1660ff161480612fef57508660ff16600560003373ffffffffffffffffffffffffffffffffffffffff1673ffffffffffffffffffffffffffffffffffffffff1681526020019081526020016000206001016001600381101515612fd457fe5b602091828204019190069054906101000a900460ff1660ff16145b8061306457508660ff16600560003373ffffffffffffffffffffffffffffffffffffffff1673ffffffffffffffffffffffffffffffffffffffff168152602001908152602001600020600101600260038110151561304957fe5b602091828204019190069054906101000a900460ff1660ff16145b15156130fe576040517f08c379a00000000000000000000000000000000000000000000000000000000081526004018080602001828103825260238152602001807f496e64657820646f6573206e6f74206d61746368206f7261636c65207265717581526020017f657374000000000000000000000000000000000000000000000000000000000081525060400191505060405180910390fd5b8686868686604051602001808660ff1660ff167f01000000000000000000000000000000000000000000000000000000000000000281526001018573ffffffffffffffffffffffffffffffffffffffff1673ffffffffffffffffffffffffffffffffffffffff166c010000000000000000000000000281526014018484808284378201915050828152602001955050505050506040516020818303038152906040526040518082805190602001908083835b6020831015156131d557805182526020820191506020810190506020830392506131b0565b6001836020036101000a0380198251168184511680821785525050505050509050019150506040518091039020905060066000826000191660001916815260200190815260200160002060000160149054906101000a900460ff1615156132a4576040517f08c379a000000000000000000000000000000000000000000000000000000000815260040180806020018281038252601f8152602001807f6f7261636c65207265717565737420616c7265616479207265736f6c7665640081525060200191505060405180910390fd5b60066000826000191660001916815260200190815260200160002060010160008360ff1660ff1681526020019081526020016000203390806001815401808255809150509060018203906000526020600020016000909192909190916101000a81548173ffffffffffffffffffffffffffffffffffffffff021916908373ffffffffffffffffffffffffffffffffffffffff160217905550507f43c853095c2752648493c88b4baac4d580d2594ffb00c6f1d4242d844514f7838686868686604051808673ffffffffffffffffffffffffffffffffffffffff1673ffffffffffffffffffffffffffffffffffffffff168152602001806020018481526020018360ff1660ff16815260200182810382528686828181526020019250808284378201915050965050505050505060405180910390a1600360066000836000191660001916815260200190815260200160002060010160008460ff1660ff1681526020019081526020016000208054905010151561352b57600060066000836000191660001916815260200190815260200160002060000160146101000a81548160ff0219169083151502179055507fe23f5229de535c091e3b7bec2665f5d698192d3b31393066e8987b7a05076b6c8686868686604051808673ffffffffffffffffffffffffffffffffffffffff1673ffffffffffffffffffffffffffffffffffffffff168152602001806020018481526020018360ff1660ff16815260200182810382528686828181526020019250808284378201915050965050505050505060405180910390a161352a8686868080601f0160208091040260200160405190810160405280939291908181526020018383808284378201915050505050508585613cf7565b5b50505050505050565b6000600460009054906101000a900473ffffffffffffffffffffffffffffffffffffffff1673ffffffffffffffffffffffffffffffffffffffff1663cd905dff6040518163ffffffff167c0100000000000000000000000000000000000000000000000000000000028152600401602060405180830381600087803b1580156135bc57600080fd5b505af11580156135d0573d6000803e3d6000fd5b505050506040513d60208110156135e657600080fd5b8101908080519060200190929190505050905090565b678ac7230489e8000081565b600080600460009054906101000a900473ffffffffffffffffffffffffffffffffffffffff1673ffffffffffffffffffffffffffffffffffffffff1663cd905dff6040518163ffffffff167c0100000000000000000000000000000000000000000000000000000000028152600401602060405180830381600087803b15801561369157600080fd5b505af11580156136a5573d6000803e3d6000fd5b505050506040513d60208110156136bb57600080fd5b81019080805190602001909291905050501515613766576040517f08c379a00000000000000000000000000000000000000000000000000000000081526004018080602001828103825260258152602001807f436f6e74726163742069732063757272656e746c79206e6f74206f706572617481526020017f696f6e616c00000000000000000000000000000000000000000000000000000081525060400191505060405180910390fd5b85600460009054906101000a900473ffffffffffffffffffffffffffffffffffffffff1673ffffffffffffffffffffffffffffffffffffffff1663010c5c97826040518263ffffffff167c0100000000000000000000000000000000000000000000000000000000028152600401808273ffffffffffffffffffffffffffffffffffffffff1673ffffffffffffffffffffffffffffffffffffffff168152602001915050602060405180830381600087803b15801561382457600080fd5b505af1158015613838573d6000803e3d6000fd5b505050506040513d602081101561384e57600080fd5b810190808051906020019092919050505015156138d3576040517f08c379a00000000000000000000000000000000000000000000000000000000081526004018080602001828103825260168152602001807f4169726c696e65206e6f7420726567697374657265640000000000000000000081525060200191505060405180910390fd5b6138dc33613fc4565b92508287878787604051602001808660ff1660ff167f01000000000000000000000000000000000000000000000000000000000000000281526001018573ffffffffffffffffffffffffffffffffffffffff1673ffffffffffffffffffffffffffffffffffffffff166c010000000000000000000000000281526014018484808284378201915050828152602001955050505050506040516020818303038152906040526040518082805190602001908083835b6020831015156139b55780518252602082019150602081019050602083039250613990565b6001836020036101000a0380198251168184511680821785525050505050509050019150506040518091039020915060408051908101604052803373ffffffffffffffffffffffffffffffffffffffff1681526020016001151581525060066000846000191660001916815260200190815260200160002060008201518160000160006101000a81548173ffffffffffffffffffffffffffffffffffffffff021916908373ffffffffffffffffffffffffffffffffffffffff16021790555060208201518160000160146101000a81548160ff0219169083151502179055509050507f3ed01f2c3fc24c6b329d931e35b03e390d23497d22b3f90e15b600343e93df118388888888604051808660ff1660ff1681526020018573ffffffffffffffffffffffffffffffffffffffff1673ffffffffffffffffffffffffffffffffffffffff1681526020018060200183815260200182810382528585828181526020019250808284378201915050965050505050505060405180910390a150505050505050565b613b43614126565b613b4b614126565b613b5483613fc4565b816000600381101515613b6357fe5b602002019060ff16908160ff1681525050806000600381101515613b8357fe5b6020020151816001600381101515613b9757fe5b602002019060ff16908160ff16815250505b806000600381101515613bb857fe5b602002015160ff16816001600381101515613bcf57fe5b602002015160ff161415613c0b57613be683613fc4565b816001600381101515613bf557fe5b602002019060ff16908160ff1681525050613ba9565b806001600381101515613c1a57fe5b6020020151816002600381101515613c2e57fe5b602002019060ff16908160ff16815250505b806000600381101515613c4f57fe5b602002015160ff16816002600381101515613c6657fe5b602002015160ff161480613ca55750806001600381101515613c8457fe5b602002015160ff16816002600381101515613c9b57fe5b602002015160ff16145b15613cd857613cb383613fc4565b816002600381101515613cc257fe5b602002019060ff16908160ff1681525050613c40565b80915050919050565b60008183811515613cee57fe5b04905092915050565b600460009054906101000a900473ffffffffffffffffffffffffffffffffffffffff1673ffffffffffffffffffffffffffffffffffffffff1663cd905dff6040518163ffffffff167c0100000000000000000000000000000000000000000000000000000000028152600401602060405180830381600087803b158015613d7d57600080fd5b505af1158015613d91573d6000803e3d6000fd5b505050506040513d6020811015613da757600080fd5b81019080805190602001909291905050501515613e52576040517f08c379a00000000000000000000000000000000000000000000000000000000081526004018080602001828103825260258152602001807f436f6e74726163742069732063757272656e746c79206e6f74206f706572617481526020017f696f6e616c00000000000000000000000000000000000000000000000000000081525060400191505060405180910390fd5b601460ff168160ff161415613fbe57600460009054906101000a900473ffffffffffffffffffffffffffffffffffffffff1673ffffffffffffffffffffffffffffffffffffffff1663cd7d882c858585600f600a6040518663ffffffff167c0100000000000000000000000000000000000000000000000000000000028152600401808673ffffffffffffffffffffffffffffffffffffffff1673ffffffffffffffffffffffffffffffffffffffff16815260200180602001858152602001848152602001838152602001828103825286818151815260200191508051906020019080838360005b83811015613f55578082015181840152602081019050613f3a565b50505050905090810190601f168015613f825780820380516001836020036101000a031916815260200191505b509650505050505050600060405180830381600087803b158015613fa557600080fd5b505af1158015613fb9573d6000803e3d6000fd5b505050505b50505050565b6000806000600a91508160ff166004601481819054906101000a900460ff168092919060010191906101000a81548160ff021916908360ff16021790555060ff16430340856040516020018083600019166000191681526020018273ffffffffffffffffffffffffffffffffffffffff1673ffffffffffffffffffffffffffffffffffffffff166c01000000000000000000000000028152601401925050506040516020818303038152906040526040518082805190602001908083835b6020831015156140a75780518252602082019150602081019050602083039250614082565b6001836020036101000a0380198251168184511680821785525050505050509050019150506040518091039020600190048115156140e157fe5b06905060fa600460149054906101000a900460ff1660ff16111561411c576000600460146101000a81548160ff021916908360ff1602179055505b8092505050919050565b606060405190810160405280600390602082028038833980820191505090505090565b826003601f016020900481019282156141d25791602002820160005b838211156141a357835183826101000a81548160ff021916908360ff1602179055509260200192600101602081600001049283019260010302614165565b80156141d05782816101000a81549060ff02191690556001016020816000010492830192600103026141a3565b505b5090506141df91906141e3565b5090565b61421091905b8082111561420c57600081816101000a81549060ff0219169055506001016141e9565b5090565b905600a165627a7a72305820c1df6f49b2df685da4d5c332885fb6de3b68629cd1b3932d4db842310851b5700029",
  "source": "pragma solidity >0.4.25;\n\n// It's important to avoid vulnerabilities due to numeric overflow bugs\n// OpenZeppelin's SafeMath library, when used correctly, protects agains such bugs\n// More info: https://www.nccgroup.trust/us/about-us/newsroom-and-events/blog/2018/november/smart-contract-insecurity-bad-arithmetic/\n\nimport \"../node_modules/openzeppelin-solidity/contracts/math/SafeMath.sol\";\n\n/************************************************** */\n/* FlightSurety Smart Contract                      */\n/************************************************** */\ncontract FlightSuretyApp {\n    using SafeMath for uint256; // Allow SafeMath functions to be called for all uint256 types (similar to \"prototype\" in Javascript)\n    using SafeMath for uint8;\n    \n    /********************************************************************************************/\n    /*                                       DATA VARIABLES                                     */\n    /********************************************************************************************/\n\n    // Flight status codees\n    uint8 private constant STATUS_CODE_UNKNOWN = 0;\n    uint8 private constant STATUS_CODE_ON_TIME = 10;\n    uint8 private constant STATUS_CODE_LATE_AIRLINE = 20;\n    uint8 private constant STATUS_CODE_LATE_WEATHER = 30;\n    uint8 private constant STATUS_CODE_LATE_TECHNICAL = 40;\n    uint8 private constant STATUS_CODE_LATE_OTHER = 50;\n    uint8 private constant MULTIPARTY_CONSENSUS_COUNT = 4;\n    uint256 public constant MAX_INSURANCE_FEE = 1 ether;\n    uint256 public constant MIN_FUNDING_AMOUNT = 10 ether;\n    address private contractOwner;          // Account used to deploy contract\n    uint8 public airlinesRegisteredCount = 1;\n\n\n    struct Flight {\n        bool isRegistered;\n        uint8 statusCode;\n        uint256 updatedTimestamp;        \n        address airline;\n    }\n    mapping(bytes32 => Flight) private flights;\n    struct VotingAirline{\n        address airline;\n        bool  poll;\n    }\n     \n\n   //it contains the list of airline addresses which are voting for another airline\n   //<<airlinebeingregistered> => (<callingairline> => bool)\n    mapping(address => mapping(address => bool)) private airlinePolls;\n   // mapping(address => address[]) private airlinePolls;\n    \n    //no of airlines voted for the airline to be registered\n    mapping(address => uint8) private noOfVoters;\n\n    \n\n    FlightSuretyData _flightSuretyData;\n    /********************************************************************************************/\n    /*                                       FUNCTION MODIFIERS                                 */\n    /********************************************************************************************/\n\n    // Modifiers help avoid duplication of code. They are typically used to validate something\n    // before a function is allowed to be executed.\n\n    /**\n    * @dev Modifier that requires the \"operational\" boolean variable to be \"true\"\n    *      This is used on all state changing functions to pause the contract in \n    *      the event there is an issue that needs to be fixed\n    */\n    modifier requireIsOperational() \n    {\n         //  call data contract's status\n        require(_flightSuretyData.isOperational(), \"Contract is currently not operational\");  \n        _;  // All modifiers require an \"_\" which indicates where the function body will be added\n    }\n\n    /**\n    * @dev Modifier that requires the \"ContractOwner\" account to be the function caller\n    */\n    modifier requireContractOwner()\n    {\n        require(msg.sender == contractOwner, \"Caller is not contract owner\");\n        _;\n    }\n\n    modifier requireIsCallerAirlineRegistered()\n    {\n\n        require(_flightSuretyData.isAirlineRegistered(msg.sender), \"Airline not registered\");\n        _;\n    }\n\n    modifier requireIsAirlineNotRegistered(address airline)\n    {\n        require(!_flightSuretyData.isAirlineRegistered(airline), \"Airline already registered\");\n        _;\n\n    }\n     modifier requireIsAirlineRegistered(address airline)\n    {\n        require(_flightSuretyData.isAirlineRegistered(airline), \"Airline not registered\");\n        _;\n\n    }\n    modifier requireDidCallerAirlineDepositFunds()\n    {\n        bool funded = false;\n        uint funds = _flightSuretyData.getAirlineFunds(msg.sender);\n        if(funds >= MIN_FUNDING_AMOUNT)\n            funded = true;\n       \n        require(funded == true, \"Airline can not participate in contract until it submits 10 ether\");\n        _;\n    }\n    \n    modifier requireIsTimestampValid(uint timestamp)\n    {\n       uint currentTime = block.timestamp;\n       require(timestamp >= currentTime,\"Timetstamp is not valid\");\n        _;\n    }\n     \n\n    modifier requireDidNotpurchaseInsurance(address airline,string flight,uint timestamp)\n    {\n        require(_flightSuretyData.isnotinsured(airline,flight,timestamp,msg.sender),\"You are already insured\");\n        _;\n    }\n    \n\n    /********************************************************************************************/\n    /*                                       CONSTRUCTOR                                        */\n    /********************************************************************************************/\n\n    /**\n    * @dev Contract constructor\n    *\n    */\n    constructor\n                                (\n                                     address dataContract\n                                ) \n                                public \n    {\n        contractOwner = msg.sender;\n        _flightSuretyData = FlightSuretyData(dataContract);     \n        \n            \n    }\n\n    /********************************************************************************************/\n    /*                                       UTILITY FUNCTIONS                                  */\n    /********************************************************************************************/\n\n    function isOperational() \n                            public \n                            view \n                            returns(bool) \n    {\n        return _flightSuretyData.isOperational();  // Modify to call data contract's status\n    }\n\n    /********************************************************************************************/\n    /*                                     SMART CONTRACT FUNCTIONS                             */\n    /********************************************************************************************/\n\n  \n   /**\n    * @dev Add an airline to the registration queue. If there are more than 4 registered airlines\n    *      then there needs to be a consensus of 50% of the registered airlines\n    *\n    */   \n    function registerAirline\n                            (   \n                                address airline\n                            )\n                            external\n                            requireIsOperational\n                            requireIsCallerAirlineRegistered\n                            requireDidCallerAirlineDepositFunds\n                            requireIsAirlineNotRegistered(airline)\n                            returns(bool success, uint256 votes)\n    {\n        require(airline != address(0), \"'airline' must be a valid address.\");\n        success = false;\n        votes = 0;\n        if(airlinesRegisteredCount < MULTIPARTY_CONSENSUS_COUNT) {\n            success = _flightSuretyData.registerAirline(airline);\n            if(success) {\n                airlinesRegisteredCount ++;\n            }\n        }\n        else{           \n                  mapping(address=>bool) supportingAirlines = airlinePolls[airline];\n                  //check if the airline is not calling 2nd time\n                    if(!supportingAirlines[msg.sender])\n                     {\n                        airlinePolls[airline][msg.sender] = true; //add the sender to the list of voters for the airline\n                        noOfVoters[airline] ++;\n                        if(noOfVoters[airline] >= airlinesRegisteredCount.div(2))\n                        {\n                            success = _flightSuretyData.registerAirline(airline);\n                            votes = noOfVoters[airline];\n                             if(success) {\n                                airlinesRegisteredCount ++;\n                                 }\n                        }\n                     }         \n                            \n            }\n         \n        return (success, votes);\n    }\n     /**\n    * @dev add funds for airline.\n    *\n    */\n    function AirlineFunding\n                            (\n                            )\n                            public\n                            payable\n                            requireIsOperational\n                            requireIsAirlineRegistered(msg.sender)\n    {\n      \n        // Transfer Fund to Data Contract\n        address(_flightSuretyData).transfer(msg.value);\n        _flightSuretyData.fundAirline(msg.sender,msg.value);\n    }\n\n\n   /**\n    * @dev Register a future flight for insuring.Timestamp is the departure time of a flight.\n    *       Purchase Flight insurance before flight departure\n    */  \n    function registerFlight\n                                (\n                                    address airline,\n                                    string flight,\n                                    uint timestamp\n                                )\n                                public  \n                                payable              \n                                requireIsOperational\n                                requireIsAirlineRegistered(airline)\n                                requireIsTimestampValid(timestamp)\n                                requireDidNotpurchaseInsurance(airline,flight,timestamp)\n                                \n    {\n       require(msg.value <= MAX_INSURANCE_FEE, \"Insurance fee must be less than 1 ether\");\n       //check if the passenger already has insurance\n\n        address(_flightSuretyData).transfer(msg.value);\n \n        _flightSuretyData.buy(airline, flight, timestamp,msg.sender, msg.value);\n        \n\n    }\n    //test\n    //uint balance = 150;\n    \n   /**\n    * @dev Called after oracle has updated flight status\n    *\n    */  \n    function processFlightStatus\n                                (\n                                    address airline,\n                                    string memory flight,\n                                    uint256 timestamp,\n                                    uint8 statusCode\n                                )\n                                internal\n                                requireIsOperational\n                               \n    {\n       // address[] memory insurees = _flightSuretyData.getInsurees(airline, flight, timestamp);        \n      \n        \n           if(statusCode == STATUS_CODE_LATE_AIRLINE) {\n           \n             _flightSuretyData.creditInsurees(airline, flight, timestamp,15,10);\n         } \n    }\n   \n  /*  function getBalancetest() public view returns(uint)\n   {\n    return balance;\n   } */\n    // Generate a request for oracles to fetch flight information\n    function fetchFlightStatus\n                        (\n                            address airline,\n                            string flight,\n                            uint256 timestamp                            \n                        )\n                        external\n                        requireIsOperational\n                        requireIsAirlineRegistered(airline)\n\n    {\n        uint8 index = getRandomIndex(msg.sender);\n\n        // Generate a unique key for storing the request\n        bytes32 key = keccak256(abi.encodePacked(index, airline, flight, timestamp));\n        oracleResponses[key] = ResponseInfo({\n                                                requester: msg.sender,\n                                                isOpen: true\n                                            });\n\n        emit OracleRequest(index, airline, flight, timestamp);\n    } \n\n\n// region ORACLE MANAGEMENT\n\n    // Incremented to add pseudo-randomness at various points\n    uint8 private nonce = 0;    \n\n    // Fee to be paid when registering oracle\n    uint256 public constant REGISTRATION_FEE = 1 ether;\n\n    // Number of oracles that must respond for valid status\n    uint256 private constant MIN_RESPONSES = 3;\n\n\n    struct Oracle {\n        bool isRegistered;\n        uint8[3] indexes;        \n    }\n\n    // Track all registered oracles\n    mapping(address => Oracle) private oracles;\n\n    // Model for responses from oracles\n    struct ResponseInfo {\n        address requester;                              // Account that requested status\n        bool isOpen;                                    // If open, oracle responses are accepted\n        mapping(uint8 => address[]) responses;          // Mapping key is the status code reported\n                                                        // This lets us group responses and identify\n                                                        // the response that majority of the oracles\n    }\n\n    // Track all oracle responses\n    // Key = hash(index, flight, timestamp)\n    mapping(bytes32 => ResponseInfo) private oracleResponses;\n\n    // Event fired each time an oracle submits a response\n    event FlightStatusInfo(address airline, string flight, uint256 timestamp, uint8 status);\n\n    event OracleReport(address airline, string flight, uint256 timestamp, uint8 status);\n\n    // Event fired when flight status request is submitted\n    // Oracles track this and if they have a matching index\n    // they fetch data and submit a response\n    event OracleRequest(uint8 index, address airline, string flight, uint256 timestamp);\n\n\n    // Register an oracle with the contract\n    function registerOracle\n                            (\n                            )\n                            external\n                            payable\n                            requireIsOperational\n    {\n        // Require registration fee\n        require(msg.value >= REGISTRATION_FEE, \"Registration fee is required\");\n\n        uint8[3] memory indexes = generateIndexes(msg.sender);\n\n        oracles[msg.sender] = Oracle({\n                                        isRegistered: true,\n                                        indexes: indexes\n                                    });\n    }\n\n    function getMyIndexes\n                            (\n                            )\n                            view\n                            external\n                            requireIsOperational\n                            returns(uint8[3])\n    {\n        require(oracles[msg.sender].isRegistered, \"Not registered as an oracle\");\n\n        return oracles[msg.sender].indexes;\n    }\n\n\n\n\n    // Called by oracle when a response is available to an outstanding request\n    // For the response to be accepted, there must be a pending request that is open\n    // and matches one of the three Indexes randomly assigned to the oracle at the\n    // time of registration (i.e. uninvited oracles are not welcome)\n    function submitOracleResponse\n                        (\n                            uint8 index,\n                            address airline,\n                            string flight,\n                            uint256 timestamp,\n                            uint8 statusCode\n                        )\n                        external\n                        requireIsOperational\n                       \n    {\n        require((oracles[msg.sender].indexes[0] == index) || (oracles[msg.sender].indexes[1] == index) || (oracles[msg.sender].indexes[2] == index), \"Index does not match oracle request\");\n\n\n        bytes32 key = keccak256(abi.encodePacked(index, airline, flight, timestamp)); \n        require(oracleResponses[key].isOpen, \"oracle request already resolved\");\n\n        oracleResponses[key].responses[statusCode].push(msg.sender);\n\n        // Information isn't considered verified until at least MIN_RESPONSES\n        // oracles respond with the *** same *** information\n        emit OracleReport(airline, flight, timestamp, statusCode);           \n\n        if (oracleResponses[key].responses[statusCode].length >= MIN_RESPONSES) {\n             \n                oracleResponses[key].isOpen = false;\n               \n            emit FlightStatusInfo(airline, flight, timestamp, statusCode);\n\n            // Handle flight status as appropriate\n            processFlightStatus(airline, flight, timestamp, statusCode);\n        }\n        \n    }\n\n\n    function getFlightKey\n                        (\n                            address airline,\n                            string flight,\n                            uint256 timestamp\n                        )\n                        pure\n                        internal\n                        returns(bytes32) \n    {\n        return keccak256(abi.encodePacked(airline, flight, timestamp));\n    }\n\n    // Returns array of three non-duplicating integers from 0-9\n    function generateIndexes\n                            (                       \n                                address account         \n                            )\n                            internal\n                            returns(uint8[3])\n    {\n        uint8[3] memory indexes;\n        indexes[0] = getRandomIndex(account);\n        \n        indexes[1] = indexes[0];\n        while(indexes[1] == indexes[0]) {\n            indexes[1] = getRandomIndex(account);\n        }\n\n        indexes[2] = indexes[1];\n        while((indexes[2] == indexes[0]) || (indexes[2] == indexes[1])) {\n            indexes[2] = getRandomIndex(account);\n        }\n\n        return indexes;\n    }\n\n    // Returns array of three non-duplicating integers from 0-9\n    function getRandomIndex\n                            (\n                                address account\n                            )\n                            internal\n                            returns (uint8)\n    {\n        uint8 maxValue = 10;\n\n        // Pseudo random number...the incrementing nonce adds variation\n        uint8 random = uint8(uint256(keccak256(abi.encodePacked(blockhash(block.number - nonce++), account))) % maxValue);\n\n        if (nonce > 250) {\n            nonce = 0;  // Can only fetch blockhashes for last 256 blocks so we adapt\n        }\n\n        return random;\n    }\n\n    function getExistingAirlines\n                            (\n\n                            )\n                             public\n                             view\n                             requireIsOperational\n                            returns(address[])\n        {\n         return _flightSuretyData.getAirlines();\n        }\n\n        function getAirlineFunds\n                            (\n                            address airline\n                            )\n                             public\n                             view\n                             requireIsOperational\n                            returns(uint funds)\n        {\n         return _flightSuretyData.getAirlineFunds(airline);\n        }\n\n        function getBalance\n                            (\n                            \n                            )\n                            public\n                            view\n                            requireIsOperational\n                            returns(uint funds)\n            {\n                return _flightSuretyData.getPassengerFunds(msg.sender);\n            }\n\n            function withdrawFunds\n            (\n                uint amount\n            )\n            public   \n            requireIsOperational          \n            returns(uint funds)\n            {\n               uint balance = _flightSuretyData.getPassengerFunds(msg.sender);\n                require(amount <= balance, \"Requested amount exceeds balance\");\n\n                return _flightSuretyData.withdrawPassengerFunds(amount,msg.sender);\n            }\n\n\n           /*  function getInsured(address airline, string flight, uint ts) public view returns(address[] insurees)\n            {\n                return _flightSuretyData.getInsurees(airline,flight,ts);\n            }\n            function getInsuredamount(address airline, string flight, uint ts) public view returns(uint amount)\n            {\n                return _flightSuretyData.getInsureesAmount(airline,flight,ts);\n            } */\n\n// endregion\n\n}  \n\ncontract FlightSuretyData {\n    //address [] public insurees;\n    function isOperational() public view returns(bool);\n    function isAirlineRegistered(address airline) public view returns (bool);   \n   // function isAirlineFunded(address airline) public view returns (bool);\n    function registerAirline(address airline) external returns (bool success);\n    function fundAirline(address airline,uint amount) external;    \n    function buy(address airline, string flight, uint256 timestamp,address passenger, uint256 amount) external;\n    function creditInsurees(address airline, string flight, uint256 timestamp,uint factor_numerator,uint factor_denominator) external;\n    function getAirlines() external view returns(address[]);\n    function getAirlineFunds(address airline) external view  returns(uint funds);     \n    function isnotinsured(address airline,string flight,uint timestamp,address passenger) external view returns(bool); \n    function getPassengerFunds(address passenger) external view returns(uint);  \n    function withdrawPassengerFunds(uint amount,address passenger) external returns(uint);    \n    // function getInsurees(address airline,string flight,uint ts)  external view returns(address[]);\n    /* function isAmountNotPaid(address airline,string flight,uint ts,address passenger) external view returns(bool);\n    function getInsuredAmount(address airline,string flight,uint ts,address passenger) external view returns(uint); \n    function pay(address airline,string flight,uint ts,address passenger,uint payout) external; */                                                        \n                                                  \n    /* function getInsurees(address airline,string flight,uint ts) external view returns(address[]);     \n    function getInsureesAmount(address airline,string flight,uint ts) external view returns(uint);  */                     \n                            \n}",
  "sourcePath": "/Users/chitambars/udacity/github/udacity-flight-surety/contracts/FlightSuretyApp.sol",
  "compiler": {
    "name": "solc",
    "version": "0.4.26+commit.4563c3fc.Emscripten.clang"
  },
  "schemaVersion": "3.3.3",
  "updatedAt": "2021-01-19T00:39:18.941Z",
  "devdoc": {
    "methods": {
      "AirlineFunding()": {
        "details": "add funds for airline.    "
      },
      "registerAirline(address)": {
        "details": "Add an airline to the registration queue. If there are more than 4 registered airlines     then there needs to be a consensus of 50% of the registered airlines    "
      },
      "registerFlight(address,string,uint256)": {
        "details": "Register a future flight for insuring.Timestamp is the departure time of a flight.      Purchase Flight insurance before flight departure"
      }
    }
  },
  "userdoc": {
    "methods": {
      "isOperational()": {
        "notice": "*****************************************************************************************"
      }
    }
  }
}