{
  "contractName": "FlightSuretyData",
  "abi": [
    {
      "constant": true,
      "inputs": [],
      "name": "total",
      "outputs": [
        {
          "name": "",
          "type": "uint256"
        }
      ],
      "payable": false,
      "stateMutability": "view",
      "type": "function"
    },
    {
      "inputs": [
        {
          "name": "firstAirline",
          "type": "address"
        }
      ],
      "payable": false,
      "stateMutability": "nonpayable",
      "type": "constructor"
    },
    {
      "payable": true,
      "stateMutability": "payable",
      "type": "fallback"
    },
    {
      "constant": true,
      "inputs": [
        {
          "name": "airline",
          "type": "address"
        },
        {
          "name": "flight",
          "type": "string"
        },
        {
          "name": "timestamp",
          "type": "uint256"
        },
        {
          "name": "passenger",
          "type": "address"
        }
      ],
      "name": "isnotinsured",
      "outputs": [
        {
          "name": "",
          "type": "bool"
        }
      ],
      "payable": false,
      "stateMutability": "view",
      "type": "function"
    },
    {
      "constant": true,
      "inputs": [
        {
          "name": "airline",
          "type": "address"
        }
      ],
      "name": "isAirlineRegistered",
      "outputs": [
        {
          "name": "",
          "type": "bool"
        }
      ],
      "payable": false,
      "stateMutability": "view",
      "type": "function"
    },
    {
      "constant": true,
      "inputs": [],
      "name": "isOperational",
      "outputs": [
        {
          "name": "",
          "type": "bool"
        }
      ],
      "payable": false,
      "stateMutability": "view",
      "type": "function"
    },
    {
      "constant": false,
      "inputs": [
        {
          "name": "mode",
          "type": "bool"
        }
      ],
      "name": "setOperatingStatus",
      "outputs": [],
      "payable": false,
      "stateMutability": "nonpayable",
      "type": "function"
    },
    {
      "constant": false,
      "inputs": [
        {
          "name": "contractAddress",
          "type": "address"
        }
      ],
      "name": "authorizeCaller",
      "outputs": [],
      "payable": false,
      "stateMutability": "nonpayable",
      "type": "function"
    },
    {
      "constant": false,
      "inputs": [
        {
          "name": "contractAddress",
          "type": "address"
        }
      ],
      "name": "deauthorizeCaller",
      "outputs": [],
      "payable": false,
      "stateMutability": "nonpayable",
      "type": "function"
    },
    {
      "constant": false,
      "inputs": [
        {
          "name": "airline",
          "type": "address"
        }
      ],
      "name": "registerAirline",
      "outputs": [
        {
          "name": "success",
          "type": "bool"
        }
      ],
      "payable": false,
      "stateMutability": "nonpayable",
      "type": "function"
    },
    {
      "constant": true,
      "inputs": [],
      "name": "getAirlines",
      "outputs": [
        {
          "name": "",
          "type": "address[]"
        }
      ],
      "payable": false,
      "stateMutability": "view",
      "type": "function"
    },
    {
      "constant": true,
      "inputs": [
        {
          "name": "passenger",
          "type": "address"
        }
      ],
      "name": "getPassengerFunds",
      "outputs": [
        {
          "name": "",
          "type": "uint256"
        }
      ],
      "payable": false,
      "stateMutability": "view",
      "type": "function"
    },
    {
      "constant": false,
      "inputs": [
        {
          "name": "amount",
          "type": "uint256"
        },
        {
          "name": "passenger",
          "type": "address"
        }
      ],
      "name": "withdrawPassengerFunds",
      "outputs": [
        {
          "name": "",
          "type": "uint256"
        }
      ],
      "payable": false,
      "stateMutability": "nonpayable",
      "type": "function"
    },
    {
      "constant": false,
      "inputs": [
        {
          "name": "airline",
          "type": "address"
        },
        {
          "name": "amount",
          "type": "uint256"
        }
      ],
      "name": "fundAirline",
      "outputs": [],
      "payable": false,
      "stateMutability": "nonpayable",
      "type": "function"
    },
    {
      "constant": true,
      "inputs": [
        {
          "name": "airline",
          "type": "address"
        }
      ],
      "name": "getAirlineFunds",
      "outputs": [
        {
          "name": "funds",
          "type": "uint256"
        }
      ],
      "payable": false,
      "stateMutability": "view",
      "type": "function"
    },
    {
      "constant": false,
      "inputs": [
        {
          "name": "airline",
          "type": "address"
        },
        {
          "name": "flight",
          "type": "string"
        },
        {
          "name": "_timestamp",
          "type": "uint256"
        },
        {
          "name": "passenger",
          "type": "address"
        },
        {
          "name": "amount",
          "type": "uint256"
        }
      ],
      "name": "buy",
      "outputs": [],
      "payable": false,
      "stateMutability": "nonpayable",
      "type": "function"
    },
    {
      "constant": false,
      "inputs": [
        {
          "name": "airline",
          "type": "address"
        },
        {
          "name": "flight",
          "type": "string"
        },
        {
          "name": "timestamp",
          "type": "uint256"
        },
        {
          "name": "factor_numerator",
          "type": "uint256"
        },
        {
          "name": "factor_denominator",
          "type": "uint256"
        }
      ],
      "name": "creditInsurees",
      "outputs": [],
      "payable": false,
      "stateMutability": "nonpayable",
      "type": "function"
    },
    {
      "constant": true,
      "inputs": [
        {
          "name": "passenger",
          "type": "address"
        }
      ],
      "name": "getAccountBalance",
      "outputs": [
        {
          "name": "",
          "type": "uint256"
        }
      ],
      "payable": false,
      "stateMutability": "view",
      "type": "function"
    },
    {
      "constant": false,
      "inputs": [
        {
          "name": "airline",
          "type": "address"
        },
        {
          "name": "flight",
          "type": "string"
        },
        {
          "name": "ts",
          "type": "uint256"
        },
        {
          "name": "passenger",
          "type": "address"
        },
        {
          "name": "payout",
          "type": "uint256"
        }
      ],
      "name": "pay",
      "outputs": [],
      "payable": false,
      "stateMutability": "nonpayable",
      "type": "function"
    },
    {
      "constant": false,
      "inputs": [],
      "name": "fund",
      "outputs": [],
      "payable": true,
      "stateMutability": "payable",
      "type": "function"
    }
  ],
  "bytecode": "0x60806040526001600060146101000a81548160ff0219169083151502179055506000600a5534801561003057600080fd5b5060405160208061256883398101806040528101908080519060200190929190505050336000806101000a81548173ffffffffffffffffffffffffffffffffffffffff021916908373ffffffffffffffffffffffffffffffffffffffff16021790555060018060008373ffffffffffffffffffffffffffffffffffffffff1673ffffffffffffffffffffffffffffffffffffffff16815260200190815260200160002060006101000a81548160ff02191690831515021790555060048190806001815401808255809150509060018203906000526020600020016000909192909190916101000a81548173ffffffffffffffffffffffffffffffffffffffff021916908373ffffffffffffffffffffffffffffffffffffffff1602179055505050612408806101606000396000f3006080604052600436106100fc576000357c0100000000000000000000000000000000000000000000000000000000900463ffffffff168063010c5c97146101065780630792cca6146101615780630d5dc054146101c2578063110466ed1461022e5780632c388d5d1461025d5780632ddbd13a146102a057806345d29b92146102cb5780636873c21d1461032257806389d194e21461036557806393423e9c146103f45780639e4a8f8f1461044b578063b11dca78146104a2578063b60d428814610531578063bdfd98771461053b578063cd7d882c14610596578063cd905dff1461060f578063e0cf1b901461063e578063f1a81e72146106db575b610104610728565b005b34801561011257600080fd5b50610147600480360381019080803573ffffffffffffffffffffffffffffffffffffffff16906020019092919050505061072a565b604051808215151515815260200191505060405180910390f35b34801561016d57600080fd5b506101ac60048036038101908080359060200190929190803573ffffffffffffffffffffffffffffffffffffffff169060200190929190505050610780565b6040518082815260200191505060405180910390f35b3480156101ce57600080fd5b506101d76109f6565b6040518080602001828103825283818151815260200191508051906020019060200280838360005b8381101561021a5780820151818401526020810190506101ff565b505050509050019250505060405180910390f35b34801561023a57600080fd5b5061025b600480360381019080803515159060200190929190505050610a84565b005b34801561026957600080fd5b5061029e600480360381019080803573ffffffffffffffffffffffffffffffffffffffff169060200190929190505050610b65565b005b3480156102ac57600080fd5b506102b5610c71565b6040518082815260200191505060405180910390f35b3480156102d757600080fd5b5061030c600480360381019080803573ffffffffffffffffffffffffffffffffffffffff169060200190929190505050610c77565b6040518082815260200191505060405180910390f35b34801561032e57600080fd5b50610363600480360381019080803573ffffffffffffffffffffffffffffffffffffffff169060200190929190505050610cc0565b005b34801561037157600080fd5b506103f2600480360381019080803573ffffffffffffffffffffffffffffffffffffffff16906020019092919080359060200190820180359060200191909192939192939080359060200190929190803573ffffffffffffffffffffffffffffffffffffffff16906020019092919080359060200190929190505050610dca565b005b34801561040057600080fd5b50610435600480360381019080803573ffffffffffffffffffffffffffffffffffffffff16906020019092919050505061101e565b6040518082815260200191505060405180910390f35b34801561045757600080fd5b5061048c600480360381019080803573ffffffffffffffffffffffffffffffffffffffff1690602001909291905050506111c7565b6040518082815260200191505060405180910390f35b3480156104ae57600080fd5b5061052f600480360381019080803573ffffffffffffffffffffffffffffffffffffffff16906020019092919080359060200190820180359060200191909192939192939080359060200190929190803573ffffffffffffffffffffffffffffffffffffffff1690602001909291908035906020019092919050505061143a565b005b610539610728565b005b34801561054757600080fd5b5061057c600480360381019080803573ffffffffffffffffffffffffffffffffffffffff1690602001909291905050506117e8565b604051808215151515815260200191505060405180910390f35b3480156105a257600080fd5b5061060d600480360381019080803573ffffffffffffffffffffffffffffffffffffffff169060200190929190803590602001908201803590602001919091929391929390803590602001909291908035906020019092919080359060200190929190505050611b61565b005b34801561061b57600080fd5b50610624611f27565b604051808215151515815260200191505060405180910390f35b34801561064a57600080fd5b506106c1600480360381019080803573ffffffffffffffffffffffffffffffffffffffff16906020019092919080359060200190820180359060200191909192939192939080359060200190929190803573ffffffffffffffffffffffffffffffffffffffff169060200190929190505050611f3d565b604051808215151515815260200191505060405180910390f35b3480156106e757600080fd5b50610726600480360381019080803573ffffffffffffffffffffffffffffffffffffffff16906020019092919080359060200190929190505050611fed565b005b565b6000600160008373ffffffffffffffffffffffffffffffffffffffff1673ffffffffffffffffffffffffffffffffffffffff16815260200190815260200160002060009054906101000a900460ff169050919050565b60008060149054906101000a900460ff16151561082b576040517f08c379a00000000000000000000000000000000000000000000000000000000081526004018080602001828103825260258152602001807f436f6e74726163742069732063757272656e746c79206e6f74206f706572617481526020017f696f6e616c00000000000000000000000000000000000000000000000000000081525060400191505060405180910390fd5b6001600360003373ffffffffffffffffffffffffffffffffffffffff1673ffffffffffffffffffffffffffffffffffffffff168152602001908152602001600020541415156108e2576040517f08c379a000000000000000000000000000000000000000000000000000000000815260040180806020018281038252601c8152602001807f43616c6c6572206973206e6f7420636f6e7472616374206f776e65720000000081525060200191505060405180910390fd5b82600560008473ffffffffffffffffffffffffffffffffffffffff1673ffffffffffffffffffffffffffffffffffffffff1681526020019081526020016000205403600560008473ffffffffffffffffffffffffffffffffffffffff1673ffffffffffffffffffffffffffffffffffffffff168152602001908152602001600020819055508173ffffffffffffffffffffffffffffffffffffffff166108fc849081150290604051600060405180830381858888f193505050501580156109ad573d6000803e3d6000fd5b50600560008373ffffffffffffffffffffffffffffffffffffffff1673ffffffffffffffffffffffffffffffffffffffff16815260200190815260200160002054905092915050565b60606004805480602002602001604051908101604052809291908181526020018280548015610a7a57602002820191906000526020600020905b8160009054906101000a900473ffffffffffffffffffffffffffffffffffffffff1673ffffffffffffffffffffffffffffffffffffffff1681526020019060010190808311610a30575b5050505050905090565b6000809054906101000a900473ffffffffffffffffffffffffffffffffffffffff1673ffffffffffffffffffffffffffffffffffffffff163373ffffffffffffffffffffffffffffffffffffffff16141515610b48576040517f08c379a000000000000000000000000000000000000000000000000000000000815260040180806020018281038252601c8152602001807f43616c6c6572206973206e6f7420636f6e7472616374206f776e65720000000081525060200191505060405180910390fd5b80600060146101000a81548160ff02191690831515021790555050565b6000809054906101000a900473ffffffffffffffffffffffffffffffffffffffff1673ffffffffffffffffffffffffffffffffffffffff163373ffffffffffffffffffffffffffffffffffffffff16141515610c29576040517f08c379a000000000000000000000000000000000000000000000000000000000815260040180806020018281038252601c8152602001807f43616c6c6572206973206e6f7420636f6e7472616374206f776e65720000000081525060200191505060405180910390fd5b6001600360008373ffffffffffffffffffffffffffffffffffffffff1673ffffffffffffffffffffffffffffffffffffffff1681526020019081526020016000208190555050565b600a5481565b6000600560008373ffffffffffffffffffffffffffffffffffffffff1673ffffffffffffffffffffffffffffffffffffffff168152602001908152602001600020549050919050565b6000809054906101000a900473ffffffffffffffffffffffffffffffffffffffff1673ffffffffffffffffffffffffffffffffffffffff163373ffffffffffffffffffffffffffffffffffffffff16141515610d84576040517f08c379a000000000000000000000000000000000000000000000000000000000815260040180806020018281038252601c8152602001807f43616c6c6572206973206e6f7420636f6e7472616374206f776e65720000000081525060200191505060405180910390fd5b600360008273ffffffffffffffffffffffffffffffffffffffff1673ffffffffffffffffffffffffffffffffffffffff1681526020019081526020016000206000905550565b60008060149054906101000a900460ff161515610e75576040517f08c379a00000000000000000000000000000000000000000000000000000000081526004018080602001828103825260258152602001807f436f6e74726163742069732063757272656e746c79206e6f74206f706572617481526020017f696f6e616c00000000000000000000000000000000000000000000000000000081525060400191505060405180910390fd5b6001600360003373ffffffffffffffffffffffffffffffffffffffff1673ffffffffffffffffffffffffffffffffffffffff16815260200190815260200160002054141515610f2c576040517f08c379a000000000000000000000000000000000000000000000000000000000815260040180806020018281038252601c8152602001807f43616c6c6572206973206e6f7420636f6e7472616374206f776e65720000000081525060200191505060405180910390fd5b610f698787878080601f01602080910402602001604051908101604052809392919081815260200183838082843782019150505050505086612269565b90508160096000836000191660001916815260200190815260200160002060008573ffffffffffffffffffffffffffffffffffffffff1673ffffffffffffffffffffffffffffffffffffffff1681526020019081526020016000208190555081600560008573ffffffffffffffffffffffffffffffffffffffff1673ffffffffffffffffffffffffffffffffffffffff1681526020019081526020016000206000828254019250508190555050505050505050565b60008060149054906101000a900460ff1615156110c9576040517f08c379a00000000000000000000000000000000000000000000000000000000081526004018080602001828103825260258152602001807f436f6e74726163742069732063757272656e746c79206e6f74206f706572617481526020017f696f6e616c00000000000000000000000000000000000000000000000000000081525060400191505060405180910390fd5b6001600360003373ffffffffffffffffffffffffffffffffffffffff1673ffffffffffffffffffffffffffffffffffffffff16815260200190815260200160002054141515611180576040517f08c379a000000000000000000000000000000000000000000000000000000000815260040180806020018281038252601c8152602001807f43616c6c6572206973206e6f7420636f6e7472616374206f776e65720000000081525060200191505060405180910390fd5b600560008373ffffffffffffffffffffffffffffffffffffffff1673ffffffffffffffffffffffffffffffffffffffff168152602001908152602001600020549050919050565b60008060149054906101000a900460ff161515611272576040517f08c379a00000000000000000000000000000000000000000000000000000000081526004018080602001828103825260258152602001807f436f6e74726163742069732063757272656e746c79206e6f74206f706572617481526020017f696f6e616c00000000000000000000000000000000000000000000000000000081525060400191505060405180910390fd5b6001600360003373ffffffffffffffffffffffffffffffffffffffff1673ffffffffffffffffffffffffffffffffffffffff16815260200190815260200160002054141515611329576040517f08c379a000000000000000000000000000000000000000000000000000000000815260040180806020018281038252601c8152602001807f43616c6c6572206973206e6f7420636f6e7472616374206f776e65720000000081525060200191505060405180910390fd5b8160011515600160008373ffffffffffffffffffffffffffffffffffffffff1673ffffffffffffffffffffffffffffffffffffffff16815260200190815260200160002060009054906101000a900460ff1615151415156113f2576040517f08c379a00000000000000000000000000000000000000000000000000000000081526004018080602001828103825260158152602001807f43616c6c6572206e6f742072656769737465726564000000000000000000000081525060200191505060405180910390fd5b600260008473ffffffffffffffffffffffffffffffffffffffff1673ffffffffffffffffffffffffffffffffffffffff16815260200190815260200160002054915050919050565b60008060149054906101000a900460ff1615156114e5576040517f08c379a00000000000000000000000000000000000000000000000000000000081526004018080602001828103825260258152602001807f436f6e74726163742069732063757272656e746c79206e6f74206f706572617481526020017f696f6e616c00000000000000000000000000000000000000000000000000000081525060400191505060405180910390fd5b6001600360003373ffffffffffffffffffffffffffffffffffffffff1673ffffffffffffffffffffffffffffffffffffffff1681526020019081526020016000205414151561159c576040517f08c379a000000000000000000000000000000000000000000000000000000000815260040180806020018281038252601c8152602001807f43616c6c6572206973206e6f7420636f6e7472616374206f776e65720000000081525060200191505060405180910390fd5b8660011515600160008373ffffffffffffffffffffffffffffffffffffffff1673ffffffffffffffffffffffffffffffffffffffff16815260200190815260200160002060009054906101000a900460ff161515141515611665576040517f08c379a00000000000000000000000000000000000000000000000000000000081526004018080602001828103825260158152602001807f43616c6c6572206e6f742072656769737465726564000000000000000000000081525060200191505060405180910390fd5b6116a28888888080601f01602080910402602001604051908101604052809392919081815260200183838082843782019150505050505087612269565b91506006600083600019166000191681526020019081526020016000208490806001815401808255809150509060018203906000526020600020016000909192909190916101000a81548173ffffffffffffffffffffffffffffffffffffffff021916908373ffffffffffffffffffffffffffffffffffffffff1602179055505082600760008673ffffffffffffffffffffffffffffffffffffffff1673ffffffffffffffffffffffffffffffffffffffff1681526020019081526020016000206000846000191660001916815260200190815260200160002081905550600060096000846000191660001916815260200190815260200160002060008673ffffffffffffffffffffffffffffffffffffffff1673ffffffffffffffffffffffffffffffffffffffff168152602001908152602001600020819055505050505050505050565b60008060149054906101000a900460ff161515611893576040517f08c379a00000000000000000000000000000000000000000000000000000000081526004018080602001828103825260258152602001807f436f6e74726163742069732063757272656e746c79206e6f74206f706572617481526020017f696f6e616c00000000000000000000000000000000000000000000000000000081525060400191505060405180910390fd5b6001600360003373ffffffffffffffffffffffffffffffffffffffff1673ffffffffffffffffffffffffffffffffffffffff1681526020019081526020016000205414151561194a576040517f08c379a000000000000000000000000000000000000000000000000000000000815260040180806020018281038252601c8152602001807f43616c6c6572206973206e6f7420636f6e7472616374206f776e65720000000081525060200191505060405180910390fd5b8160001515600160008373ffffffffffffffffffffffffffffffffffffffff1673ffffffffffffffffffffffffffffffffffffffff16815260200190815260200160002060009054906101000a900460ff161515141515611a13576040517f08c379a000000000000000000000000000000000000000000000000000000000815260040180806020018281038252601a8152602001807f4169726c696e6520616c7265616479207265676973746572656400000000000081525060200191505060405180910390fd5b600073ffffffffffffffffffffffffffffffffffffffff168373ffffffffffffffffffffffffffffffffffffffff1614151515611a4f57600080fd5b60018060008573ffffffffffffffffffffffffffffffffffffffff1673ffffffffffffffffffffffffffffffffffffffff16815260200190815260200160002060006101000a81548160ff02191690831515021790555060048390806001815401808255809150509060018203906000526020600020016000909192909190916101000a81548173ffffffffffffffffffffffffffffffffffffffff021916908373ffffffffffffffffffffffffffffffffffffffff16021790555050600160008473ffffffffffffffffffffffffffffffffffffffff1673ffffffffffffffffffffffffffffffffffffffff16815260200190815260200160002060009054906101000a900460ff16915050919050565b60008060008060008060008060149054906101000a900460ff161515611c15576040517f08c379a00000000000000000000000000000000000000000000000000000000081526004018080602001828103825260258152602001807f436f6e74726163742069732063757272656e746c79206e6f74206f706572617481526020017f696f6e616c00000000000000000000000000000000000000000000000000000081525060400191505060405180910390fd5b6001600360003373ffffffffffffffffffffffffffffffffffffffff1673ffffffffffffffffffffffffffffffffffffffff16815260200190815260200160002054141515611ccc576040517f08c379a000000000000000000000000000000000000000000000000000000000815260040180806020018281038252601c8152602001807f43616c6c6572206973206e6f7420636f6e7472616374206f776e65720000000081525060200191505060405180910390fd5b611d098d8d8d8080601f0160208091040260200160405190810160405280939291908181526020018383808284378201915050505050508c612269565b96506006600088600019166000191681526020019081526020016000209550600094505b85805490508560ff161015611f1857858560ff16815481101515611d4d57fe5b9060005260206000200160009054906101000a900473ffffffffffffffffffffffffffffffffffffffff169350600760008573ffffffffffffffffffffffffffffffffffffffff1673ffffffffffffffffffffffffffffffffffffffff1681526020019081526020016000206000886000191660001916815260200190815260200160002054915060096000886000191660001916815260200190815260200160002060008573ffffffffffffffffffffffffffffffffffffffff1673ffffffffffffffffffffffffffffffffffffffff1681526020019081526020016000205490506000811415611f0b57611e5e88611e508b8561238e90919063ffffffff16565b6123c690919063ffffffff16565b92508260096000896000191660001916815260200190815260200160002060008673ffffffffffffffffffffffffffffffffffffffff1673ffffffffffffffffffffffffffffffffffffffff1681526020019081526020016000208190555082600560008673ffffffffffffffffffffffffffffffffffffffff1673ffffffffffffffffffffffffffffffffffffffff168152602001908152602001600020600082825401925050819055505b8480600101955050611d2d565b50505050505050505050505050565b60008060149054906101000a900460ff16905090565b6000806000611f7f8888888080601f01602080910402602001604051908101604052809392919081815260200183838082843782019150505050505087612269565b9150600760008573ffffffffffffffffffffffffffffffffffffffff1673ffffffffffffffffffffffffffffffffffffffff16815260200190815260200160002060008360001916600019168152602001908152602001600020549050600081149250505095945050505050565b600060149054906101000a900460ff161515612097576040517f08c379a00000000000000000000000000000000000000000000000000000000081526004018080602001828103825260258152602001807f436f6e74726163742069732063757272656e746c79206e6f74206f706572617481526020017f696f6e616c00000000000000000000000000000000000000000000000000000081525060400191505060405180910390fd5b6001600360003373ffffffffffffffffffffffffffffffffffffffff1673ffffffffffffffffffffffffffffffffffffffff1681526020019081526020016000205414151561214e576040517f08c379a000000000000000000000000000000000000000000000000000000000815260040180806020018281038252601c8152602001807f43616c6c6572206973206e6f7420636f6e7472616374206f776e65720000000081525060200191505060405180910390fd5b8160011515600160008373ffffffffffffffffffffffffffffffffffffffff1673ffffffffffffffffffffffffffffffffffffffff16815260200190815260200160002060009054906101000a900460ff161515141515612217576040517f08c379a00000000000000000000000000000000000000000000000000000000081526004018080602001828103825260158152602001807f43616c6c6572206e6f742072656769737465726564000000000000000000000081525060200191505060405180910390fd5b81600260008573ffffffffffffffffffffffffffffffffffffffff1673ffffffffffffffffffffffffffffffffffffffff16815260200190815260200160002060008282540192505081905550505050565b6000838383604051602001808473ffffffffffffffffffffffffffffffffffffffff1673ffffffffffffffffffffffffffffffffffffffff166c0100000000000000000000000002815260140183805190602001908083835b6020831015156122e757805182526020820191506020810190506020830392506122c2565b6001836020036101000a03801982511681845116808217855250505050505090500182815260200193505050506040516020818303038152906040526040518082805190602001908083835b6020831015156123585780518252602082019150602081019050602083039250612333565b6001836020036101000a038019825116818451168082178552505050505050905001915050604051809103902090509392505050565b6000808314156123a157600090506123c0565b81830290508183828115156123b257fe5b041415156123bc57fe5b8090505b92915050565b600081838115156123d357fe5b049050929150505600a165627a7a72305820f8e60cda9c927dd14762f1b77e8940d418c535bd1e4b7c5a74fa1ee8890462a70029",
  "source": "pragma solidity >0.4.25;\n\nimport \"../node_modules/openzeppelin-solidity/contracts/math/SafeMath.sol\";\n\ncontract FlightSuretyData {\n    using SafeMath for uint256;\n\n    /********************************************************************************************/\n    /*                                       DATA VARIABLES                                     */\n    /********************************************************************************************/\n\n    address private contractOwner;                                      // Account used to deploy contract\n    bool private operational = true;                                    // Blocks all state changes throughout the contract if false\n    mapping (address => bool) private registeredAirlines;\n    mapping (address => uint) private fundedAirlines;\n    mapping(address => uint256) private authorizedContracts;\n    address[] airlines;\n\n//this will track insurance for each passenger\n  /*    struct PassengerInsurance {\n        address  passenger;           \n        uint     insuranceamount;  \n        uint     payout;   \n    }  */\n    //this will track insurance for each airline\n   \n    //use Pascal case for sruct\n    /* struct Airlineinsurance {\n        string cid;  \n        //string   flight; \n        //uint256  timestamp;  \n        uint     insuranceamount;  \n        //uint    payout;   \n    }\n    struct Payment{\n        uint purchasedamount;\n        uint payout;\n    } */\n   \n    //mapping (bytes32 => Airlineinsurance[]) airlinesInsuranceHistory;\n   // mapping (address => passengerInsurance[]) passengerInsuranceHistory;\n   //passenger => amount\n    mapping(address => uint) private accountBalance;\n    //flightkey => passengers\n    mapping(bytes32 =>address[]) private airlineinsurees;\n    //mapping(address =>mapping(bytes32 => Payment)) insuredamount;\n\n    //passenger =>(flightkey => amount)\n    mapping(address =>mapping(bytes32 => uint)) insuredamount;\n     mapping(address => uint) private fundedinsurance;\n\n    //flightkey =>(passenger => payout)\n    mapping(bytes32 =>mapping(address => uint)) insuredpayout;\n\n\n   \n    //address[] public airlinesInsurances;\n     // Max Fee to be paid when buying insurance\n    \n    //uint256 public constant MIN_FUNDING_AMOUNT = 10 ether;\n    /********************************************************************************************/\n    /*                                       EVENT DEFINITIONS                                  */\n    /********************************************************************************************/\n\n\n    /**\n    * @dev Constructor\n    *      The deploying account becomes contractOwner\n    */\n    constructor\n                                (\n                                    address firstAirline\n                                ) \n                                public \n    {\n        contractOwner = msg.sender;\n        registeredAirlines[firstAirline] = true;\n        airlines.push(firstAirline);\n    }\n\n    /********************************************************************************************/\n    /*                                       FUNCTION MODIFIERS                                 */\n    /********************************************************************************************/\n\n    // Modifiers help avoid duplication of code. They are typically used to validate something\n    // before a function is allowed to be executed.\n\n    /**\n    * @dev Modifier that requires the \"operational\" boolean variable to be \"true\"\n    *      This is used on all state changing functions to pause the contract in \n    *      the event there is an issue that needs to be fixed\n    */\n    modifier requireIsOperational() \n    {\n        require(operational, \"Contract is currently not operational\");\n        _;  // All modifiers require an \"_\" which indicates where the function body will be added\n    }\n\n    /**\n    * @dev Modifier that requires the \"ContractOwner\" account to be the function caller\n    */\n    modifier requireContractOwner()\n    {\n        require(msg.sender == contractOwner, \"Caller is not contract owner\");\n        _;\n    }\n\n     modifier requireIsCallerAirlineRegistered(address caller)\n    {\n        require( registeredAirlines[caller] == true, \"Caller not registered\");\n        _;\n    }\n\n     modifier requireisAirlineNotRegistered(address airline)\n    {\n        require( registeredAirlines[airline] == false, \"Airline already registered\");\n        _;\n    }\n    modifier requireIsCallerAuthorized()\n    {\n        require(authorizedContracts[msg.sender] == 1, \"Caller is not contract owner\");\n        _;\n    } \n\n    \n\n    /*modifier requireisAirlineFunded(address airline)\n    {\n        require( fundedAirlines[airline] >= 10, \"Airline must submit funds of 10 ether\");\n        _;\n    }*/\n    /********************************************************************************************/\n    /*                                       UTILITY FUNCTIONS                                  */\n    /********************************************************************************************/\n\n    function isnotinsured(address airline,string flight,uint timestamp,address passenger)                     \n                    external\n                    view\n                    returns(bool)\n    {\n        bytes32 flightkey = getFlightKey(airline,flight,timestamp);\n        uint amount = insuredamount[passenger][flightkey];\n        return(amount == 0);\n    }\n\n    function isAirlineRegistered(address airline)\n                            public\n                            view\n                            returns (bool)\n    {\n        return registeredAirlines[airline];\n    }\n    /**\n    * @dev airline can only take part in registration of other airlines\n    *     if it has more than 10 ether in its balance  \n    */\n    /* function isAirlineFunded(address airline)\n                            public\n                            view\n                            returns (bool)\n    {\n        if(fundedAirlines[airline] >= MIN_FUNDING_AMOUNT)\n            return true;\n        else\n            return false;\n    } */\n    /**\n    * @dev Get operating status of contract\n    *\n    * @return A bool that is the current operating status\n    */      \n    function isOperational() \n                            public \n                            view \n                            returns(bool) \n    {\n        return operational;\n    }\n\n\n    /**\n    * @dev Sets contract operations on/off\n    *\n    * When operational mode is disabled, all write transactions except for this one will fail\n    */    \n    function setOperatingStatus\n                            (\n                                bool mode\n                            ) \n                            external\n                            requireContractOwner \n    {\n        operational = mode;\n    }\n\n    /********************************************************************************************/\n    /*                                     SMART CONTRACT FUNCTIONS                             */\n    /********************************************************************************************/\n    \n     function authorizeCaller\n                            (\n                                address contractAddress\n                            )\n                            external\n                            requireContractOwner\n    {\n        authorizedContracts[contractAddress] = 1;\n       \n    }\n\n    function deauthorizeCaller\n                            (\n                                address contractAddress\n                            )\n                            external\n                            requireContractOwner\n    {\n        delete authorizedContracts[contractAddress];\n    }\n   /**\n    * @dev Add an airline to the registration queue\n    *      Can only be called from FlightSuretyApp contract\n    *\n    */   \n    function registerAirline\n                            (  \n                                address airline \n                            )\n                            external\n                            requireIsOperational\n                            requireIsCallerAuthorized  \n                            requireisAirlineNotRegistered(airline)                     \n                            returns(bool success)\n    {\n        require(airline != address(0));    \n        registeredAirlines[airline] = true;\n        airlines.push(airline);\n        return registeredAirlines[airline];\n    }\n\n    function getAirlines()\n                external\n                view\n                returns(address[]) \n\n\n    {\n        return airlines;\n    }\n\n    \n    function getPassengerFunds(address passenger)\n                external\n                view\n                returns(uint) \n\n\n    {\n        \n        return accountBalance[passenger];\n    }\n\n    function withdrawPassengerFunds(uint amount,address passenger)\n                                    external    \n                                    requireIsOperational                                     \n                                    requireIsCallerAuthorized                                               \n                                    returns(uint)\n    {\n        accountBalance[passenger] = accountBalance[passenger] - amount;\n        passenger.transfer(amount);\n\n        return accountBalance[passenger];\n    }\n\n/**\n  * @dev airline can deposit funds in any amount  \n */\n    function fundAirline\n                            (\n                                address airline,\n                                uint amount\n                            )\n                            external                            \n                            requireIsOperational\n                            requireIsCallerAuthorized\n                            requireIsCallerAirlineRegistered(airline)\n                           \n    {\n        fundedAirlines[airline] += amount;\n    }\n\n    /**\n  * @dev to see how much fund an airline has  \n */\n    function getAirlineFunds\n                            (\n                                address airline\n                               \n                            )\n                            external \n                            view                           \n                            requireIsOperational\n                            requireIsCallerAuthorized\n                            requireIsCallerAirlineRegistered(airline)\n                             returns(uint funds)\n                           \n    {\n        return (fundedAirlines[airline]);\n    }\n  \n   /**\n    * @dev Buy insurance for a flight. If a passenger sends more than 1 ether then the excess is returned.\n    *\n    */   \n    \n     function buy (address  airline,string flight,uint256 _timestamp,address passenger,uint amount)          \n                            external\n                            requireIsOperational\n                            requireIsCallerAuthorized\n                            requireIsCallerAirlineRegistered(airline)                                                      \n    {\n        \n        bytes32 flightkey = getFlightKey(airline,flight,_timestamp);\n\n       // PassengerInsurance memory pinsurance = PassengerInsurance({passenger:_passenger,insuranceamount:amount,payout:0});\n        //airlineInsurance[flightkey].push(pinsurance);\n       \n        airlineinsurees[flightkey].push(passenger);\n       \n        insuredamount[passenger][flightkey]= amount;\n        insuredpayout[flightkey][passenger] = 0; \n            \n        \n    } \n    uint public  total = 0;\n    /**\n     *  @dev Credits payouts to insurees\n    */\n    function creditInsurees\n                                (\n                                    address airline,\n                                    string flight,\n                                    uint256 timestamp,\n                                    uint factor_numerator,\n                                    uint factor_denominator\n                                                       \n                                )\n                                external\n                                requireIsOperational\n                                requireIsCallerAuthorized\n                                \n    {\n        //get all the insurees\n        bytes32 flightkey = getFlightKey(airline,flight,timestamp);\n        \n         address[] storage insurees = airlineinsurees[flightkey];\n       \n       \n          for(uint8 i = 0; i < insurees.length; i++) {\n             address passenger = insurees[i];\n             uint256 payout;\n            uint amount = insuredamount[passenger][flightkey];\n            \n            //check if already paid\n            uint paid = insuredpayout[flightkey][passenger];\n            if(paid == 0)\n            {\n             // bool success = _appcontract.call(bytes4(keccak256(\"calculatePayout(uint256)\")), amount);\n                payout = amount.mul(factor_numerator).div(factor_denominator);               \n               \n                insuredpayout[flightkey][passenger] = payout;  \n                accountBalance[passenger] += payout;\n                \n            }\n              \n        } \n    } \n\n\n    \n    //functions to debug contract\n    /*  function getInsurees(address airline,string flight,uint ts) \n                        external\n                         view\n                         requireIsOperational\n                        requireIsCallerAuthorized \n                        returns(PassengerInsurance[])\n        {  \n           \n       // PassengerInsurance memory pinsurance\n             bytes32 flightkey = getFlightKey(airline,flight,ts);\n            PassengerInsurance[] storage insurees = airlineInsurance[flightkey];//airlineinsurees[flightkey];\n            return insurees; \n        } */\n/*\n         function isAmountNotPaid(address airline,string flight,uint ts,address passenger) \n                        external\n                         view\n                         requireIsOperational\n                        requireIsCallerAuthorized \n                        returns(bool)\n        {  \n        \n            bytes32 flightkey = getFlightKey(airline,flight,ts);\n            uint paid = insuredpayout[flightkey][passenger];\n            return (paid == 0); \n        } */\n\n        function getAccountBalance(address passenger)\n                                    external\n                                    view\n                                    requireIsOperational\n                                    requireIsCallerAuthorized \n                                    returns(uint)\n             {\n                return accountBalance[passenger];\n             }\n\n       /*  function getInsuredAmount(address airline,string flight,uint ts,address passenger) \n                        external\n                         view\n                         requireIsOperational\n                        requireIsCallerAuthorized \n                        returns(uint)\n        {  \n        \n            bytes32 flightkey = getFlightKey(airline,flight,ts);\n            uint amount = insuredamount[passenger][flightkey];\n            return amount; \n        } */\n\n    /* function getInsureesAmount(address airline,string flight,uint ts) external  returns(uint)\n    {  \n      \n        bytes32 flightkey = getFlightKey(airline,flight,ts);\n        address[] storage insurees = airlineinsurees[flightkey];\n          for(uint8 i = 0; i < insurees.length; i++) {\n                address passenger = insurees[i];\n                \n                total = total + accountBalance[passenger];\n          }\n          return total;\n        \n         \n    } */\n    /**\n     *  @dev Transfers eligible payout funds to insuree\n     *\n    */\n    function pay\n                            (   address airline,string flight,uint ts,\n                                address passenger,\n                                uint payout\n                            )\n                            external\n                            requireIsOperational\n                            requireIsCallerAuthorized\n                            \n    {\n        bytes32 flightkey = getFlightKey(airline,flight,ts);\n        insuredpayout[flightkey][passenger] = payout;  \n        accountBalance[passenger] += payout;\n\n        //uint256 prev = accountBalance[customerAddress];\n        //accountBalance[customerAddress] = 0;\n        //passenger.transfer(payout);\n    }\n\n   /**\n    * @dev Initial funding for the insurance. Unless there are too many delayed flights\n    *      resulting in insurance payouts, the contract should be self-sustaining\n    *\n    */   \n    function fund\n                            (   \n                            )\n                            public\n                            payable\n    {\n    }\n\n    function getFlightKey\n                        (\n                            address airline,\n                            string memory flight,\n                            uint256 timestamp\n                        )\n                        pure\n                        internal\n                        returns(bytes32) \n    {\n        return keccak256(abi.encodePacked(airline, flight, timestamp));\n    }\n\n    /**\n    * @dev Fallback function for funding smart contract.\n    *\n    */\n    function() \n                            external \n                            payable \n    {\n        fund();\n    }\n\n\n}\n",
  "sourcePath": "/Users/chitambars/udacity/github/udacity-flight-surety/contracts/FlightSuretyData.sol",
  "compiler": {
    "name": "solc",
    "version": "0.4.26+commit.4563c3fc.Emscripten.clang"
  },
  "schemaVersion": "3.3.3",
  "updatedAt": "2021-01-19T00:39:18.950Z",
  "devdoc": {
    "methods": {
      "buy(address,string,uint256,address,uint256)": {
        "details": "Buy insurance for a flight. If a passenger sends more than 1 ether then the excess is returned.    "
      },
      "creditInsurees(address,string,uint256,uint256,uint256)": {
        "details": "Credits payouts to insurees"
      },
      "fund()": {
        "details": "Initial funding for the insurance. Unless there are too many delayed flights     resulting in insurance payouts, the contract should be self-sustaining    "
      },
      "fundAirline(address,uint256)": {
        "details": "airline can deposit funds in any amount  "
      },
      "getAirlineFunds(address)": {
        "details": "to see how much fund an airline has  "
      },
      "isOperational()": {
        "details": "Get operating status of contract",
        "return": "A bool that is the current operating status"
      },
      "pay(address,string,uint256,address,uint256)": {
        "details": "Transfers eligible payout funds to insuree    "
      },
      "registerAirline(address)": {
        "details": "Add an airline to the registration queue     Can only be called from FlightSuretyApp contract    "
      },
      "setOperatingStatus(bool)": {
        "details": "Sets contract operations on/off    * When operational mode is disabled, all write transactions except for this one will fail"
      }
    }
  },
  "userdoc": {
    "methods": {
      "authorizeCaller(address)": {
        "notice": "*****************************************************************************************"
      },
      "isnotinsured(address,string,uint256,address)": {
        "notice": "*****************************************************************************************"
      }
    }
  }
}