{
  "contractName": "FlightSuretyApp",
  "abi": [
    {
      "constant": true,
      "inputs": [],
      "name": "REGISTRATION_FEE",
      "outputs": [
        {
          "name": "",
          "type": "uint256"
        }
      ],
      "payable": false,
      "stateMutability": "view",
      "type": "function"
    },
    {
      "constant": true,
      "inputs": [],
      "name": "AIRLINE_REGISTRATION_FEE",
      "outputs": [
        {
          "name": "",
          "type": "uint256"
        }
      ],
      "payable": false,
      "stateMutability": "view",
      "type": "function"
    },
    {
      "constant": true,
      "inputs": [],
      "name": "MAX_INSURANCE_AMOUNT",
      "outputs": [
        {
          "name": "",
          "type": "uint256"
        }
      ],
      "payable": false,
      "stateMutability": "view",
      "type": "function"
    },
    {
      "inputs": [
        {
          "name": "dataContract",
          "type": "address"
        }
      ],
      "payable": false,
      "stateMutability": "nonpayable",
      "type": "constructor"
    },
    {
      "anonymous": false,
      "inputs": [
        {
          "indexed": false,
          "name": "airline",
          "type": "address"
        },
        {
          "indexed": false,
          "name": "flight",
          "type": "string"
        },
        {
          "indexed": false,
          "name": "timestamp",
          "type": "uint256"
        },
        {
          "indexed": false,
          "name": "status",
          "type": "uint8"
        }
      ],
      "name": "FlightStatusInfo",
      "type": "event"
    },
    {
      "anonymous": false,
      "inputs": [
        {
          "indexed": false,
          "name": "airline",
          "type": "address"
        },
        {
          "indexed": false,
          "name": "flight",
          "type": "string"
        },
        {
          "indexed": false,
          "name": "timestamp",
          "type": "uint256"
        },
        {
          "indexed": false,
          "name": "status",
          "type": "uint8"
        }
      ],
      "name": "OracleReport",
      "type": "event"
    },
    {
      "anonymous": false,
      "inputs": [
        {
          "indexed": false,
          "name": "index",
          "type": "uint8"
        },
        {
          "indexed": false,
          "name": "airline",
          "type": "address"
        },
        {
          "indexed": false,
          "name": "flight",
          "type": "string"
        },
        {
          "indexed": false,
          "name": "timestamp",
          "type": "uint256"
        }
      ],
      "name": "OracleRequest",
      "type": "event"
    },
    {
      "constant": true,
      "inputs": [],
      "name": "isOperational",
      "outputs": [
        {
          "name": "",
          "type": "bool"
        }
      ],
      "payable": false,
      "stateMutability": "view",
      "type": "function"
    },
    {
      "constant": false,
      "inputs": [
        {
          "name": "newAirline",
          "type": "address"
        }
      ],
      "name": "registerAirline",
      "outputs": [],
      "payable": false,
      "stateMutability": "nonpayable",
      "type": "function"
    },
    {
      "constant": false,
      "inputs": [
        {
          "name": "newAirline",
          "type": "address"
        }
      ],
      "name": "voteAirline",
      "outputs": [],
      "payable": false,
      "stateMutability": "nonpayable",
      "type": "function"
    },
    {
      "constant": false,
      "inputs": [],
      "name": "fund",
      "outputs": [],
      "payable": true,
      "stateMutability": "payable",
      "type": "function"
    },
    {
      "constant": true,
      "inputs": [],
      "name": "getBalance",
      "outputs": [
        {
          "name": "",
          "type": "uint256"
        }
      ],
      "payable": false,
      "stateMutability": "view",
      "type": "function"
    },
    {
      "constant": true,
      "inputs": [
        {
          "name": "airline",
          "type": "address"
        }
      ],
      "name": "getAirlineStatusInfo",
      "outputs": [
        {
          "name": "added",
          "type": "bool"
        },
        {
          "name": "voted",
          "type": "bool"
        },
        {
          "name": "funded",
          "type": "bool"
        },
        {
          "name": "registered",
          "type": "bool"
        },
        {
          "name": "votesNeeded",
          "type": "uint256"
        }
      ],
      "payable": false,
      "stateMutability": "view",
      "type": "function"
    },
    {
      "constant": false,
      "inputs": [
        {
          "name": "airline",
          "type": "address"
        },
        {
          "name": "flight",
          "type": "string"
        },
        {
          "name": "timestamp",
          "type": "uint256"
        }
      ],
      "name": "registerFlight",
      "outputs": [],
      "payable": false,
      "stateMutability": "nonpayable",
      "type": "function"
    },
    {
      "constant": false,
      "inputs": [
        {
          "name": "airline",
          "type": "address"
        },
        {
          "name": "flight",
          "type": "string"
        },
        {
          "name": "timestamp",
          "type": "uint256"
        }
      ],
      "name": "buyInsurance",
      "outputs": [],
      "payable": true,
      "stateMutability": "payable",
      "type": "function"
    },
    {
      "constant": true,
      "inputs": [
        {
          "name": "airline",
          "type": "address"
        },
        {
          "name": "flight",
          "type": "string"
        },
        {
          "name": "timestamp",
          "type": "uint256"
        },
        {
          "name": "insuree",
          "type": "address"
        }
      ],
      "name": "isInsured",
      "outputs": [
        {
          "name": "",
          "type": "bool"
        }
      ],
      "payable": false,
      "stateMutability": "view",
      "type": "function"
    },
    {
      "constant": false,
      "inputs": [],
      "name": "payInsuree",
      "outputs": [],
      "payable": false,
      "stateMutability": "nonpayable",
      "type": "function"
    },
    {
      "constant": false,
      "inputs": [
        {
          "name": "airline",
          "type": "address"
        },
        {
          "name": "flight",
          "type": "string"
        },
        {
          "name": "timestamp",
          "type": "uint256"
        }
      ],
      "name": "fetchFlightStatus",
      "outputs": [],
      "payable": false,
      "stateMutability": "nonpayable",
      "type": "function"
    },
    {
      "constant": false,
      "inputs": [],
      "name": "registerOracle",
      "outputs": [],
      "payable": true,
      "stateMutability": "payable",
      "type": "function"
    },
    {
      "constant": true,
      "inputs": [],
      "name": "getMyIndexes",
      "outputs": [
        {
          "name": "",
          "type": "uint8[3]"
        }
      ],
      "payable": false,
      "stateMutability": "view",
      "type": "function"
    },
    {
      "constant": false,
      "inputs": [
        {
          "name": "index",
          "type": "uint8"
        },
        {
          "name": "airline",
          "type": "address"
        },
        {
          "name": "flight",
          "type": "string"
        },
        {
          "name": "timestamp",
          "type": "uint256"
        },
        {
          "name": "statusCode",
          "type": "uint8"
        }
      ],
      "name": "submitOracleResponse",
      "outputs": [],
      "payable": false,
      "stateMutability": "nonpayable",
      "type": "function"
    }
  ],
  "bytecode": "0x60806040526000600160146101000a81548160ff021916908360ff16021790555034801561002c57600080fd5b50604051602080613ae38339810180604052810190808051906020019092919050505033600160006101000a81548173ffffffffffffffffffffffffffffffffffffffff021916908373ffffffffffffffffffffffffffffffffffffffff160217905550806000806101000a81548173ffffffffffffffffffffffffffffffffffffffff021916908373ffffffffffffffffffffffffffffffffffffffff16021790555050613a03806100e06000396000f3006080604052600436106100f1576000357c0100000000000000000000000000000000000000000000000000000000900463ffffffff16806312065fe0146100f65780632f6721d014610121578063339d2590146101795780633cc0be9c1461018357806346c13df4146101e85780635f1cc0e61461026b57806364b4f751146102be5780639f71c59d146102e9578063b60d428814610300578063bdfd98771461030a578063c10f27001461034d578063cd905dff146103cc578063d8ab5b89146103fb578063d8f73ca51461043e578063e375e92614610469578063f83f11c014610494578063f92e0ecc146104f9575b600080fd5b34801561010257600080fd5b5061010b610596565b6040518082815260200191505060405180910390f35b610177600480360381019080803573ffffffffffffffffffffffffffffffffffffffff1690602001909291908035906020019082018035906020019190919293919293908035906020019092919050505061073d565b005b61018161103b565b005b34801561018f57600080fd5b506101e6600480360381019080803573ffffffffffffffffffffffffffffffffffffffff16906020019092919080359060200190820180359060200191909192939192939080359060200190929190505050611163565b005b3480156101f457600080fd5b50610229600480360381019080803573ffffffffffffffffffffffffffffffffffffffff16906020019092919050505061165b565b60405180861515151581526020018515151515815260200184151515158152602001831515151581526020018281526020019550505050505060405180910390f35b34801561027757600080fd5b50610280611795565b6040518082600360200280838360005b838110156102ab578082015181840152602081019050610290565b5050505090500191505060405180910390f35b3480156102ca57600080fd5b506102d361190a565b6040518082815260200191505060405180910390f35b3480156102f557600080fd5b506102fe611916565b005b610308611f1c565b005b34801561031657600080fd5b5061034b600480360381019080803573ffffffffffffffffffffffffffffffffffffffff169060200190929190505050612337565b005b34801561035957600080fd5b506103ca600480360381019080803560ff169060200190929190803573ffffffffffffffffffffffffffffffffffffffff16906020019092919080359060200190820180359060200191909192939192939080359060200190929190803560ff169060200190929190505050612442565b005b3480156103d857600080fd5b506103e1612a5a565b604051808215151515815260200191505060405180910390f35b34801561040757600080fd5b5061043c600480360381019080803573ffffffffffffffffffffffffffffffffffffffff169060200190929190505050612b21565b005b34801561044a57600080fd5b50610453612c2c565b6040518082815260200191505060405180910390f35b34801561047557600080fd5b5061047e612c38565b6040518082815260200191505060405180910390f35b3480156104a057600080fd5b506104f7600480360381019080803573ffffffffffffffffffffffffffffffffffffffff16906020019092919080359060200190820180359060200191909192939192939080359060200190929190505050612c44565b005b34801561050557600080fd5b5061057c600480360381019080803573ffffffffffffffffffffffffffffffffffffffff16906020019092919080359060200190820180359060200191909192939192939080359060200190929190803573ffffffffffffffffffffffffffffffffffffffff169060200190929190505050612eae565b604051808215151515815260200191505060405180910390f35b60006105a0612a5a565b151561063a576040517f08c379a00000000000000000000000000000000000000000000000000000000081526004018080602001828103825260258152602001807f436f6e74726163742069732063757272656e746c79206e6f74206f706572617481526020017f696f6e616c00000000000000000000000000000000000000000000000000000081525060400191505060405180910390fd5b600160009054906101000a900473ffffffffffffffffffffffffffffffffffffffff1673ffffffffffffffffffffffffffffffffffffffff163373ffffffffffffffffffffffffffffffffffffffff161415156106ff576040517f08c379a000000000000000000000000000000000000000000000000000000000815260040180806020018281038252601c8152602001807f43616c6c6572206973206e6f7420636f6e7472616374206f776e65720000000081525060200191505060405180910390fd5b6000809054906101000a900473ffffffffffffffffffffffffffffffffffffffff1673ffffffffffffffffffffffffffffffffffffffff1631905090565b610745612a5a565b15156107df576040517f08c379a00000000000000000000000000000000000000000000000000000000081526004018080602001828103825260258152602001807f436f6e74726163742069732063757272656e746c79206e6f74206f706572617481526020017f696f6e616c00000000000000000000000000000000000000000000000000000081525060400191505060405180910390fd5b836000809054906101000a900473ffffffffffffffffffffffffffffffffffffffff1673ffffffffffffffffffffffffffffffffffffffff16630e248a11826040518263ffffffff167c0100000000000000000000000000000000000000000000000000000000028152600401808273ffffffffffffffffffffffffffffffffffffffff1673ffffffffffffffffffffffffffffffffffffffff168152602001915050602060405180830381600087803b15801561089c57600080fd5b505af11580156108b0573d6000803e3d6000fd5b505050506040513d60208110156108c657600080fd5b81019080805190602001909291905050501515610971576040517f08c379a000000000000000000000000000000000000000000000000000000000815260040180806020018281038252602e8152602001807f4169726c696e652073686f756c6420626520612072656769737465726564206181526020017f69726c696e6520666c696768742e00000000000000000000000000000000000081525060400191505060405180910390fd5b8484848080601f016020809104026020016040519081016040528093929190818152602001838380828437820191505050505050836000809054906101000a900473ffffffffffffffffffffffffffffffffffffffff1673ffffffffffffffffffffffffffffffffffffffff1663e6143d958484846040518463ffffffff167c0100000000000000000000000000000000000000000000000000000000028152600401808473ffffffffffffffffffffffffffffffffffffffff1673ffffffffffffffffffffffffffffffffffffffff16815260200180602001838152602001828103825284818151815260200191508051906020019080838360005b83811015610a89578082015181840152602081019050610a6e565b50505050905090810190601f168015610ab65780820380516001836020036101000a031916815260200191505b50945050505050602060405180830381600087803b158015610ad757600080fd5b505af1158015610aeb573d6000803e3d6000fd5b505050506040513d6020811015610b0157600080fd5b81019080805190602001909291905050501515610bac576040517f08c379a00000000000000000000000000000000000000000000000000000000081526004018080602001828103825260238152602001807f466c696768742073686f756c64206265207265676973746572656420666c696781526020017f68742e000000000000000000000000000000000000000000000000000000000081525060400191505060405180910390fd5b8787878080601f0160208091040260200160405190810160405280939291908181526020018383808284378201915050505050508633600015156000809054906101000a900473ffffffffffffffffffffffffffffffffffffffff1673ffffffffffffffffffffffffffffffffffffffff1663f92e0ecc868686866040518563ffffffff167c0100000000000000000000000000000000000000000000000000000000028152600401808573ffffffffffffffffffffffffffffffffffffffff1673ffffffffffffffffffffffffffffffffffffffff168152602001806020018481526020018373ffffffffffffffffffffffffffffffffffffffff1673ffffffffffffffffffffffffffffffffffffffff168152602001828103825285818151815260200191508051906020019080838360005b83811015610cfc578082015181840152602081019050610ce1565b50505050905090810190601f168015610d295780820380516001836020036101000a031916815260200191505b5095505050505050602060405180830381600087803b158015610d4b57600080fd5b505af1158015610d5f573d6000803e3d6000fd5b505050506040513d6020811015610d7557600080fd5b81019080805190602001909291905050501515141515610dfd576040517f08c379a00000000000000000000000000000000000000000000000000000000081526004018080602001828103825260208152602001807f50617373656e6765722073686f756c64206e6f7420626520696e73757265642e81525060200191505060405180910390fd5b34600081118015610e165750670de0b6b3a76400008111155b1515610e8a576040517f08c379a000000000000000000000000000000000000000000000000000000000815260040180806020018281038252601e8152602001807f4d617820696e737572616e636520616d6f756e742069732031204554482e000081525060200191505060405180910390fd5b6000809054906101000a900473ffffffffffffffffffffffffffffffffffffffff1673ffffffffffffffffffffffffffffffffffffffff166108fc349081150290604051600060405180830381858888f19350505050158015610ef1573d6000803e3d6000fd5b506000809054906101000a900473ffffffffffffffffffffffffffffffffffffffff1673ffffffffffffffffffffffffffffffffffffffff1663cf90cc44338f8f8f8f346040518763ffffffff167c0100000000000000000000000000000000000000000000000000000000028152600401808773ffffffffffffffffffffffffffffffffffffffff1673ffffffffffffffffffffffffffffffffffffffff1681526020018673ffffffffffffffffffffffffffffffffffffffff1673ffffffffffffffffffffffffffffffffffffffff1681526020018060200184815260200183815260200182810382528686828181526020019250808284378201915050975050505050505050600060405180830381600087803b15801561101457600080fd5b505af1158015611028573d6000803e3d6000fd5b5050505050505050505050505050505050565b6110436138ea565b670de0b6b3a764000034101515156110c3576040517f08c379a000000000000000000000000000000000000000000000000000000000815260040180806020018281038252601c8152602001807f526567697374726174696f6e206665652069732072657175697265640000000081525060200191505060405180910390fd5b6110cc33613483565b9050604080519081016040528060011515815260200182815250600260003373ffffffffffffffffffffffffffffffffffffffff1673ffffffffffffffffffffffffffffffffffffffff16815260200190815260200160002060008201518160000160006101000a81548160ff02191690831515021790555060208201518160010190600361115c92919061390d565b5090505050565b836000809054906101000a900473ffffffffffffffffffffffffffffffffffffffff1673ffffffffffffffffffffffffffffffffffffffff16630e248a11826040518263ffffffff167c0100000000000000000000000000000000000000000000000000000000028152600401808273ffffffffffffffffffffffffffffffffffffffff1673ffffffffffffffffffffffffffffffffffffffff168152602001915050602060405180830381600087803b15801561122057600080fd5b505af1158015611234573d6000803e3d6000fd5b505050506040513d602081101561124a57600080fd5b810190808051906020019092919050505015156112f5576040517f08c379a000000000000000000000000000000000000000000000000000000000815260040180806020018281038252602e8152602001807f4169726c696e652073686f756c6420626520612072656769737465726564206181526020017f69726c696e6520666c696768742e00000000000000000000000000000000000081525060400191505060405180910390fd5b8484848080601f01602080910402602001604051908101604052809392919081815260200183838082843782019150505050505083600015156000809054906101000a900473ffffffffffffffffffffffffffffffffffffffff1673ffffffffffffffffffffffffffffffffffffffff1663e6143d958585856040518463ffffffff167c0100000000000000000000000000000000000000000000000000000000028152600401808473ffffffffffffffffffffffffffffffffffffffff1673ffffffffffffffffffffffffffffffffffffffff16815260200180602001838152602001828103825284818151815260200191508051906020019080838360005b838110156114115780820151818401526020810190506113f6565b50505050905090810190601f16801561143e5780820380516001836020036101000a031916815260200191505b50945050505050602060405180830381600087803b15801561145f57600080fd5b505af1158015611473573d6000803e3d6000fd5b505050506040513d602081101561148957600080fd5b81019080805190602001909291905050501515141515611537576040517f08c379a00000000000000000000000000000000000000000000000000000000081526004018080602001828103825260278152602001807f466c696768742073686f756c64206e6f7420626520726567697374657265642081526020017f666c696768742e0000000000000000000000000000000000000000000000000081525060400191505060405180910390fd5b6000809054906101000a900473ffffffffffffffffffffffffffffffffffffffff1673ffffffffffffffffffffffffffffffffffffffff1663d304dabf89898989600160006040518763ffffffff167c0100000000000000000000000000000000000000000000000000000000028152600401808773ffffffffffffffffffffffffffffffffffffffff1673ffffffffffffffffffffffffffffffffffffffff16815260200180602001858152602001841515151581526020018360ff1660ff16815260200182810382528787828181526020019250808284378201915050975050505050505050600060405180830381600087803b15801561163957600080fd5b505af115801561164d573d6000803e3d6000fd5b505050505050505050505050565b60008060008060008060009054906101000a900473ffffffffffffffffffffffffffffffffffffffff1673ffffffffffffffffffffffffffffffffffffffff166346c13df4876040518263ffffffff167c0100000000000000000000000000000000000000000000000000000000028152600401808273ffffffffffffffffffffffffffffffffffffffff1673ffffffffffffffffffffffffffffffffffffffff16815260200191505060a060405180830381600087803b15801561171f57600080fd5b505af1158015611733573d6000803e3d6000fd5b505050506040513d60a081101561174957600080fd5b8101908080519060200190929190805190602001909291908051906020019092919080519060200190929190805190602001909291905050509450945094509450945091939590929450565b61179d6138ea565b600260003373ffffffffffffffffffffffffffffffffffffffff1673ffffffffffffffffffffffffffffffffffffffff16815260200190815260200160002060000160009054906101000a900460ff161515611861576040517f08c379a000000000000000000000000000000000000000000000000000000000815260040180806020018281038252601b8152602001807f4e6f74207265676973746572656420617320616e206f7261636c65000000000081525060200191505060405180910390fd5b600260003373ffffffffffffffffffffffffffffffffffffffff1673ffffffffffffffffffffffffffffffffffffffff168152602001908152602001600020600101600380602002604051908101604052809291908260038015611900576020028201916000905b82829054906101000a900460ff1660ff16815260200190600101906020826000010492830192600103820291508084116118c95790505b5050505050905090565b670de0b6b3a764000081565b60003360008060009054906101000a900473ffffffffffffffffffffffffffffffffffffffff1673ffffffffffffffffffffffffffffffffffffffff1663e6f574d2836040518263ffffffff167c0100000000000000000000000000000000000000000000000000000000028152600401808273ffffffffffffffffffffffffffffffffffffffff1673ffffffffffffffffffffffffffffffffffffffff168152602001915050602060405180830381600087803b1580156119d757600080fd5b505af11580156119eb573d6000803e3d6000fd5b505050506040513d6020811015611a0157600080fd5b8101908080519060200190929190505050111515611aad576040517f08c379a00000000000000000000000000000000000000000000000000000000081526004018080602001828103825260268152602001807f50617373656e6765722073686f756c6420686176652061207061796f7574206181526020017f6d6f756e742e000000000000000000000000000000000000000000000000000081525060400191505060405180910390fd5b600073ffffffffffffffffffffffffffffffffffffffff163373ffffffffffffffffffffffffffffffffffffffff1614151515611b78576040517f08c379a00000000000000000000000000000000000000000000000000000000081526004018080602001828103825260298152602001807f50617373656e67657220616464726573732073686f756c642062652076616c6981526020017f642061646472657373000000000000000000000000000000000000000000000081525060400191505060405180910390fd5b6000809054906101000a900473ffffffffffffffffffffffffffffffffffffffff1673ffffffffffffffffffffffffffffffffffffffff16634209fff1336040518263ffffffff167c0100000000000000000000000000000000000000000000000000000000028152600401808273ffffffffffffffffffffffffffffffffffffffff1673ffffffffffffffffffffffffffffffffffffffff168152602001915050602060405180830381600087803b158015611c3457600080fd5b505af1158015611c48573d6000803e3d6000fd5b505050506040513d6020811015611c5e57600080fd5b81019080805190602001909291905050501515611ce3576040517f08c379a000000000000000000000000000000000000000000000000000000000815260040180806020018281038252601e8152602001807f50617373656e6765722073686f756c642062652072656769737465726564000081525060200191505060405180910390fd5b6000809054906101000a900473ffffffffffffffffffffffffffffffffffffffff1673ffffffffffffffffffffffffffffffffffffffff1663e6f574d2336040518263ffffffff167c0100000000000000000000000000000000000000000000000000000000028152600401808273ffffffffffffffffffffffffffffffffffffffff1673ffffffffffffffffffffffffffffffffffffffff168152602001915050602060405180830381600087803b158015611d9f57600080fd5b505af1158015611db3573d6000803e3d6000fd5b505050506040513d6020811015611dc957600080fd5b810190808051906020019092919050505091506000809054906101000a900473ffffffffffffffffffffffffffffffffffffffff1673ffffffffffffffffffffffffffffffffffffffff166108fc839081150290604051600060405180830381858888f19350505050158015611e43573d6000803e3d6000fd5b506000809054906101000a900473ffffffffffffffffffffffffffffffffffffffff1673ffffffffffffffffffffffffffffffffffffffff16630c11dedd336040518263ffffffff167c0100000000000000000000000000000000000000000000000000000000028152600401808273ffffffffffffffffffffffffffffffffffffffff1673ffffffffffffffffffffffffffffffffffffffff168152602001915050600060405180830381600087803b158015611f0057600080fd5b505af1158015611f14573d6000803e3d6000fd5b505050505050565b611f24612a5a565b1515611fbe576040517f08c379a00000000000000000000000000000000000000000000000000000000081526004018080602001828103825260258152602001807f436f6e74726163742069732063757272656e746c79206e6f74206f706572617481526020017f696f6e616c00000000000000000000000000000000000000000000000000000081525060400191505060405180910390fd5b34678ac7230489e800008110151515612065576040517f08c379a00000000000000000000000000000000000000000000000000000000081526004018080602001828103825260258152602001807f4169726c696e6520526567697374726174696f6e20666565206973203130206581526020017f746865722e00000000000000000000000000000000000000000000000000000081525060400191505060405180910390fd5b336000809054906101000a900473ffffffffffffffffffffffffffffffffffffffff1673ffffffffffffffffffffffffffffffffffffffff16631ce2ec1d826040518263ffffffff167c0100000000000000000000000000000000000000000000000000000000028152600401808273ffffffffffffffffffffffffffffffffffffffff1673ffffffffffffffffffffffffffffffffffffffff168152602001915050602060405180830381600087803b15801561212257600080fd5b505af1158015612136573d6000803e3d6000fd5b505050506040513d602081101561214c57600080fd5b810190808051906020019092919050505015156121f7576040517f08c379a00000000000000000000000000000000000000000000000000000000081526004018080602001828103825260258152602001807f4169726c696e652073686f756c6420626520636c656172656420666f7220667581526020017f6e64696e6700000000000000000000000000000000000000000000000000000081525060400191505060405180910390fd5b6000809054906101000a900473ffffffffffffffffffffffffffffffffffffffff1673ffffffffffffffffffffffffffffffffffffffff166108fc349081150290604051600060405180830381858888f1935050505015801561225e573d6000803e3d6000fd5b506000809054906101000a900473ffffffffffffffffffffffffffffffffffffffff1673ffffffffffffffffffffffffffffffffffffffff16636fbb8798336040518263ffffffff167c0100000000000000000000000000000000000000000000000000000000028152600401808273ffffffffffffffffffffffffffffffffffffffff1673ffffffffffffffffffffffffffffffffffffffff168152602001915050600060405180830381600087803b15801561231b57600080fd5b505af115801561232f573d6000803e3d6000fd5b505050505050565b6000809054906101000a900473ffffffffffffffffffffffffffffffffffffffff1673ffffffffffffffffffffffffffffffffffffffff1663c7ba501833836040518363ffffffff167c0100000000000000000000000000000000000000000000000000000000028152600401808373ffffffffffffffffffffffffffffffffffffffff1673ffffffffffffffffffffffffffffffffffffffff1681526020018273ffffffffffffffffffffffffffffffffffffffff1673ffffffffffffffffffffffffffffffffffffffff16815260200192505050600060405180830381600087803b15801561242757600080fd5b505af115801561243b573d6000803e3d6000fd5b5050505050565b60008660ff16600260003373ffffffffffffffffffffffffffffffffffffffff1673ffffffffffffffffffffffffffffffffffffffff168152602001908152602001600020600101600060038110151561249857fe5b602091828204019190069054906101000a900460ff1660ff16148061252757508660ff16600260003373ffffffffffffffffffffffffffffffffffffffff1673ffffffffffffffffffffffffffffffffffffffff168152602001908152602001600020600101600160038110151561250c57fe5b602091828204019190069054906101000a900460ff1660ff16145b8061259c57508660ff16600260003373ffffffffffffffffffffffffffffffffffffffff1673ffffffffffffffffffffffffffffffffffffffff168152602001908152602001600020600101600260038110151561258157fe5b602091828204019190069054906101000a900460ff1660ff16145b1515612636576040517f08c379a00000000000000000000000000000000000000000000000000000000081526004018080602001828103825260238152602001807f496e64657820646f6573206e6f74206d61746368206f7261636c65207265717581526020017f657374000000000000000000000000000000000000000000000000000000000081525060400191505060405180910390fd5b8686868686604051602001808660ff1660ff167f01000000000000000000000000000000000000000000000000000000000000000281526001018573ffffffffffffffffffffffffffffffffffffffff1673ffffffffffffffffffffffffffffffffffffffff166c010000000000000000000000000281526014018484808284378201915050828152602001955050505050506040516020818303038152906040526040518082805190602001908083835b60208310151561270d57805182526020820191506020810190506020830392506126e8565b6001836020036101000a0380198251168184511680821785525050505050509050019150506040518091039020905060036000826000191660001916815260200190815260200160002060000160149054906101000a900460ff161515612802576040517f08c379a000000000000000000000000000000000000000000000000000000000815260040180806020018281038252602f8152602001807f466c69676874206f722074696d657374616d7020646f206e6f74206d6174636881526020017f206f7261636c652072657175657374000000000000000000000000000000000081525060400191505060405180910390fd5b60036000826000191660001916815260200190815260200160002060010160008360ff1660ff1681526020019081526020016000203390806001815401808255809150509060018203906000526020600020016000909192909190916101000a81548173ffffffffffffffffffffffffffffffffffffffff021916908373ffffffffffffffffffffffffffffffffffffffff160217905550507f43c853095c2752648493c88b4baac4d580d2594ffb00c6f1d4242d844514f7838686868686604051808673ffffffffffffffffffffffffffffffffffffffff1673ffffffffffffffffffffffffffffffffffffffff168152602001806020018481526020018360ff1660ff16815260200182810382528686828181526020019250808284378201915050965050505050505060405180910390a16003806000836000191660001916815260200190815260200160002060010160008460ff1660ff16815260200190815260200160002080549050101515612a51577fe23f5229de535c091e3b7bec2665f5d698192d3b31393066e8987b7a05076b6c8686868686604051808673ffffffffffffffffffffffffffffffffffffffff1673ffffffffffffffffffffffffffffffffffffffff168152602001806020018481526020018360ff1660ff16815260200182810382528686828181526020019250808284378201915050965050505050505060405180910390a1612a508686868080601f0160208091040260200160405190810160405280939291908181526020018383808284378201915050505050508585613629565b5b50505050505050565b60008060009054906101000a900473ffffffffffffffffffffffffffffffffffffffff1673ffffffffffffffffffffffffffffffffffffffff1663cd905dff6040518163ffffffff167c0100000000000000000000000000000000000000000000000000000000028152600401602060405180830381600087803b158015612ae157600080fd5b505af1158015612af5573d6000803e3d6000fd5b505050506040513d6020811015612b0b57600080fd5b8101908080519060200190929190505050905090565b6000809054906101000a900473ffffffffffffffffffffffffffffffffffffffff1673ffffffffffffffffffffffffffffffffffffffff1663c5323de533836040518363ffffffff167c0100000000000000000000000000000000000000000000000000000000028152600401808373ffffffffffffffffffffffffffffffffffffffff1673ffffffffffffffffffffffffffffffffffffffff1681526020018273ffffffffffffffffffffffffffffffffffffffff1673ffffffffffffffffffffffffffffffffffffffff16815260200192505050600060405180830381600087803b158015612c1157600080fd5b505af1158015612c25573d6000803e3d6000fd5b5050505050565b678ac7230489e8000081565b670de0b6b3a764000081565b600080612c5033613788565b91508186868686604051602001808660ff1660ff167f01000000000000000000000000000000000000000000000000000000000000000281526001018573ffffffffffffffffffffffffffffffffffffffff1673ffffffffffffffffffffffffffffffffffffffff166c010000000000000000000000000281526014018484808284378201915050828152602001955050505050506040516020818303038152906040526040518082805190602001908083835b602083101515612d295780518252602082019150602081019050602083039250612d04565b6001836020036101000a0380198251168184511680821785525050505050509050019150506040518091039020905060408051908101604052803373ffffffffffffffffffffffffffffffffffffffff1681526020016001151581525060036000836000191660001916815260200190815260200160002060008201518160000160006101000a81548173ffffffffffffffffffffffffffffffffffffffff021916908373ffffffffffffffffffffffffffffffffffffffff16021790555060208201518160000160146101000a81548160ff0219169083151502179055509050507f3ed01f2c3fc24c6b329d931e35b03e390d23497d22b3f90e15b600343e93df118287878787604051808660ff1660ff1681526020018573ffffffffffffffffffffffffffffffffffffffff1673ffffffffffffffffffffffffffffffffffffffff1681526020018060200183815260200182810382528585828181526020019250808284378201915050965050505050505060405180910390a1505050505050565b6000612eb8612a5a565b1515612f52576040517f08c379a00000000000000000000000000000000000000000000000000000000081526004018080602001828103825260258152602001807f436f6e74726163742069732063757272656e746c79206e6f74206f706572617481526020017f696f6e616c00000000000000000000000000000000000000000000000000000081525060400191505060405180910390fd5b856000809054906101000a900473ffffffffffffffffffffffffffffffffffffffff1673ffffffffffffffffffffffffffffffffffffffff16630e248a11826040518263ffffffff167c0100000000000000000000000000000000000000000000000000000000028152600401808273ffffffffffffffffffffffffffffffffffffffff1673ffffffffffffffffffffffffffffffffffffffff168152602001915050602060405180830381600087803b15801561300f57600080fd5b505af1158015613023573d6000803e3d6000fd5b505050506040513d602081101561303957600080fd5b810190808051906020019092919050505015156130e4576040517f08c379a000000000000000000000000000000000000000000000000000000000815260040180806020018281038252602e8152602001807f4169726c696e652073686f756c6420626520612072656769737465726564206181526020017f69726c696e6520666c696768742e00000000000000000000000000000000000081525060400191505060405180910390fd5b8686868080601f016020809104026020016040519081016040528093929190818152602001838380828437820191505050505050856000809054906101000a900473ffffffffffffffffffffffffffffffffffffffff1673ffffffffffffffffffffffffffffffffffffffff1663e6143d958484846040518463ffffffff167c0100000000000000000000000000000000000000000000000000000000028152600401808473ffffffffffffffffffffffffffffffffffffffff1673ffffffffffffffffffffffffffffffffffffffff16815260200180602001838152602001828103825284818151815260200191508051906020019080838360005b838110156131fc5780820151818401526020810190506131e1565b50505050905090810190601f1680156132295780820380516001836020036101000a031916815260200191505b50945050505050602060405180830381600087803b15801561324a57600080fd5b505af115801561325e573d6000803e3d6000fd5b505050506040513d602081101561327457600080fd5b8101908080519060200190929190505050151561331f576040517f08c379a00000000000000000000000000000000000000000000000000000000081526004018080602001828103825260238152602001807f466c696768742073686f756c64206265207265676973746572656420666c696781526020017f68742e000000000000000000000000000000000000000000000000000000000081525060400191505060405180910390fd5b6000809054906101000a900473ffffffffffffffffffffffffffffffffffffffff1673ffffffffffffffffffffffffffffffffffffffff1663f92e0ecc8b8b8b8b8b6040518663ffffffff167c0100000000000000000000000000000000000000000000000000000000028152600401808673ffffffffffffffffffffffffffffffffffffffff1673ffffffffffffffffffffffffffffffffffffffff168152602001806020018481526020018373ffffffffffffffffffffffffffffffffffffffff1673ffffffffffffffffffffffffffffffffffffffff168152602001828103825286868281815260200192508082843782019150509650505050505050602060405180830381600087803b15801561343957600080fd5b505af115801561344d573d6000803e3d6000fd5b505050506040513d602081101561346357600080fd5b810190808051906020019092919050505094505050505095945050505050565b61348b6138ea565b6134936138ea565b61349c83613788565b8160006003811015156134ab57fe5b602002019060ff16908160ff16815250508060006003811015156134cb57fe5b60200201518160016003811015156134df57fe5b602002019060ff16908160ff16815250505b80600060038110151561350057fe5b602002015160ff1681600160038110151561351757fe5b602002015160ff1614156135535761352e83613788565b81600160038110151561353d57fe5b602002019060ff16908160ff16815250506134f1565b80600160038110151561356257fe5b602002015181600260038110151561357657fe5b602002019060ff16908160ff16815250505b80600060038110151561359757fe5b602002015160ff168160026003811015156135ae57fe5b602002015160ff1614806135ed57508060016003811015156135cc57fe5b602002015160ff168160026003811015156135e357fe5b602002015160ff16145b15613620576135fb83613788565b81600260038110151561360a57fe5b602002019060ff16908160ff1681525050613588565b80915050919050565b601460ff168160ff161415613782576000809054906101000a900473ffffffffffffffffffffffffffffffffffffffff1673ffffffffffffffffffffffffffffffffffffffff1663c8820a708585856040518463ffffffff167c0100000000000000000000000000000000000000000000000000000000028152600401808473ffffffffffffffffffffffffffffffffffffffff1673ffffffffffffffffffffffffffffffffffffffff16815260200180602001838152602001828103825284818151815260200191508051906020019080838360005b8381101561371b578082015181840152602081019050613700565b50505050905090810190601f1680156137485780820380516001836020036101000a031916815260200191505b50945050505050600060405180830381600087803b15801561376957600080fd5b505af115801561377d573d6000803e3d6000fd5b505050505b50505050565b6000806000600a91508160ff166001601481819054906101000a900460ff168092919060010191906101000a81548160ff021916908360ff16021790555060ff16430340856040516020018083600019166000191681526020018273ffffffffffffffffffffffffffffffffffffffff1673ffffffffffffffffffffffffffffffffffffffff166c01000000000000000000000000028152601401925050506040516020818303038152906040526040518082805190602001908083835b60208310151561386b5780518252602082019150602081019050602083039250613846565b6001836020036101000a0380198251168184511680821785525050505050509050019150506040518091039020600190048115156138a557fe5b06905060fa600160149054906101000a900460ff1660ff1611156138e0576000600160146101000a81548160ff021916908360ff1602179055505b8092505050919050565b606060405190810160405280600390602082028038833980820191505090505090565b826003601f016020900481019282156139965791602002820160005b8382111561396757835183826101000a81548160ff021916908360ff1602179055509260200192600101602081600001049283019260010302613929565b80156139945782816101000a81549060ff0219169055600101602081600001049283019260010302613967565b505b5090506139a391906139a7565b5090565b6139d491905b808211156139d057600081816101000a81549060ff0219169055506001016139ad565b5090565b905600a165627a7a7230582096356bf580ce56223e66dcd48d4f91272206322aef4175f1171c3923edc1ed330029",
  "source": "pragma solidity ^0.4.25;\n\n// It's important to avoid vulnerabilities due to numeric overflow bugs\n// OpenZeppelin's SafeMath library, when used correctly, protects agains such bugs\n// More info: https://www.nccgroup.trust/us/about-us/newsroom-and-events/blog/2018/november/smart-contract-insecurity-bad-arithmetic/\n\nimport \"../node_modules/openzeppelin-solidity/contracts/math/SafeMath.sol\";\n\n/************************************************** */\n/* FlightSurety Smart Contract                      */\n/************************************************** */\ncontract FlightSuretyApp {\n    using SafeMath for uint256; // Allow SafeMath functions to be called for all uint256 types (similar to \"prototype\" in Javascript)\n\n    FlightSuretyData flightSuretyData;\n\n    /********************************************************************************************/\n    /*                                       DATA VARIABLES                                     */\n    /********************************************************************************************/\n\n    // Flight status codees\n    uint8 private constant STATUS_CODE_UNKNOWN = 0;\n    uint8 private constant STATUS_CODE_ON_TIME = 10;\n    uint8 private constant STATUS_CODE_LATE_AIRLINE = 20;\n    uint8 private constant STATUS_CODE_LATE_WEATHER = 30;\n    uint8 private constant STATUS_CODE_LATE_TECHNICAL = 40;\n    uint8 private constant STATUS_CODE_LATE_OTHER = 50;\n\n    address private contractOwner;          // Account used to deploy contract\n\n    uint256 public constant AIRLINE_REGISTRATION_FEE = 10 ether;\n    uint256 public constant MAX_INSURANCE_AMOUNT = 1 ether;\n\n    /********************************************************************************************/\n    /*                                       FUNCTION MODIFIERS                                 */\n    /********************************************************************************************/\n\n    // Modifiers help avoid duplication of code. They are typically used to validate something\n    // before a function is allowed to be executed.\n\n    /**\n    * @dev Modifier that requires the \"operational\" boolean variable to be \"true\"\n    *      This is used on all state changing functions to pause the contract in \n    *      the event there is an issue that needs to be fixed\n    */\n    modifier requireIsOperational() \n    {\n         // Modify to call data contract's status\n        require(isOperational(), \"Contract is currently not operational\");  \n        _;  // All modifiers require an \"_\" which indicates where the function body will be added\n    }\n\n    /**\n    * @dev Modifier that requires the \"ContractOwner\" account to be the function caller.\n    */\n    modifier requireContractOwner()\n    {\n        require(msg.sender == contractOwner, \"Caller is not contract owner\");\n        _;\n    }\n\n    /**\n    * @dev Modifier that requires registration amount to be atleast 10 ETH.\n    */\n    modifier require10ETH(uint amount) \n    {\n        require(amount >= AIRLINE_REGISTRATION_FEE, \"Airline Registration fee is 10 ether.\");\n        _;\n    }\n\n    /**\n    * @dev Modifier that requires that airline has been voted in by other registered airlines\n    *   to be considered cleared for funding.\n    */\n    modifier requireAirlineClearedForFunding(address airline) \n    {\n        require(flightSuretyData.isAirlineClearedForFunding(airline), \"Airline should be cleared for funding\");\n        _;\n    }\n\n    /**\n    * @dev Modifier that requires airline to be registered.\n    */\n    modifier requireReqisteredAirline  (\n                                            address airline\n                                        ) \n    {\n        require(flightSuretyData.isAirline(airline), \"Airline should be a registered airline flight.\");\n        _;\n    }\n\n    /**\n    * @dev Modifier that requires flight to be registered.\n    */\n    modifier requireReqisteredFlight   (\n                                            address airline,\n                                            string flight,\n                                            uint256 timestamp\n                                        )\n    {  \n        require(flightSuretyData.isFlight(airline, flight, timestamp), \"Flight should be registered flight.\");\n        _;\n    }\n\n    /**\n    * @dev Modifier that requires flight to be unregistered.\n    */\n    modifier requireUnreqisteredFlight   (\n                                            address airline,\n                                            string flight,\n                                            uint256 timestamp\n                                        )\n    {  \n        require(flightSuretyData.isFlight(airline, flight, timestamp) == false, \"Flight should not be registered flight.\");\n        _;\n    }\n\n    /**\n    * @dev Modifier that requires passenger to be uninsured.\n    */\n    modifier requireUninsured   (\n                                    address airline,\n                                    string flight,\n                                    uint256 timestamp,\n                                    address passenger\n                                )\n    {  \n        require(flightSuretyData.isInsured(airline, flight, timestamp, passenger) == false, \"Passenger should not be insured.\");\n        _;\n    }\n\n    /**\n    * @dev Modifier that requires insurance amount to be at most 1ETH.\n    */\n    modifier requireInsuranceAmount (\n                                        uint256 amount\n                                    )\n    {  \n        require(amount > 0 && amount <= MAX_INSURANCE_AMOUNT, \"Max insurance amount is 1 ETH.\");\n        _;\n    }\n\n    /**\n    * @dev Modifier that requires user to have payout amount.\n    */\n    modifier requirePayoutAmount    (\n                                        address passenger\n                                    )\n    {  \n        require(flightSuretyData.getPayoutBalance(passenger) > 0, \"Passenger should have a payout amount.\");\n        _;\n    }\n\n    /********************************************************************************************/\n    /*                                       CONSTRUCTOR                                        */\n    /********************************************************************************************/\n\n    /**\n    * @dev Contract constructor\n    *\n    */\n    constructor\n                                (\n                                    address dataContract\n                                )\n                                public \n    {\n        contractOwner = msg.sender;\n        flightSuretyData = FlightSuretyData(dataContract);\n    }\n\n    /********************************************************************************************/\n    /*                                       UTILITY FUNCTIONS                                  */\n    /********************************************************************************************/\n\n    function isOperational() \n                            public \n                            view \n                            returns(bool) \n    {\n        return flightSuretyData.isOperational();\n    }\n\n    /********************************************************************************************/\n    /*                                     SMART CONTRACT FUNCTIONS                             */\n    /********************************************************************************************/\n\n  \n    /**\n    * @dev Add an airline to the registration queue.\n    *\n    */   \n    function registerAirline\n                            (   \n                                address newAirline\n                            )\n                            public\n    {\n        flightSuretyData.registerAirline(msg.sender, newAirline);\n    }\n\n    /**\n    * @dev Vote an airline. Voters need to registered airlines.\n    *\n    */ \n    function voteAirline\n                            (\n                                address newAirline\n                            ) \n                            external\n    {\n        flightSuretyData.voteAirline(msg.sender, newAirline);\n    }\n\n    /**\n    * @dev Fund an airline.\n    *\n    */ \n    function fund\n                            (\n                            )\n                            public\n                            payable\n                            requireIsOperational\n                            require10ETH(msg.value)\n                            requireAirlineClearedForFunding(msg.sender)\n    {\n\n        address(flightSuretyData).transfer(msg.value);\n\n        flightSuretyData.fundAirline(msg.sender);\n    }\n\n    /**\n    * @dev Get balance.\n    *\n    */ \n    function getBalance()\n                        public\n                        view\n                        requireIsOperational\n                        requireContractOwner\n                        returns (uint256) \n    {\n        return address(flightSuretyData).balance;\n    }\n\n    /**\n    * @dev Returns an array of boolean and number that indicates if the airline has been added,\n    *       voted in, funded, registered and the number of votes it still needs.\n    */ \n    function getAirlineStatusInfo(address airline)\n                        external\n                        view\n                        returns (bool added, bool voted, bool funded, bool registered, uint256 votesNeeded) {\n        return flightSuretyData.getAirlineStatusInfo(airline);\n    }\n\n   /**\n    * @dev Register a future flight for insuring.\n    *\n    */  \n    function registerFlight\n                                (\n                                    address airline,\n                                    string flight,\n                                    uint256 timestamp\n                                )\n                                external\n                                requireReqisteredAirline(airline)\n                                requireUnreqisteredFlight(airline, flight, timestamp)\n    {\n        flightSuretyData.registerFlight(airline, flight, timestamp, true /*isRegistered*/, STATUS_CODE_UNKNOWN /*statusCode*/);\n    }\n\n    /**\n    * @dev Buy flight insurance\n    *\n    */ \n    function buyInsurance\n                            (\n                                address airline,\n                                string flight,\n                                uint256 timestamp\n                            )\n                            external\n                            payable\n                            requireIsOperational\n                            requireReqisteredAirline(airline)\n                            requireReqisteredFlight(airline, flight, timestamp)\n                            requireUninsured(airline, flight, timestamp, msg.sender)\n                            requireInsuranceAmount(msg.value)\n    {\n        address(flightSuretyData).transfer(msg.value);\n\n        // automatically registers the buyer as registered user if not registered.\n        flightSuretyData.buy(msg.sender, airline, flight, timestamp, msg.value);\n    }\n    \n    /**\n    * @dev Returns true if insuree is insured for particular airline, flight and timestamp.\n    *       Otherwise, returns false.\n    *\n    */ \n    function isInsured  (\n                            address airline,\n                            string flight,\n                            uint256 timestamp,\n                            address insuree\n                        )\n                        external\n                        view\n                        requireIsOperational\n                        requireReqisteredAirline(airline)\n                        requireReqisteredFlight(airline, flight, timestamp)\n                        returns(bool)\n    {\n        return flightSuretyData.isInsured(airline, flight, timestamp, insuree);\n    }\n\n    /**\n    * @dev Credits passengers who purchased insurance.\n    *\n    */ \n    function creditInsurees (\n                                address airline,\n                                string flight,\n                                uint256 timestamp\n                            )\n                            internal\n                            view\n    {\n        require(flightSuretyData.isAirline(airline), \"Airline should be a registered airline\");\n        require(flightSuretyData.isFlight(airline, flight, timestamp), \"Flight should be registered\");\n\n        flightSuretyData.creditInsurees(airline, flight, timestamp);\n    }\n\n    /**\n    * @dev Pays and transfers insurance payout to passenger.\n    *\n    * This should be instantiated by the user/passenger.\n    */ \n    function payInsuree\n                        (\n                        )\n                        requirePayoutAmount(msg.sender)\n                        external\n    {\n        require(msg.sender != address(0), \"Passenger address should be valid address\");\n        require(flightSuretyData.isUser(msg.sender), \"Passenger should be registered\");\n\n        // Get amount of payout\n        uint256 payout = flightSuretyData.getPayoutBalance(msg.sender);\n\n        // transfer the amount to the insuree\n        address(flightSuretyData).transfer(payout);\n        \n        // Mark insuree as paid\n        flightSuretyData.pay(msg.sender);\n    }\n\n   /**\n    * @dev Called after oracle has updated flight status\n    *\n    */  \n    function processFlightStatus\n                                (\n                                    address airline,\n                                    string memory flight,\n                                    uint256 timestamp,\n                                    uint8 statusCode\n                                )\n                                internal\n                                view\n    {\n        // LATE is the only status we process for now.\n        if (statusCode == STATUS_CODE_LATE_AIRLINE) {\n            // Credit passengers who bought insurance for particular airline and flight.\n            flightSuretyData.creditInsurees(airline, flight, timestamp);\n        }\n    }\n\n\n    // Generate a request for oracles to fetch flight information\n    function fetchFlightStatus\n                        (\n                            address airline,\n                            string flight,\n                            uint256 timestamp                            \n                        )\n                        external\n    {\n        uint8 index = getRandomIndex(msg.sender);\n\n        // Generate a unique key for storing the request\n        bytes32 key = keccak256(abi.encodePacked(index, airline, flight, timestamp));\n        oracleResponses[key] = ResponseInfo({\n                                                requester: msg.sender,\n                                                isOpen: true\n                                            });\n\n        emit OracleRequest(index, airline, flight, timestamp);\n    } \n\n\n// region ORACLE MANAGEMENT\n\n    // Incremented to add pseudo-randomness at various points\n    uint8 private nonce = 0;    \n\n    // Fee to be paid when registering oracle\n    uint256 public constant REGISTRATION_FEE = 1 ether;\n\n    // Number of oracles that must respond for valid status\n    uint256 private constant MIN_RESPONSES = 3;\n\n\n    struct Oracle {\n        bool isRegistered;\n        uint8[3] indexes;        \n    }\n\n    // Track all registered oracles\n    mapping(address => Oracle) private oracles;\n\n    // Model for responses from oracles\n    struct ResponseInfo {\n        address requester;                              // Account that requested status\n        bool isOpen;                                    // If open, oracle responses are accepted\n        mapping(uint8 => address[]) responses;          // Mapping key is the status code reported\n                                                        // This lets us group responses and identify\n                                                        // the response that majority of the oracles\n    }\n\n    // Track all oracle responses\n    // Key = hash(index, flight, timestamp)\n    mapping(bytes32 => ResponseInfo) private oracleResponses;\n\n    // Event fired each time an oracle submits a response\n    event FlightStatusInfo(address airline, string flight, uint256 timestamp, uint8 status);\n\n    event OracleReport(address airline, string flight, uint256 timestamp, uint8 status);\n\n    // Event fired when flight status request is submitted\n    // Oracles track this and if they have a matching index\n    // they fetch data and submit a response\n    event OracleRequest(uint8 index, address airline, string flight, uint256 timestamp);\n\n\n    // Register an oracle with the contract\n    function registerOracle\n                            (\n                            )\n                            external\n                            payable\n    {\n        // Require registration fee\n        require(msg.value >= REGISTRATION_FEE, \"Registration fee is required\");\n\n        uint8[3] memory indexes = generateIndexes(msg.sender);\n\n        oracles[msg.sender] = Oracle({\n                                        isRegistered: true,\n                                        indexes: indexes\n                                    });\n    }\n\n    function getMyIndexes\n                            (\n                            )\n                            view\n                            external\n                            returns(uint8[3])\n    {\n        require(oracles[msg.sender].isRegistered, \"Not registered as an oracle\");\n\n        return oracles[msg.sender].indexes;\n    }\n\n\n\n\n    // Called by oracle when a response is available to an outstanding request\n    // For the response to be accepted, there must be a pending request that is open\n    // and matches one of the three Indexes randomly assigned to the oracle at the\n    // time of registration (i.e. uninvited oracles are not welcome)\n    function submitOracleResponse\n                        (\n                            uint8 index,\n                            address airline,\n                            string flight,\n                            uint256 timestamp,\n                            uint8 statusCode\n                        )\n                        external\n    {\n        require((oracles[msg.sender].indexes[0] == index) || (oracles[msg.sender].indexes[1] == index) || (oracles[msg.sender].indexes[2] == index), \"Index does not match oracle request\");\n\n\n        bytes32 key = keccak256(abi.encodePacked(index, airline, flight, timestamp)); \n        require(oracleResponses[key].isOpen, \"Flight or timestamp do not match oracle request\");\n\n        oracleResponses[key].responses[statusCode].push(msg.sender);\n\n        // Information isn't considered verified until at least MIN_RESPONSES\n        // oracles respond with the *** same *** information\n        emit OracleReport(airline, flight, timestamp, statusCode);\n        if (oracleResponses[key].responses[statusCode].length >= MIN_RESPONSES) {\n\n            emit FlightStatusInfo(airline, flight, timestamp, statusCode);\n\n            // Handle flight status as appropriate\n            processFlightStatus(airline, flight, timestamp, statusCode);\n        }\n    }\n\n    // Returns array of three non-duplicating integers from 0-9\n    function generateIndexes\n                            (                       \n                                address account         \n                            )\n                            internal\n                            returns(uint8[3])\n    {\n        uint8[3] memory indexes;\n        indexes[0] = getRandomIndex(account);\n        \n        indexes[1] = indexes[0];\n        while(indexes[1] == indexes[0]) {\n            indexes[1] = getRandomIndex(account);\n        }\n\n        indexes[2] = indexes[1];\n        while((indexes[2] == indexes[0]) || (indexes[2] == indexes[1])) {\n            indexes[2] = getRandomIndex(account);\n        }\n\n        return indexes;\n    }\n\n    // Returns array of three non-duplicating integers from 0-9\n    function getRandomIndex\n                            (\n                                address account\n                            )\n                            internal\n                            returns (uint8)\n    {\n        uint8 maxValue = 10;\n\n        // Pseudo random number...the incrementing nonce adds variation\n        uint8 random = uint8(uint256(keccak256(abi.encodePacked(blockhash(block.number - nonce++), account))) % maxValue);\n\n        if (nonce > 250) {\n            nonce = 0;  // Can only fetch blockhashes for last 256 blocks so we adapt\n        }\n\n        return random;\n    }\n\n// endregion\n\n}   \n\ncontract FlightSuretyData {\n    function isOperational() public view returns(bool);\n    function getNextRequiredConsensusCount() public view returns(uint256);\n    // Airline\n    function voteAirline(address airline, address newAirline) external;\n    function fundAirline(address airline) external;\n    // - helpers\n    function isAirlineClearedForFunding (address airline) external view returns (bool);\n    function isAirline(address newAirline) external view returns(bool);\n    function registerAirline(address airline, address newAirline) public;\n    function needsRegisteredAirline () external view returns(bool);\n    function hasVotedForAirline(address airline, address newAirline) external view returns(bool);\n    function getAirlineStatusInfo(address airline) external view returns(bool added, bool voted, bool funded, bool registered, uint256 votesNeeded);\n    // Flight\n    function registerFlight(address airline, string flight, uint256 timestamp, bool isRegistered, uint8 statusCode) external;\n    // - helpers\n    function isFlight(address airline, string flight, uint256 timestamp) external view returns (bool);\n    // User\n    function buy(address insuree, address airline, string flight, uint256 timestamp, uint256 amount) external;\n    function pay(address insuree) external;\n    // - helpers\n    function isUser(address passenger) external view returns (bool);\n    function isInsured(address airline, string flight, uint256 timestamp, address insuree) external view returns(bool insured);\n    function creditInsurees(address airline, string flight, uint256 timestamp) external view;\n    function getPayoutBalance(address insuree) external view returns(uint256);\n}",
  "sourcePath": "/Users/chitambars/udacity/github/udacity-flight-surety/contracts/FlightSuretyApp.sol",
  "compiler": {
    "name": "solc",
    "version": "0.4.26+commit.4563c3fc.Emscripten.clang"
  },
  "schemaVersion": "3.3.3",
  "updatedAt": "2021-01-21T00:19:47.199Z",
  "devdoc": {
    "methods": {
      "buyInsurance(address,string,uint256)": {
        "details": "Buy flight insurance    "
      },
      "fund()": {
        "details": "Fund an airline.    "
      },
      "getAirlineStatusInfo(address)": {
        "details": "Returns an array of boolean and number that indicates if the airline has been added,      voted in, funded, registered and the number of votes it still needs."
      },
      "getBalance()": {
        "details": "Get balance.    "
      },
      "isInsured(address,string,uint256,address)": {
        "details": "Returns true if insuree is insured for particular airline, flight and timestamp.      Otherwise, returns false.    "
      },
      "payInsuree()": {
        "details": "Pays and transfers insurance payout to passenger.    * This should be instantiated by the user/passenger."
      },
      "registerAirline(address)": {
        "details": "Add an airline to the registration queue.    "
      },
      "registerFlight(address,string,uint256)": {
        "details": "Register a future flight for insuring.    "
      },
      "voteAirline(address)": {
        "details": "Vote an airline. Voters need to registered airlines.    "
      }
    }
  },
  "userdoc": {
    "methods": {
      "isOperational()": {
        "notice": "*****************************************************************************************"
      }
    }
  }
}