{
  "contractName": "FlightSuretyData",
  "abi": [
    {
      "inputs": [
        {
          "name": "firstAirline",
          "type": "address"
        }
      ],
      "payable": false,
      "stateMutability": "nonpayable",
      "type": "constructor"
    },
    {
      "payable": true,
      "stateMutability": "payable",
      "type": "fallback"
    },
    {
      "constant": true,
      "inputs": [],
      "name": "isOperational",
      "outputs": [
        {
          "name": "",
          "type": "bool"
        }
      ],
      "payable": false,
      "stateMutability": "view",
      "type": "function"
    },
    {
      "constant": false,
      "inputs": [
        {
          "name": "mode",
          "type": "bool"
        }
      ],
      "name": "setOperatingStatus",
      "outputs": [],
      "payable": false,
      "stateMutability": "nonpayable",
      "type": "function"
    },
    {
      "constant": false,
      "inputs": [
        {
          "name": "testing_mode",
          "type": "bool"
        }
      ],
      "name": "setTestingMode",
      "outputs": [],
      "payable": false,
      "stateMutability": "nonpayable",
      "type": "function"
    },
    {
      "constant": false,
      "inputs": [
        {
          "name": "contractAddress",
          "type": "address"
        }
      ],
      "name": "authorizeCaller",
      "outputs": [],
      "payable": false,
      "stateMutability": "nonpayable",
      "type": "function"
    },
    {
      "constant": false,
      "inputs": [
        {
          "name": "contractAddress",
          "type": "address"
        }
      ],
      "name": "deauthorizeCaller",
      "outputs": [],
      "payable": false,
      "stateMutability": "nonpayable",
      "type": "function"
    },
    {
      "constant": true,
      "inputs": [],
      "name": "getNextRequiredConsensusCount",
      "outputs": [
        {
          "name": "",
          "type": "uint256"
        }
      ],
      "payable": false,
      "stateMutability": "view",
      "type": "function"
    },
    {
      "constant": true,
      "inputs": [],
      "name": "getBalance",
      "outputs": [
        {
          "name": "",
          "type": "uint256"
        }
      ],
      "payable": false,
      "stateMutability": "view",
      "type": "function"
    },
    {
      "constant": true,
      "inputs": [],
      "name": "getRegisteredAirlinesCount",
      "outputs": [
        {
          "name": "",
          "type": "uint256"
        }
      ],
      "payable": false,
      "stateMutability": "view",
      "type": "function"
    },
    {
      "constant": true,
      "inputs": [
        {
          "name": "newAirline",
          "type": "address"
        }
      ],
      "name": "isAirline",
      "outputs": [
        {
          "name": "",
          "type": "bool"
        }
      ],
      "payable": false,
      "stateMutability": "view",
      "type": "function"
    },
    {
      "constant": true,
      "inputs": [
        {
          "name": "airline",
          "type": "address"
        },
        {
          "name": "flight",
          "type": "string"
        },
        {
          "name": "timestamp",
          "type": "uint256"
        }
      ],
      "name": "isFlight",
      "outputs": [
        {
          "name": "",
          "type": "bool"
        }
      ],
      "payable": false,
      "stateMutability": "view",
      "type": "function"
    },
    {
      "constant": true,
      "inputs": [
        {
          "name": "passenger",
          "type": "address"
        }
      ],
      "name": "isUser",
      "outputs": [
        {
          "name": "",
          "type": "bool"
        }
      ],
      "payable": false,
      "stateMutability": "view",
      "type": "function"
    },
    {
      "constant": true,
      "inputs": [
        {
          "name": "airline",
          "type": "address"
        }
      ],
      "name": "isAirlineClearedForFunding",
      "outputs": [
        {
          "name": "",
          "type": "bool"
        }
      ],
      "payable": false,
      "stateMutability": "view",
      "type": "function"
    },
    {
      "constant": true,
      "inputs": [
        {
          "name": "airline",
          "type": "address"
        }
      ],
      "name": "getAirlineStatusInfo",
      "outputs": [
        {
          "name": "added",
          "type": "bool"
        },
        {
          "name": "voted",
          "type": "bool"
        },
        {
          "name": "funded",
          "type": "bool"
        },
        {
          "name": "registered",
          "type": "bool"
        },
        {
          "name": "votesNeeded",
          "type": "uint256"
        }
      ],
      "payable": false,
      "stateMutability": "view",
      "type": "function"
    },
    {
      "constant": true,
      "inputs": [
        {
          "name": "insuree",
          "type": "address"
        }
      ],
      "name": "getPayoutBalance",
      "outputs": [
        {
          "name": "",
          "type": "uint256"
        }
      ],
      "payable": false,
      "stateMutability": "view",
      "type": "function"
    },
    {
      "constant": true,
      "inputs": [
        {
          "name": "airline",
          "type": "address"
        },
        {
          "name": "flight",
          "type": "string"
        },
        {
          "name": "timestamp",
          "type": "uint256"
        },
        {
          "name": "insuree",
          "type": "address"
        }
      ],
      "name": "isInsured",
      "outputs": [
        {
          "name": "",
          "type": "bool"
        }
      ],
      "payable": false,
      "stateMutability": "view",
      "type": "function"
    },
    {
      "constant": true,
      "inputs": [
        {
          "name": "airline",
          "type": "address"
        },
        {
          "name": "flight",
          "type": "string"
        },
        {
          "name": "timestamp",
          "type": "uint256"
        },
        {
          "name": "insuree",
          "type": "address"
        }
      ],
      "name": "getInsuredAmount",
      "outputs": [
        {
          "name": "",
          "type": "uint256"
        }
      ],
      "payable": false,
      "stateMutability": "view",
      "type": "function"
    },
    {
      "constant": false,
      "inputs": [
        {
          "name": "airline",
          "type": "address"
        },
        {
          "name": "newAirline",
          "type": "address"
        }
      ],
      "name": "registerAirline",
      "outputs": [],
      "payable": false,
      "stateMutability": "nonpayable",
      "type": "function"
    },
    {
      "constant": true,
      "inputs": [],
      "name": "needsRegisteredAirline",
      "outputs": [
        {
          "name": "",
          "type": "bool"
        }
      ],
      "payable": false,
      "stateMutability": "view",
      "type": "function"
    },
    {
      "constant": false,
      "inputs": [
        {
          "name": "airline",
          "type": "address"
        },
        {
          "name": "newAirline",
          "type": "address"
        }
      ],
      "name": "voteAirline",
      "outputs": [],
      "payable": false,
      "stateMutability": "nonpayable",
      "type": "function"
    },
    {
      "constant": true,
      "inputs": [
        {
          "name": "airline",
          "type": "address"
        },
        {
          "name": "newAirline",
          "type": "address"
        }
      ],
      "name": "hasVotedForAirline",
      "outputs": [
        {
          "name": "",
          "type": "bool"
        }
      ],
      "payable": false,
      "stateMutability": "view",
      "type": "function"
    },
    {
      "constant": false,
      "inputs": [
        {
          "name": "airline",
          "type": "address"
        }
      ],
      "name": "fundAirline",
      "outputs": [],
      "payable": false,
      "stateMutability": "nonpayable",
      "type": "function"
    },
    {
      "constant": true,
      "inputs": [
        {
          "name": "airline",
          "type": "address"
        }
      ],
      "name": "getAirlineFlightKeysCount",
      "outputs": [
        {
          "name": "",
          "type": "uint256"
        }
      ],
      "payable": false,
      "stateMutability": "view",
      "type": "function"
    },
    {
      "constant": true,
      "inputs": [
        {
          "name": "airline",
          "type": "address"
        },
        {
          "name": "index",
          "type": "uint256"
        }
      ],
      "name": "getAirlineFlightKey",
      "outputs": [
        {
          "name": "",
          "type": "bytes32"
        }
      ],
      "payable": false,
      "stateMutability": "view",
      "type": "function"
    },
    {
      "constant": true,
      "inputs": [
        {
          "name": "flightKey",
          "type": "bytes32"
        }
      ],
      "name": "getAirlineFlightInfo",
      "outputs": [
        {
          "name": "flight",
          "type": "string"
        },
        {
          "name": "timestamp",
          "type": "uint256"
        }
      ],
      "payable": false,
      "stateMutability": "view",
      "type": "function"
    },
    {
      "constant": false,
      "inputs": [
        {
          "name": "airline",
          "type": "address"
        },
        {
          "name": "flight",
          "type": "string"
        },
        {
          "name": "timestamp",
          "type": "uint256"
        },
        {
          "name": "isRegistered",
          "type": "bool"
        },
        {
          "name": "statusCode",
          "type": "uint8"
        }
      ],
      "name": "registerFlight",
      "outputs": [],
      "payable": false,
      "stateMutability": "nonpayable",
      "type": "function"
    },
    {
      "constant": false,
      "inputs": [
        {
          "name": "insuree",
          "type": "address"
        },
        {
          "name": "airline",
          "type": "address"
        },
        {
          "name": "flight",
          "type": "string"
        },
        {
          "name": "timestamp",
          "type": "uint256"
        },
        {
          "name": "amount",
          "type": "uint256"
        }
      ],
      "name": "buy",
      "outputs": [],
      "payable": true,
      "stateMutability": "payable",
      "type": "function"
    },
    {
      "constant": false,
      "inputs": [
        {
          "name": "insuree",
          "type": "address"
        }
      ],
      "name": "pay",
      "outputs": [],
      "payable": false,
      "stateMutability": "nonpayable",
      "type": "function"
    },
    {
      "constant": false,
      "inputs": [
        {
          "name": "airline",
          "type": "address"
        },
        {
          "name": "flight",
          "type": "string"
        },
        {
          "name": "timestamp",
          "type": "uint256"
        }
      ],
      "name": "creditInsurees",
      "outputs": [],
      "payable": false,
      "stateMutability": "nonpayable",
      "type": "function"
    },
    {
      "constant": false,
      "inputs": [],
      "name": "fund",
      "outputs": [],
      "payable": true,
      "stateMutability": "payable",
      "type": "function"
    }
  ],
  "bytecode": "0x60806040526001600060146101000a81548160ff02191690831515021790555060008060156101000a81548160ff02191690831515021790555060006040519080825280602002602001820160405280156200006a5781602001602082028038833980820191505090505b5060019080519060200190620000829291906200021e565b503480156200009057600080fd5b5060405160208062003c1483398101806040528101908080519060200190929190505050336000806101000a81548173ffffffffffffffffffffffffffffffffffffffff021916908373ffffffffffffffffffffffffffffffffffffffff160217905550606060405190810160405280600260ff16815260200160006040519080825280602002602001820160405280156200013b5781602001602082028038833980820191505090505b5081526020016000604051908082528060200260200182016040528015620001725781602001602082028038833980820191505090505b50815250600360008373ffffffffffffffffffffffffffffffffffffffff1673ffffffffffffffffffffffffffffffffffffffff16815260200190815260200160002060008201518160000160006101000a81548160ff021916908360ff1602179055506020820151816001019080519060200190620001f4929190620002ad565b506040820151816002019080519060200190620002139291906200033c565b509050505062000402565b8280548282559060005260206000209081019282156200029a579160200282015b82811115620002995782518260006101000a81548173ffffffffffffffffffffffffffffffffffffffff021916908373ffffffffffffffffffffffffffffffffffffffff160217905550916020019190600101906200023f565b5b509050620002a9919062000394565b5090565b82805482825590600052602060002090810192821562000329579160200282015b82811115620003285782518260006101000a81548173ffffffffffffffffffffffffffffffffffffffff021916908373ffffffffffffffffffffffffffffffffffffffff16021790555091602001919060010190620002ce565b5b50905062000338919062000394565b5090565b82805482825590600052602060002090810192821562000381579160200282015b82811115620003805782518290600019169055916020019190600101906200035d565b5b509050620003909190620003da565b5090565b620003d791905b80821115620003d357600081816101000a81549073ffffffffffffffffffffffffffffffffffffffff0219169055506001016200039b565b5090565b90565b620003ff91905b80821115620003fb576000816000905550600101620003e1565b5090565b90565b61380280620004126000396000f300608060405260043610610175576000357c0100000000000000000000000000000000000000000000000000000000900463ffffffff1680630c11dedd1461017f5780630e248a11146101c2578063110466ed1461021d57806312065fe01461024c5780631ce2ec1d146102775780632c388d5d146102d25780634207dde7146103155780634209fff11461034057806346c13df41461039b57806352bc8d301461041e578063596d7a68146104995780636873c21d146104c857806369e65f781461050b5780636fbb87981461053a578063b60d42881461057d578063c5323de514610587578063c7ba5018146105ea578063c8820a701461064d578063cd905dff146106b2578063cf61750a146106e1578063cf90cc4414610792578063d304dabf14610814578063d944b46d14610892578063e6143d95146108fb578063e6f574d214610978578063e7ea7fa5146109cf578063ee82a49a14610a26578063f77890ea14610abf578063f92e0ecc14610aea575b61017d610b87565b005b34801561018b57600080fd5b506101c0600480360381019080803573ffffffffffffffffffffffffffffffffffffffff169060200190929190505050610b89565b005b3480156101ce57600080fd5b50610203600480360381019080803573ffffffffffffffffffffffffffffffffffffffff169060200190929190505050610cdb565b604051808215151515815260200191505060405180910390f35b34801561022957600080fd5b5061024a600480360381019080803515159060200190929190505050610d3d565b005b34801561025857600080fd5b506102616110e3565b6040518082815260200191505060405180910390f35b34801561028357600080fd5b506102b8600480360381019080803573ffffffffffffffffffffffffffffffffffffffff16906020019092919050505061126f565b604051808215151515815260200191505060405180910390f35b3480156102de57600080fd5b50610313600480360381019080803573ffffffffffffffffffffffffffffffffffffffff1690602001909291905050506112d1565b005b34801561032157600080fd5b5061032a6113dd565b6040518082815260200191505060405180910390f35b34801561034c57600080fd5b50610381600480360381019080803573ffffffffffffffffffffffffffffffffffffffff16906020019092919050505061141b565b604051808215151515815260200191505060405180910390f35b3480156103a757600080fd5b506103dc600480360381019080803573ffffffffffffffffffffffffffffffffffffffff169060200190929190505050611474565b60405180861515151581526020018515151515815260200184151515158152602001831515151581526020018281526020019550505050505060405180910390f35b34801561042a57600080fd5b5061047f600480360381019080803573ffffffffffffffffffffffffffffffffffffffff169060200190929190803573ffffffffffffffffffffffffffffffffffffffff169060200190929190505050611517565b604051808215151515815260200191505060405180910390f35b3480156104a557600080fd5b506104c66004803603810190808035151590602001909291905050506115f1565b005b3480156104d457600080fd5b50610509600480360381019080803573ffffffffffffffffffffffffffffffffffffffff1690602001909291905050506116b8565b005b34801561051757600080fd5b506105206117c2565b604051808215151515815260200191505060405180910390f35b34801561054657600080fd5b5061057b600480360381019080803573ffffffffffffffffffffffffffffffffffffffff1690602001909291905050506117d2565b005b610585610b87565b005b34801561059357600080fd5b506105e8600480360381019080803573ffffffffffffffffffffffffffffffffffffffff169060200190929190803573ffffffffffffffffffffffffffffffffffffffff1690602001909291905050506118f2565b005b3480156105f657600080fd5b5061064b600480360381019080803573ffffffffffffffffffffffffffffffffffffffff169060200190929190803573ffffffffffffffffffffffffffffffffffffffff169060200190929190505050611e73565b005b34801561065957600080fd5b506106b0600480360381019080803573ffffffffffffffffffffffffffffffffffffffff1690602001909291908035906020019082018035906020019190919293919293908035906020019092919050505061259c565b005b3480156106be57600080fd5b506106c76127b2565b604051808215151515815260200191505060405180910390f35b3480156106ed57600080fd5b5061071060048036038101908080356000191690602001909291905050506127c8565b6040518080602001838152602001828103825284818151815260200191508051906020019080838360005b8381101561075657808201518184015260208101905061073b565b50505050905090810190601f1680156107835780820380516001836020036101000a031916815260200191505b50935050505060405180910390f35b610812600480360381019080803573ffffffffffffffffffffffffffffffffffffffff169060200190929190803573ffffffffffffffffffffffffffffffffffffffff1690602001909291908035906020019082018035906020019190919293919293908035906020019092919080359060200190929190505050612899565b005b34801561082057600080fd5b50610890600480360381019080803573ffffffffffffffffffffffffffffffffffffffff16906020019092919080359060200190820180359060200191909192939192939080359060200190929190803515159060200190929190803560ff169060200190929190505050612b53565b005b34801561089e57600080fd5b506108dd600480360381019080803573ffffffffffffffffffffffffffffffffffffffff16906020019092919080359060200190929190505050612e08565b60405180826000191660001916815260200191505060405180910390f35b34801561090757600080fd5b5061095e600480360381019080803573ffffffffffffffffffffffffffffffffffffffff16906020019092919080359060200190820180359060200191909192939192939080359060200190929190505050612e6c565b604051808215151515815260200191505060405180910390f35b34801561098457600080fd5b506109b9600480360381019080803573ffffffffffffffffffffffffffffffffffffffff169060200190929190505050612ee5565b6040518082815260200191505060405180910390f35b3480156109db57600080fd5b50610a10600480360381019080803573ffffffffffffffffffffffffffffffffffffffff169060200190929190505050612f31565b6040518082815260200191505060405180910390f35b348015610a3257600080fd5b50610aa9600480360381019080803573ffffffffffffffffffffffffffffffffffffffff16906020019092919080359060200190820180359060200191909192939192939080359060200190929190803573ffffffffffffffffffffffffffffffffffffffff169060200190929190505050612f80565b6040518082815260200191505060405180910390f35b348015610acb57600080fd5b50610ad4613096565b6040518082815260200191505060405180910390f35b348015610af657600080fd5b50610b6d600480360381019080803573ffffffffffffffffffffffffffffffffffffffff16906020019092919080359060200190820180359060200191909192939192939080359060200190929190803573ffffffffffffffffffffffffffffffffffffffff1690602001909291905050506130a3565b604051808215151515815260200191505060405180910390f35b565b6000600660008373ffffffffffffffffffffffffffffffffffffffff1673ffffffffffffffffffffffffffffffffffffffff168152602001908152602001600020600101549050600081111515610c48576040517f08c379a000000000000000000000000000000000000000000000000000000000815260040180806020018281038252601d8152602001807f5061796f7574206e6565647320746f206265206f76657220302045544800000081525060200191505060405180910390fd5b6000600660008473ffffffffffffffffffffffffffffffffffffffff1673ffffffffffffffffffffffffffffffffffffffff168152602001908152602001600020600101819055508173ffffffffffffffffffffffffffffffffffffffff166108fc829081150290604051600060405180830381858888f19350505050158015610cd6573d6000803e3d6000fd5b505050565b6000600460ff16600360008473ffffffffffffffffffffffffffffffffffffffff1673ffffffffffffffffffffffffffffffffffffffff16815260200190815260200160002060000160009054906101000a900460ff1660ff16149050919050565b6000809054906101000a900473ffffffffffffffffffffffffffffffffffffffff1673ffffffffffffffffffffffffffffffffffffffff163373ffffffffffffffffffffffffffffffffffffffff16141515610e01576040517f08c379a000000000000000000000000000000000000000000000000000000000815260040180806020018281038252601c8152602001807f43616c6c6572206973206e6f7420636f6e7472616374206f776e65720000000081525060200191505060405180910390fd5b600060149054906101000a900460ff16151581151514151515610eb2576040517f08c379a000000000000000000000000000000000000000000000000000000000815260040180806020018281038252602d8152602001807f4e6577206d6f6465206d75737420626520646966666572656e742066726f6d2081526020017f6578697374696e67206d6f64650000000000000000000000000000000000000081525060400191505060405180910390fd5b60001515610f466001805480602002602001604051908101604052809291908181526020018280548015610f3b57602002820191906000526020600020905b8160009054906101000a900473ffffffffffffffffffffffffffffffffffffffff1673ffffffffffffffffffffffffffffffffffffffff1681526020019060010190808311610ef1575b5050505050336131c6565b15151415610fb95760013390806001815401808255809150509060018203906000526020600020016000909192909190916101000a81548173ffffffffffffffffffffffffffffffffffffffff021916908373ffffffffffffffffffffffffffffffffffffffff16021790555050611056565b60011515611055576040517f08c379a00000000000000000000000000000000000000000000000000000000081526004018080602001828103825260278152602001807f43616c6c65722068617320616c72656164792063616c6c65642074686973206681526020017f756e6374696f6e0000000000000000000000000000000000000000000000000081525060400191505060405180910390fd5b5b600180805490501015156110c65780600060146101000a81548160ff02191690831515021790555060006040519080825280602002602001820160405280156110ae5781602001602082028038833980820191505090505b50600190805190602001906110c4929190613562565b505b80600060146101000a81548160ff02191690831515021790555050565b60008060149054906101000a900460ff16151561118e576040517f08c379a00000000000000000000000000000000000000000000000000000000081526004018080602001828103825260258152602001807f436f6e74726163742069732063757272656e746c79206e6f74206f706572617481526020017f696f6e616c00000000000000000000000000000000000000000000000000000081525060400191505060405180910390fd5b6000809054906101000a900473ffffffffffffffffffffffffffffffffffffffff1673ffffffffffffffffffffffffffffffffffffffff163373ffffffffffffffffffffffffffffffffffffffff16141515611252576040517f08c379a000000000000000000000000000000000000000000000000000000000815260040180806020018281038252601c8152602001807f43616c6c6572206973206e6f7420636f6e7472616374206f776e65720000000081525060200191505060405180910390fd5b3073ffffffffffffffffffffffffffffffffffffffff1631905090565b6000600260ff16600360008473ffffffffffffffffffffffffffffffffffffffff1673ffffffffffffffffffffffffffffffffffffffff16815260200190815260200160002060000160009054906101000a900460ff1660ff16149050919050565b6000809054906101000a900473ffffffffffffffffffffffffffffffffffffffff1673ffffffffffffffffffffffffffffffffffffffff163373ffffffffffffffffffffffffffffffffffffffff16141515611395576040517f08c379a000000000000000000000000000000000000000000000000000000000815260040180806020018281038252601c8152602001807f43616c6c6572206973206e6f7420636f6e7472616374206f776e65720000000081525060200191505060405180910390fd5b6001600260008373ffffffffffffffffffffffffffffffffffffffff1673ffffffffffffffffffffffffffffffffffffffff1681526020019081526020016000208190555050565b600080600090506004600160048054905001111561141457600480549050905061141160028261324890919063ffffffff16565b90505b8091505090565b6000600660008373ffffffffffffffffffffffffffffffffffffffff1673ffffffffffffffffffffffffffffffffffffffff16815260200190815260200160002060000160149054906101000a900460ff169050919050565b6000806000806000806114868761325e565b9050806114e157600360008873ffffffffffffffffffffffffffffffffffffffff1673ffffffffffffffffffffffffffffffffffffffff168152602001908152602001600020600101805490506114db6113dd565b036114e4565b60005b91506114ef876132c0565b6114f888613323565b61150189613386565b8385955095509550955095505091939590929450565b60006115e9600360008473ffffffffffffffffffffffffffffffffffffffff1673ffffffffffffffffffffffffffffffffffffffff1681526020019081526020016000206001018054806020026020016040519081016040528092919081815260200182805480156115de57602002820191906000526020600020905b8160009054906101000a900473ffffffffffffffffffffffffffffffffffffffff1673ffffffffffffffffffffffffffffffffffffffff1681526020019060010190808311611594575b5050505050846131c6565b905092915050565b600060149054906101000a900460ff16151561169b576040517f08c379a00000000000000000000000000000000000000000000000000000000081526004018080602001828103825260258152602001807f436f6e74726163742069732063757272656e746c79206e6f74206f706572617481526020017f696f6e616c00000000000000000000000000000000000000000000000000000081525060400191505060405180910390fd5b80600060156101000a81548160ff02191690831515021790555050565b6000809054906101000a900473ffffffffffffffffffffffffffffffffffffffff1673ffffffffffffffffffffffffffffffffffffffff163373ffffffffffffffffffffffffffffffffffffffff1614151561177c576040517f08c379a000000000000000000000000000000000000000000000000000000000815260040180806020018281038252601c8152602001807f43616c6c6572206973206e6f7420636f6e7472616374206f776e65720000000081525060200191505060405180910390fd5b600260008273ffffffffffffffffffffffffffffffffffffffff1673ffffffffffffffffffffffffffffffffffffffff1681526020019081526020016000206000905550565b6000600480805490501015905090565b60038060008373ffffffffffffffffffffffffffffffffffffffff1673ffffffffffffffffffffffffffffffffffffffff16815260200190815260200160002060000160006101000a81548160ff021916908360ff16021790555060048190806001815401808255809150509060018203906000526020600020016000909192909190916101000a81548173ffffffffffffffffffffffffffffffffffffffff021916908373ffffffffffffffffffffffffffffffffffffffff160217905550506004600360008373ffffffffffffffffffffffffffffffffffffffff1673ffffffffffffffffffffffffffffffffffffffff16815260200190815260200160002060000160006101000a81548160ff021916908360ff16021790555050565b80600160ff16600360008373ffffffffffffffffffffffffffffffffffffffff1673ffffffffffffffffffffffffffffffffffffffff16815260200190815260200160002060000160009054906101000a900460ff1660ff161415156119e6576040517f08c379a00000000000000000000000000000000000000000000000000000000081526004018080602001828103825260398152602001807f4169726c696e652073686f756c642068617665206265656e206164646564207481526020017f6f2074686520726567697374726174696f6e2071756575652e0000000000000081525060400191505060405180910390fd5b826000806004805490501115611afe57611a866004805480602002602001604051908101604052809291908181526020018280548015611a7b57602002820191906000526020600020905b8160009054906101000a900473ffffffffffffffffffffffffffffffffffffffff1673ffffffffffffffffffffffffffffffffffffffff1681526020019060010190808311611a31575b5050505050836131c6565b9050801515611afd576040517f08c379a000000000000000000000000000000000000000000000000000000000815260040180806020018281038252601f8152602001807f4169726c696e65206e6565647320746f20626520726567697374657265642e0081525060200191505060405180910390fd5b5b8360008060008092503391506000600360008673ffffffffffffffffffffffffffffffffffffffff1673ffffffffffffffffffffffffffffffffffffffff168152602001908152602001600020600101805490501115611c6e57600090505b600360008573ffffffffffffffffffffffffffffffffffffffff1673ffffffffffffffffffffffffffffffffffffffff16815260200190815260200160002060010180549050811015611c6d578173ffffffffffffffffffffffffffffffffffffffff16600360008673ffffffffffffffffffffffffffffffffffffffff1673ffffffffffffffffffffffffffffffffffffffff16815260200190815260200160002060010182815481101515611c1057fe5b9060005260206000200160009054906101000a900473ffffffffffffffffffffffffffffffffffffffff1673ffffffffffffffffffffffffffffffffffffffff161415611c605760019250611c6d565b8080600101915050611b5d565b5b60001515831515141515611d10576040517f08c379a00000000000000000000000000000000000000000000000000000000081526004018080602001828103825260298152602001807f4169726c696e652073686f756c64206e6f74206861766520616e7920766f746581526020017f2079657420666f722e000000000000000000000000000000000000000000000081525060400191505060405180910390fd5b600360008973ffffffffffffffffffffffffffffffffffffffff1673ffffffffffffffffffffffffffffffffffffffff1681526020019081526020016000206001018990806001815401808255809150509060018203906000526020600020016000909192909190916101000a81548173ffffffffffffffffffffffffffffffffffffffff021916908373ffffffffffffffffffffffffffffffffffffffff16021790555050611dbe6113dd565b600360008a73ffffffffffffffffffffffffffffffffffffffff1673ffffffffffffffffffffffffffffffffffffffff16815260200190815260200160002060010180549050101515611e68576002600360008a73ffffffffffffffffffffffffffffffffffffffff1673ffffffffffffffffffffffffffffffffffffffff16815260200190815260200160002060000160006101000a81548160ff021916908360ff1602179055505b505050505050505050565b816000806004805490501115611f8b57611f136004805480602002602001604051908101604052809291908181526020018280548015611f0857602002820191906000526020600020905b8160009054906101000a900473ffffffffffffffffffffffffffffffffffffffff1673ffffffffffffffffffffffffffffffffffffffff1681526020019060010190808311611ebe575b5050505050836131c6565b9050801515611f8a576040517f08c379a000000000000000000000000000000000000000000000000000000000815260040180806020018281038252601f8152602001807f4169726c696e65206e6565647320746f20626520726567697374657265642e0081525060200191505060405180910390fd5b5b8260008060048054905011156120ca5761202b600480548060200260200160405190810160405280929190818152602001828054801561202057602002820191906000526020600020905b8160009054906101000a900473ffffffffffffffffffffffffffffffffffffffff1673ffffffffffffffffffffffffffffffffffffffff1681526020019060010190808311611fd6575b5050505050836131c6565b1590508015156120c9576040517f08c379a00000000000000000000000000000000000000000000000000000000081526004018080602001828103825260228152602001807f4169726c696e65206973206e657720616e64206e6f742072656769737465726581526020017f642e00000000000000000000000000000000000000000000000000000000000081525060400191505060405180910390fd5b5b600060048054905014156121fa57606060405190810160405280600260ff168152602001600060405190808252806020026020018201604052801561211e5781602001602082028038833980820191505090505b50815260200160006040519080825280602002602001820160405280156121545781602001602082028038833980820191505090505b50815250600360008773ffffffffffffffffffffffffffffffffffffffff1673ffffffffffffffffffffffffffffffffffffffff16815260200190815260200160002060008201518160000160006101000a81548160ff021916908360ff16021790555060208201518160010190805190602001906121d49291906135ec565b5060408201518160020190805190602001906121f1929190613676565b50905050612594565b6004808054905010156123cf57606060405190810160405280600260ff168152602001600060405190808252806020026020018201604052801561224d5781602001602082028038833980820191505090505b50815260200160006040519080825280602002602001820160405280156122835781602001602082028038833980820191505090505b50815250600360008773ffffffffffffffffffffffffffffffffffffffff1673ffffffffffffffffffffffffffffffffffffffff16815260200190815260200160002060008201518160000160006101000a81548160ff021916908360ff16021790555060208201518160010190805190602001906123039291906135ec565b506040820151816002019080519060200190612320929190613676565b50905050600360008673ffffffffffffffffffffffffffffffffffffffff1673ffffffffffffffffffffffffffffffffffffffff1681526020019081526020016000206001018690806001815401808255809150509060018203906000526020600020016000909192909190916101000a81548173ffffffffffffffffffffffffffffffffffffffff021916908373ffffffffffffffffffffffffffffffffffffffff16021790555050612593565b606060405190810160405280600160ff16815260200160006040519080825280602002602001820160405280156124155781602001602082028038833980820191505090505b508152602001600060405190808252806020026020018201604052801561244b5781602001602082028038833980820191505090505b50815250600360008773ffffffffffffffffffffffffffffffffffffffff1673ffffffffffffffffffffffffffffffffffffffff16815260200190815260200160002060008201518160000160006101000a81548160ff021916908360ff16021790555060208201518160010190805190602001906124cb9291906135ec565b5060408201518160020190805190602001906124e8929190613676565b50905050600360008673ffffffffffffffffffffffffffffffffffffffff1673ffffffffffffffffffffffffffffffffffffffff1681526020019081526020016000206001018690806001815401808255809150509060018203906000526020600020016000909192909190916101000a81548173ffffffffffffffffffffffffffffffffffffffff021916908373ffffffffffffffffffffffffffffffffffffffff160217905550505b5b505050505050565b6000806000806000806125e28a8a8a8080601f016020809104026020016040519081016040528093929190818152602001838380828437820191505050505050896133e9565b95506007600087600019166000191681526020019081526020016000209450600093505b84805490508410156127a657848481548110151561262057fe5b90600052602060002090600202019250600015158360010160009054906101000a900460ff161515148015612659575060008360000154115b156127995760018360010160006101000a81548160ff021916908315150217905550826000015491506126a9600261269b60038561350e90919063ffffffff16565b61324890919063ffffffff16565b905061272481600660008660010160019054906101000a900473ffffffffffffffffffffffffffffffffffffffff1673ffffffffffffffffffffffffffffffffffffffff1673ffffffffffffffffffffffffffffffffffffffff1681526020019081526020016000206001015461354690919063ffffffff16565b600660008560010160019054906101000a900473ffffffffffffffffffffffffffffffffffffffff1673ffffffffffffffffffffffffffffffffffffffff1673ffffffffffffffffffffffffffffffffffffffff16815260200190815260200160002060010181905550600083600001819055505b8380600101945050612606565b50505050505050505050565b60008060149054906101000a900460ff16905090565b60606000806005600085600019166000191681526020019081526020016000209050806001018160030154818054600181600116156101000203166002900480601f0160208091040260200160405190810160405280929190818152602001828054600181600116156101000203166002900480156128885780601f1061285d57610100808354040283529160200191612888565b820191906000526020600020905b81548152906001019060200180831161286b57829003601f168201915b505050505091509250925050915091565b60006128d88686868080601f016020809104026020016040519081016040528093929190818152602001838380828437820191505050505050856133e9565b9050600073ffffffffffffffffffffffffffffffffffffffff16600660008973ffffffffffffffffffffffffffffffffffffffff1673ffffffffffffffffffffffffffffffffffffffff16815260200190815260200160002060000160009054906101000a900473ffffffffffffffffffffffffffffffffffffffff1673ffffffffffffffffffffffffffffffffffffffff161415612a5b576060604051908101604052808873ffffffffffffffffffffffffffffffffffffffff1681526020016001151581526020016000815250600660008973ffffffffffffffffffffffffffffffffffffffff1673ffffffffffffffffffffffffffffffffffffffff16815260200190815260200160002060008201518160000160006101000a81548173ffffffffffffffffffffffffffffffffffffffff021916908373ffffffffffffffffffffffffffffffffffffffff16021790555060208201518160000160146101000a81548160ff021916908315150217905550604082015181600101559050505b6007600082600019166000191681526020019081526020016000206060604051908101604052808481526020016000151581526020018973ffffffffffffffffffffffffffffffffffffffff16815250908060018154018082558091505090600182039060005260206000209060020201600090919290919091506000820151816000015560208201518160010160006101000a81548160ff02191690831515021790555060408201518160010160016101000a81548173ffffffffffffffffffffffffffffffffffffffff021916908373ffffffffffffffffffffffffffffffffffffffff16021790555050505050505050505050565b6000866000806004805490501115612c6d57612bf56004805480602002602001604051908101604052809291908181526020018280548015612bea57602002820191906000526020600020905b8160009054906101000a900473ffffffffffffffffffffffffffffffffffffffff1673ffffffffffffffffffffffffffffffffffffffff1681526020019060010190808311612ba0575b5050505050836131c6565b9050801515612c6c576040517f08c379a000000000000000000000000000000000000000000000000000000000815260040180806020018281038252601f8152602001807f4169726c696e65206e6565647320746f20626520726567697374657265642e0081525060200191505060405180910390fd5b5b612caa8989898080601f016020809104026020016040519081016040528093929190818152602001838380828437820191505050505050886133e9565b9250608060405190810160405280861515815260200189898080601f01602080910402602001604051908101604052809392919081815260200183838082843782019150505050505081526020018560ff1681526020018781525060056000856000191660001916815260200190815260200160002060008201518160000160006101000a81548160ff0219169083151502179055506020820151816001019080519060200190612d5c9291906136c9565b5060408201518160020160006101000a81548160ff021916908360ff16021790555060608201518160030155905050600360008a73ffffffffffffffffffffffffffffffffffffffff1673ffffffffffffffffffffffffffffffffffffffff168152602001908152602001600020600201839080600181540180825580915050906001820390600052602060002001600090919290919091509060001916905550505050505050505050565b6000600360008473ffffffffffffffffffffffffffffffffffffffff1673ffffffffffffffffffffffffffffffffffffffff16815260200190815260200160002060020182815481101515612e5957fe5b9060005260206000200154905092915050565b600080612eac8686868080601f016020809104026020016040519081016040528093929190818152602001838380828437820191505050505050856133e9565b905060056000826000191660001916815260200190815260200160002060000160009054906101000a900460ff16915050949350505050565b6000600660008373ffffffffffffffffffffffffffffffffffffffff1673ffffffffffffffffffffffffffffffffffffffff168152602001908152602001600020600101549050919050565b6000600360008373ffffffffffffffffffffffffffffffffffffffff1673ffffffffffffffffffffffffffffffffffffffff168152602001908152602001600020600201805490509050919050565b600080600080600080612fc68b8b8b8080601f0160208091040260200160405190810160405280939291908181526020018383808284378201915050505050508a6133e9565b9450600093506007600086600019166000191681526020019081526020016000209250600091505b828054905082101561308557828281548110151561300857fe5b906000526020600020906002020190508673ffffffffffffffffffffffffffffffffffffffff168160010160019054906101000a900473ffffffffffffffffffffffffffffffffffffffff1673ffffffffffffffffffffffffffffffffffffffff16141561307857806000015493505b8180600101925050612fee565b839550505050505095945050505050565b6000600480549050905090565b6000806000806000806130e98b8b8b8080601f0160208091040260200160405190810160405280939291908181526020018383808284378201915050505050508a6133e9565b9450600093506007600086600019166000191681526020019081526020016000209250600091505b82805490508210156131b557828281548110151561312b57fe5b906000526020600020906002020190508673ffffffffffffffffffffffffffffffffffffffff168160010160019054906101000a900473ffffffffffffffffffffffffffffffffffffffff1673ffffffffffffffffffffffffffffffffffffffff1614801561319e575060008160000154115b156131a857600193505b8180600101925050613111565b839550505050505095945050505050565b6000806000809150600090505b845181101561323d578373ffffffffffffffffffffffffffffffffffffffff16858281518110151561320157fe5b9060200190602002015173ffffffffffffffffffffffffffffffffffffffff161415613230576001915061323d565b80806001019150506131d3565b819250505092915050565b6000818381151561325557fe5b04905092915050565b6000600460ff16600360008473ffffffffffffffffffffffffffffffffffffffff1673ffffffffffffffffffffffffffffffffffffffff16815260200190815260200160002060000160009054906101000a900460ff1660ff16149050919050565b6000600160ff16600360008473ffffffffffffffffffffffffffffffffffffffff1673ffffffffffffffffffffffffffffffffffffffff16815260200190815260200160002060000160009054906101000a900460ff1660ff1610159050919050565b6000600260ff16600360008473ffffffffffffffffffffffffffffffffffffffff1673ffffffffffffffffffffffffffffffffffffffff16815260200190815260200160002060000160009054906101000a900460ff1660ff1610159050919050565b6000600360ff16600360008473ffffffffffffffffffffffffffffffffffffffff1673ffffffffffffffffffffffffffffffffffffffff16815260200190815260200160002060000160009054906101000a900460ff1660ff1610159050919050565b6000838383604051602001808473ffffffffffffffffffffffffffffffffffffffff1673ffffffffffffffffffffffffffffffffffffffff166c0100000000000000000000000002815260140183805190602001908083835b6020831015156134675780518252602082019150602081019050602083039250613442565b6001836020036101000a03801982511681845116808217855250505050505090500182815260200193505050506040516020818303038152906040526040518082805190602001908083835b6020831015156134d857805182526020820191506020810190506020830392506134b3565b6001836020036101000a038019825116818451168082178552505050505050905001915050604051809103902090509392505050565b6000808314156135215760009050613540565b818302905081838281151561353257fe5b0414151561353c57fe5b8090505b92915050565b6000818301905082811015151561355957fe5b80905092915050565b8280548282559060005260206000209081019282156135db579160200282015b828111156135da5782518260006101000a81548173ffffffffffffffffffffffffffffffffffffffff021916908373ffffffffffffffffffffffffffffffffffffffff16021790555091602001919060010190613582565b5b5090506135e89190613749565b5090565b828054828255906000526020600020908101928215613665579160200282015b828111156136645782518260006101000a81548173ffffffffffffffffffffffffffffffffffffffff021916908373ffffffffffffffffffffffffffffffffffffffff1602179055509160200191906001019061360c565b5b5090506136729190613749565b5090565b8280548282559060005260206000209081019282156136b8579160200282015b828111156136b7578251829060001916905591602001919060010190613696565b5b5090506136c5919061378c565b5090565b828054600181600116156101000203166002900490600052602060002090601f016020900481019282601f1061370a57805160ff1916838001178555613738565b82800160010185558215613738579182015b8281111561373757825182559160200191906001019061371c565b5b50905061374591906137b1565b5090565b61378991905b8082111561378557600081816101000a81549073ffffffffffffffffffffffffffffffffffffffff02191690555060010161374f565b5090565b90565b6137ae91905b808211156137aa576000816000905550600101613792565b5090565b90565b6137d391905b808211156137cf5760008160009055506001016137b7565b5090565b905600a165627a7a72305820fae24f0ef43e91c673ed732cb72a76f2f2d29cda3dd054be016dea94033b3c390029",
  "source": "pragma solidity ^0.4.25;\n\nimport \"../node_modules/openzeppelin-solidity/contracts/math/SafeMath.sol\";\n\ncontract FlightSuretyData {\n    using SafeMath for uint256;\n\n    // Airline registration code\n    uint8 private constant REGISTRATION_CODE_UNKNOWN             = 0;\n    uint8 private constant REGISTRATION_CODE_ADDED_TO_QUEUE      = 1;\n    uint8 private constant REGISTRATION_CODE_VOTED_IN            = 2;\n    uint8 private constant REGISTRATION_CODE_FUNDED              = 3;\n    uint8 private constant REGISTRATION_CODE_REGISTERED          = 4;\n\n    /********************************************************************************************/\n    /*                                       DATA VARIABLES                                     */\n    /********************************************************************************************/\n\n\n    uint256 private constant MULTIPARTY_CONSENSUS_THRESHOLD = 4;\n    \n    uint constant M = 1;\n\n    address private contractOwner;              // Account used to deploy contract\n    bool private operational = true;            // Blocks all state changes throughout the contract if false\n    bool private testing = false;\n    \n    address[] multiCalls = new address[](0);\n    mapping(address => uint256) private authorizedContracts;\n\n    //------------\n    // Airlines\n    struct Airline {\n        uint8 registrationCode;                 // Registration phase the airline is in.\n        address[] approvedBy;                   // Registered airlines which voted for the airline.\n        bytes32[] flightKeys;   \n    }\n    mapping(address => Airline) airlines;       // Holds all the candidate airlines\n    address[] registeredAirlines;               // Holds all registered airlines\n\n    //------------\n    // Flights\n    struct Flight {\n        bool isRegistered;\n        string flight;\n        uint8 statusCode;\n        uint256 timestamp;\n    }\n    // Key = hash(airline, flight, timestamp)\n    mapping(bytes32 => Flight) private flights;\n\n    //------------\n    // Users\n    struct User {\n        address id;\n        bool isRegistered;\n        uint256 payout;                         // Holds the total payout for the user.\n    }\n    mapping(address => User) users;\n\n    //------------\n    // Insurances\n    struct Insurance {\n        uint256 paidAmount;                     // Amount paid by the insuree\n        bool payoutReceived;                    // The user has been credited if insurance kicked in.\n        address buyerAddress;                   // Links to Users map\n    }\n    // Track all paid insurances\n    // Key = hash(airline, flight, timestamp)\n    mapping(bytes32 => Insurance[]) private insurances;\n    \n                                 \n    /********************************************************************************************/\n    /*                                       EVENT DEFINITIONS                                  */\n    /********************************************************************************************/\n\n\n    /**\n    * @dev Constructor\n    *      The deploying account becomes contractOwner\n    */\n    constructor\n                                (\n                                    address firstAirline\n                                ) \n                                public \n    {\n        contractOwner = msg.sender;\n        \n        // Create first Airline. Mark it as Added and VotedIn. Fund it later.\n        airlines[firstAirline] = Airline({\n            registrationCode: REGISTRATION_CODE_VOTED_IN, \n            approvedBy: new address[](0),\n            flightKeys: new bytes32[](0)\n        });\n    }\n\n    /********************************************************************************************/\n    /*                                       FUNCTION MODIFIERS                                 */\n    /********************************************************************************************/\n\n    // Modifiers help avoid duplication of code. They are typically used to validate something\n    // before a function is allowed to be executed.\n\n    /**\n    * @dev Modifier that requires the \"operational\" boolean variable to be \"true\"\n    *      This is used on all state changing functions to pause the contract in \n    *      the event there is an issue that needs to be fixed\n    */\n    modifier requireIsOperational() \n    {\n        require(operational, \"Contract is currently not operational\");\n        _;  // All modifiers require an \"_\" which indicates where the function body will be added\n    }\n\n    /**\n    * @dev Modifier that requires the \"ContractOwner\" account to be the function caller\n    */\n    modifier requireContractOwner()\n    {\n        require(msg.sender == contractOwner, \"Caller is not contract owner\");\n        _;\n    }\n\n    /**\n    * @dev Modifier that requires function caller to be authorized caller.\n    */\n    modifier requireIsCallerAuthorized()\n    {\n        require(authorizedContracts[msg.sender] == 1, \"Caller is not authorized caller\");\n        _;\n    }\n\n    /**\n     * Modifier that requires an airline to be registered.\n     */\n    modifier requireRegisteredAirline(address airline)\n    {\n        if (registeredAirlines.length > 0) {\n            bool isRegistered = hasEntry(registeredAirlines, airline);\n            require(isRegistered, \"Airline needs to be registered.\");\n        }\n        _;\n    }\n\n    /**\n     * Modifier that requires an airline to be new and has no profile yet.\n     */\n    modifier requireNewAirline(address newAirline)\n    {\n        if (registeredAirlines.length > 0) {\n            bool isNew = !hasEntry(registeredAirlines, newAirline);\n            require(isNew, \"Airline is new and not registered.\");\n        }\n        _;\n    }\n\n    /**\n     * Modifier that requires an airline have been added.\n     */\n    modifier requireAddedAirline(address newAirline)\n    {\n        require(airlines[newAirline].registrationCode == REGISTRATION_CODE_ADDED_TO_QUEUE, \"Airline should have been added to the registration queue.\");\n        _;\n    }\n\n    /**\n     * Modifier that requires a registered airline to have not voted yet for a candidate airline.\n     */\n    modifier requireRegisteredAirlineNotVotedYet(address newAirline)\n    {\n        bool hasVoted = false;\n        address registeredAirline = msg.sender;\n        if (airlines[newAirline].approvedBy.length > 0) {\n            for(uint c = 0; c < airlines[newAirline].approvedBy.length; c++) {\n                if (airlines[newAirline].approvedBy[c] == registeredAirline) {\n                    hasVoted = true;\n                    break;\n                }\n            }\n        }\n        require(hasVoted == false, \"Airline should not have any vote yet for.\");\n        _;\n    }\n\n    /********************************************************************************************/\n    /*                                       UTILITY FUNCTIONS                                  */\n    /********************************************************************************************/\n\n    /**\n    * @dev Get operating status of contract\n    *\n    * @return A bool that is the current operating status\n    */      \n    function isOperational() \n                            public \n                            view \n                            returns(bool) \n    {\n        return operational;\n    }\n\n    /**\n    * @dev Sets contract operations on/off\n    *\n    * When operational mode is disabled, all write transactions except for this one will fail\n    */    \n    function setOperatingStatus\n                            (\n                                bool mode\n                            ) \n                            external\n                            requireContractOwner \n    {\n        require(mode != operational, \"New mode must be different from existing mode\");\n        \n        if (hasEntry(multiCalls, msg.sender) == false) {\n            multiCalls.push(msg.sender);\n        } else {\n            require(true, \"Caller has already called this function\");\n        }\n\n        // This requires multi-party consensus, ie set by M variable, to enable/disable operation..\n        if (multiCalls.length >= M) {\n            operational = mode;\n            multiCalls = new address[](0);\n        }\n        operational = mode;\n    }\n\n    /**\n    * @dev Sets testing mode on/off\n    *\n    * When operational mode is disabled, all write transactions will fail\n    */    \n    function setTestingMode\n                            (\n                                bool testing_mode\n                            ) \n                            external\n                            requireIsOperational \n    {\n        testing = testing_mode;\n    }\n\n    /**\n    * @dev Adds an address to be a authorized caller.\n    */   \n    function authorizeCaller\n                            (\n                                address contractAddress\n                            )\n                            external\n                            requireContractOwner\n    {\n        authorizedContracts[contractAddress] = 1;\n    }\n\n    /**\n    * @dev Removes an address to be a authorized caller.\n    */   \n    function deauthorizeCaller\n                            (\n                                address contractAddress\n                            )\n                            external\n                            requireContractOwner\n    {\n        delete authorizedContracts[contractAddress];\n    }\n\n    /**\n    * @dev This checks if an address appears in the list of addresses.\n    */ \n    function hasEntry   (\n                            address[] memory addresses, \n                            address addressToCheck\n                        ) \n                        internal \n                        pure \n                        returns(bool)\n    {\n        bool exists = false;\n        for(uint c = 0; c < addresses.length; c++) {\n            if (addresses[c] == addressToCheck) {\n                exists = true;\n                break;\n            }\n        }\n        return exists;\n    }\n\n    /**\n    * @dev This returns the multiparty consensus required count.\n    *\n    * When registered airlines is < 4, consensus count is 0. Otherwise, consensus count is \n    * half the number of registered airlines.\n    */ \n    function getNextRequiredConsensusCount () \n                                public \n                                view \n                                returns (uint256) \n    {\n        uint256 reqConsensusCount = 0;\n        if (registeredAirlines.length + 1 > MULTIPARTY_CONSENSUS_THRESHOLD) {\n            reqConsensusCount = registeredAirlines.length;\n            reqConsensusCount = reqConsensusCount.div(2);\n        } \n        return reqConsensusCount;\n    }\n\n    /**\n    * @dev This returns the contract balance.\n    */ \n    function getBalance()\n                        public\n                        view\n                        requireIsOperational\n                        requireContractOwner\n                        returns (uint256) \n    {\n        return address(this).balance;\n    }\n\n    /**\n    * @dev This returns the number of registered airlines.\n    */                     \n    function getRegisteredAirlinesCount()\n                                        public\n                                        view\n                                        returns (uint256)\n    {\n        return registeredAirlines.length;\n    }\n\n    /**\n    * @dev Returns true if airline is registered. Otherwise, false.\n    */ \n    function isAirline      (\n                                address newAirline\n                            ) \n                            external\n                            view \n                            returns (bool)\n    {\n        return airlines[newAirline].registrationCode == REGISTRATION_CODE_REGISTERED;\n    }\n\n    /**\n    * @dev Returns true if flight is registered. Otherwise, false.\n    */ \n    function isFlight      (\n                                address airline,\n                                string flight,\n                                uint256 timestamp\n                            ) \n                            external\n                            view \n                            returns (bool)\n    {\n        bytes32 flightKey = getFlightKey(airline, flight, timestamp);\n        return flights[flightKey].isRegistered;\n    }\n\n    /**\n    * @dev Returns true if passenger is registered.\n    */ \n    function isUser\n                            (\n                                address passenger\n                            ) \n                            external\n                            view \n                            returns (bool)\n    {\n        return users[passenger].isRegistered;\n    }\n\n    /**\n     * @dev Returns if airline is clear for funding. Only airlines that have been voted in are cleared\n     *  for funding. Airlines that are only added are not cleared for funding - needs half of the registered\n     *  airlines vote to get voted in.\n     */\n    function isAirlineClearedForFunding (\n                                            address airline\n                                        )\n                                        external\n                                        view\n                                        returns (bool)\n    {\n        return airlines[airline].registrationCode == REGISTRATION_CODE_VOTED_IN;\n    }\n\n    /**\n     * @dev Returns boolean indicating whether an airline has been added to the queue or not.\n     */\n    function isAirlineAdded         (\n                                        address airline\n                                    ) \n                                    internal \n                                    view \n                                    returns (bool) \n    {\n        return airlines[airline].registrationCode >= REGISTRATION_CODE_ADDED_TO_QUEUE;\n    }\n\n    /**\n     * @dev Returns boolean indicating whether an airline has been voted in (ie, received enough votes).\n     */\n    function isAirlineVotedIn       (\n                                        address airline\n                                    ) \n                                    internal \n                                    view \n                                    returns (bool)\n    {\n         return airlines[airline].registrationCode >= REGISTRATION_CODE_VOTED_IN;\n    }\n\n    /**\n     * @dev Returns boolean indicating whether an airline has been funded or not.\n     */\n    function isAirlineFunded        (\n                                        address airline\n                                    ) \n                                    internal \n                                    view \n                                    returns (bool)\n    {\n        return airlines[airline].registrationCode >= REGISTRATION_CODE_FUNDED;\n    }\n\n    /**\n     * @dev Returns boolean indicating whether an airline has been registered or not.\n     */\n    function isAirlineRegistered    (\n                                        address airline\n                                    ) \n                                    internal \n                                    view \n                                    returns (bool)\n    {\n        return airlines[airline].registrationCode == REGISTRATION_CODE_REGISTERED;\n    }\n\n    /**\n     * @dev Returns array of booleans and number indicating indicating whether an airline has been \n     *      added, votedin, funded, registered and the number of votes number before it can proceed\n     *      with the registration.\n     */\n    function getAirlineStatusInfo   (\n                                        address airline\n                                    )\n                                    external \n                                    view \n                                    returns (bool added, bool voted, bool funded, bool registered, uint256 votesNeeded)\n    {\n        bool isRegistered = isAirlineRegistered(airline);\n        votesNeeded = isRegistered ? 0 : getNextRequiredConsensusCount() - airlines[airline].approvedBy.length;\n\n        return (\n            isAirlineAdded(airline),\n            isAirlineVotedIn(airline),\n            isAirlineFunded(airline),\n            isRegistered,\n            votesNeeded\n        );\n    }\n\n    /**\n    * @dev Returns vote count.\n    */ \n    function voteCount      (\n                                address newAirline\n                            ) \n                            internal\n                            view \n                            returns (uint256)\n    {\n        return airlines[newAirline].approvedBy.length;\n    }\n\n    /**\n    * @dev Returns total payout balance for particular insuree.\n    */ \n    function getPayoutBalance   (\n                                    address insuree\n                                )\n                            external\n                            view\n                            returns(uint256)\n    {\n        return users[insuree].payout;\n    }\n\n    /**\n    * @dev Returns true if passenger is insured. Otherwise, false.\n    *\n    */ \n    function isInsured  (\n                            address airline,\n                            string flight,\n                            uint256 timestamp,\n                            address insuree\n                        )\n                        external\n                        view\n                        returns(bool)\n    {\n        bytes32 flightKey = getFlightKey(airline, flight, timestamp);\n        bool insured = false;\n\n        Insurance[] storage paidFlightInsurances = insurances[flightKey];\n        for(uint c = 0; c < paidFlightInsurances.length; c++) {\n            Insurance storage insurance = paidFlightInsurances[c];\n            // Check if the user hasn't been credited yet.\n            if (insurance.buyerAddress == insuree && insurance.paidAmount > 0) {\n                insured = true;\n            }\n        }\n        return insured;\n    }\n\n    /**\n    *  @dev Returns insurance paid by passenger for particular airline, flight and timestamp.\n    */\n    function getInsuredAmount  (\n                            address airline,\n                            string flight,\n                            uint256 timestamp,\n                            address insuree\n                        )\n                        external\n                        view\n                        returns(uint256)\n    {\n        bytes32 flightKey = getFlightKey(airline, flight, timestamp);\n        uint256 amount = 0;\n\n        Insurance[] storage paidFlightInsurances = insurances[flightKey];\n        for(uint c = 0; c < paidFlightInsurances.length; c++) {\n            Insurance storage insurance = paidFlightInsurances[c];\n            if (insurance.buyerAddress == insuree) {\n                amount = insurance.paidAmount;\n            }\n        }\n        return amount;\n    }\n\n    /********************************************************************************************/\n    /*                                     SMART CONTRACT FUNCTIONS                             */\n    /********************************************************************************************/\n\n    //--------------------\n    // Airline functions\n    //--------------------\n\n    /**\n    * @dev Add an airline to the registration queue\n    *      Can only be called from FlightSuretyApp contract\n    */   \n    function registerAirline\n                            (   \n                                address airline,\n                                address newAirline\n                            )\n                            public\n                            requireRegisteredAirline(airline) \n                            requireNewAirline(newAirline)\n    {\n        // Rules for registering an airline:\n        \n        // Rule #1: First airline is registered and voted in.\n        if (registeredAirlines.length == 0) {\n            airlines[newAirline] = Airline({\n                registrationCode: REGISTRATION_CODE_VOTED_IN, \n                approvedBy: new address[](0),\n                flightKeys: new bytes32[](0)\n            });\n\n        // Rule #2: Only existing airline may register a new airline until there are \n        //          atleast 4 airlines registered.\n        } else if (registeredAirlines.length < MULTIPARTY_CONSENSUS_THRESHOLD) {\n            // Mark as VotedIn by sponsor. No need for multiparty consensus yet.\n            airlines[newAirline] = Airline({\n                registrationCode: REGISTRATION_CODE_VOTED_IN, \n                approvedBy: new address[](0),\n                flightKeys: new bytes32[](0)\n            });\n            airlines[newAirline].approvedBy.push(airline);\n\n        // Rule #3: Registration of 5th and subsequent airlines requires multi-party \n        //          consensus of 50% of registered airlines.\n        } else {\n            // Mark as Added to the queue and Voted in by sponsor\n            airlines[newAirline] = Airline({\n                registrationCode: REGISTRATION_CODE_ADDED_TO_QUEUE,\n                approvedBy: new address[](0),\n                flightKeys: new bytes32[](0)\n            });\n            // 1st vote from sponsor, need to gather more votes.\n            airlines[newAirline].approvedBy.push(airline);\n        }\n    }\n\n    /**\n    * @dev Returns boolean indicating whether an airline needs a registered airline to proceed with\n    *       the registration process.\n    */ \n    function needsRegisteredAirline ()\n                                    external\n                                    view\n                                    returns(bool)\n    {\n        return registeredAirlines.length >= MULTIPARTY_CONSENSUS_THRESHOLD;\n    }\n\n    /**\n    * @dev Vote an airline after its been added. \n    *       Can only be called from FlightSuretyApp contract\n    */ \n    function voteAirline    (\n                                address airline,\n                                address newAirline\n                            )\n                            external\n                            requireAddedAirline(newAirline)\n                            requireRegisteredAirline(airline)\n                            requireRegisteredAirlineNotVotedYet(newAirline)\n    {\n        airlines[newAirline].approvedBy.push(airline);\n\n        // if the approved count is equal or greater than the max vote needed then mark \n        // it as voted in. Next step is to pay.\n        if (airlines[newAirline].approvedBy.length >= getNextRequiredConsensusCount()) {\n            airlines[newAirline].registrationCode = REGISTRATION_CODE_VOTED_IN;\n        }\n    }\n\n    /**\n    * @dev Returns boolean indicating whether a registered airline has already voted for the applicant\n    *       airline or not.\n    */\n    function hasVotedForAirline     (\n                                        address airline,\n                                        address newAirline\n                                    )\n                                    external\n                                    view\n                                    returns (bool)\n    {\n        return hasEntry(airlines[newAirline].approvedBy, airline);\n    }\n\n    /**\n    * @dev Adds airline as part of registered airlines and marks it as registered.\n    */\n    function fundAirline\n                            (   \n                                address airline\n                            )\n                            external\n    {\n        // Mark as Funded.\n        airlines[airline].registrationCode = REGISTRATION_CODE_FUNDED;\n\n        // Added to registered airlines\n        registeredAirlines.push(airline);\n\n        // Mark as Registered.\n        airlines[airline].registrationCode = REGISTRATION_CODE_REGISTERED;\n    }\n\n    //--------------------\n    // Flight functions\n    //--------------------\n\n    /**\n    * @dev Returns the number of flight keys that an airline is associated with.\n    */\n    function getAirlineFlightKeysCount  (\n                                            address airline\n                                        )\n                                        external\n                                        view\n                                        returns(uint256)\n    {\n        return airlines[airline].flightKeys.length;\n    }\n\n    /**\n    * @dev Returns the flight key based on the airline and index.\n    */\n    function getAirlineFlightKey    (\n                                        address airline,\n                                        uint256 index\n                                    )\n                                    external\n                                    view\n                                    returns(bytes32)\n    {\n        return airlines[airline].flightKeys[index];\n    }\n\n    /**\n    * @dev Returns the flight and index based on the flightKey provided.\n    */\n    function getAirlineFlightInfo   (\n                                        bytes32 flightKey\n                                    )\n                                    external\n                                    view\n                                    returns(string memory flight, uint256 timestamp)\n    {\n        Flight storage flightEntry = flights[flightKey];\n        return (flightEntry.flight, flightEntry.timestamp);\n    }\n\n    /**\n    * @dev This registers a flight.\n    */ \n    function registerFlight\n                            (   \n                                address airline,\n                                string flight,\n                                uint256 timestamp,\n                                bool isRegistered,\n                                uint8 statusCode\n                            )\n                            external\n                            requireRegisteredAirline(airline)\n    {\n\n        bytes32 flightKey = getFlightKey(airline, flight, timestamp);\n\n        flights[flightKey] = Flight({\n            isRegistered: isRegistered,\n            flight: flight,\n            statusCode: statusCode,\n            timestamp: timestamp\n        });\n        \n        // add a link\n        airlines[airline].flightKeys.push(flightKey);\n    }\n\n    //--------------------\n    // Insurance functions\n\n    //--------------------\n\n    /**\n    * @dev Buy insurance for a flight\n    *\n    */   \n    function buy\n                            (   \n                                address insuree,  \n                                address airline,\n                                string flight,\n                                uint256 timestamp,\n                                uint256 amount       \n                            )\n                            external\n                            payable\n    {\n        bytes32 flightKey = getFlightKey(airline, flight, timestamp);\n        \n        // Check if user has profile, otherwise, create user profile.\n        if (users[insuree].id == address(0)) {\n            users[insuree] = User({\n                id: insuree,\n                isRegistered: true,\n                payout: 0\n            });\n        }\n\n        insurances[flightKey].push(Insurance({buyerAddress: insuree, paidAmount: amount, payoutReceived: false}));\n    }\n\n    /**\n     *  @dev Transfers eligible payout funds to insuree\n     *\n    */\n    function pay\n                            (\n                                address insuree\n                            )\n                            external\n    {\n        uint256 payout = users[insuree].payout;\n\n        require(payout > 0, \"Payout needs to be over 0 ETH\");\n        \n        // Reset payee payout.\n        users[insuree].payout = 0;\n\n        // Transfer payout to payee.\n        insuree.transfer(payout);\n    }\n\n    /**\n    *  @dev Credits payouts to insurees\n    */\n    function creditInsurees\n                                (\n                                    address airline,\n                                    string flight,\n                                    uint256 timestamp \n                                )\n                                external\n    {\n        bytes32 flightKey = getFlightKey(airline, flight, timestamp);\n\n        Insurance[] storage paidFlightInsurances = insurances[flightKey];\n        for(uint c = 0; c < paidFlightInsurances.length; c++) {\n            Insurance storage insurance = paidFlightInsurances[c];\n            // Check if the user has not receive payout for this insurance.\n            if (insurance.payoutReceived == false && insurance.paidAmount > 0) {\n                insurance.payoutReceived = true;\n\n                uint256 paidAmount = insurance.paidAmount;\n                \n                // Credit user account, 1.5 times the amount paid.\n                uint256 payoutAmount = paidAmount.mul(3).div(2);\n                users[insurance.buyerAddress].payout = users[insurance.buyerAddress].payout.add(payoutAmount);\n\n                // Reset paid amount in the insurance\n                insurance.paidAmount = 0;\n            }\n        }\n    }\n\n    /**\n    * @dev Initial funding for the insurance. Unless there are too many delayed flights\n    *      resulting in insurance payouts, the contract should be self-sustaining\n    *\n    */   \n    function fund\n                            (   \n                            )\n                            public\n                            payable\n    {\n    }\n\n    function getFlightKey\n                        (\n                            address airline,\n                            string memory flight,\n                            uint256 timestamp\n                        )\n                        pure\n                        internal\n                        returns(bytes32) \n    {\n        return keccak256(abi.encodePacked(airline, flight, timestamp));\n    }\n\n    /**\n    * @dev Fallback function for funding smart contract.\n    *\n    */\n    function() \n                            external \n                            payable \n    {\n        fund();\n    }\n}\n",
  "sourcePath": "/Users/chitambars/udacity/github/udacity-flight-surety/contracts/FlightSuretyData.sol",
  "compiler": {
    "name": "solc",
    "version": "0.4.26+commit.4563c3fc.Emscripten.clang"
  },
  "schemaVersion": "3.3.3",
  "updatedAt": "2021-01-21T00:49:50.947Z",
  "devdoc": {
    "methods": {
      "authorizeCaller(address)": {
        "details": "Adds an address to be a authorized caller."
      },
      "buy(address,address,string,uint256,uint256)": {
        "details": "Buy insurance for a flight    "
      },
      "creditInsurees(address,string,uint256)": {
        "details": "Credits payouts to insurees"
      },
      "deauthorizeCaller(address)": {
        "details": "Removes an address to be a authorized caller."
      },
      "fund()": {
        "details": "Initial funding for the insurance. Unless there are too many delayed flights     resulting in insurance payouts, the contract should be self-sustaining    "
      },
      "fundAirline(address)": {
        "details": "Adds airline as part of registered airlines and marks it as registered."
      },
      "getAirlineFlightInfo(bytes32)": {
        "details": "Returns the flight and index based on the flightKey provided."
      },
      "getAirlineFlightKey(address,uint256)": {
        "details": "Returns the flight key based on the airline and index."
      },
      "getAirlineFlightKeysCount(address)": {
        "details": "Returns the number of flight keys that an airline is associated with."
      },
      "getAirlineStatusInfo(address)": {
        "details": "Returns array of booleans and number indicating indicating whether an airline has been      added, votedin, funded, registered and the number of votes number before it can proceed     with the registration."
      },
      "getBalance()": {
        "details": "This returns the contract balance."
      },
      "getInsuredAmount(address,string,uint256,address)": {
        "details": "Returns insurance paid by passenger for particular airline, flight and timestamp."
      },
      "getNextRequiredConsensusCount()": {
        "details": "This returns the multiparty consensus required count.    * When registered airlines is < 4, consensus count is 0. Otherwise, consensus count is  half the number of registered airlines."
      },
      "getPayoutBalance(address)": {
        "details": "Returns total payout balance for particular insuree."
      },
      "getRegisteredAirlinesCount()": {
        "details": "This returns the number of registered airlines."
      },
      "hasVotedForAirline(address,address)": {
        "details": "Returns boolean indicating whether a registered airline has already voted for the applicant      airline or not."
      },
      "isAirline(address)": {
        "details": "Returns true if airline is registered. Otherwise, false."
      },
      "isAirlineClearedForFunding(address)": {
        "details": "Returns if airline is clear for funding. Only airlines that have been voted in are cleared for funding. Airlines that are only added are not cleared for funding - needs half of the registered airlines vote to get voted in."
      },
      "isFlight(address,string,uint256)": {
        "details": "Returns true if flight is registered. Otherwise, false."
      },
      "isInsured(address,string,uint256,address)": {
        "details": "Returns true if passenger is insured. Otherwise, false.    "
      },
      "isOperational()": {
        "details": "Get operating status of contract",
        "return": "A bool that is the current operating status"
      },
      "isUser(address)": {
        "details": "Returns true if passenger is registered."
      },
      "needsRegisteredAirline()": {
        "details": "Returns boolean indicating whether an airline needs a registered airline to proceed with      the registration process."
      },
      "pay(address)": {
        "details": "Transfers eligible payout funds to insuree    "
      },
      "registerAirline(address,address)": {
        "details": "Add an airline to the registration queue     Can only be called from FlightSuretyApp contract"
      },
      "registerFlight(address,string,uint256,bool,uint8)": {
        "details": "This registers a flight."
      },
      "setOperatingStatus(bool)": {
        "details": "Sets contract operations on/off    * When operational mode is disabled, all write transactions except for this one will fail"
      },
      "setTestingMode(bool)": {
        "details": "Sets testing mode on/off    * When operational mode is disabled, all write transactions will fail"
      },
      "voteAirline(address,address)": {
        "details": "Vote an airline after its been added.       Can only be called from FlightSuretyApp contract"
      }
    }
  },
  "userdoc": {
    "methods": {}
  }
}